{
  "contractName": "Credit",
  "abi": [
    {
      "inputs": [
        {
          "internalType": "uint256",
          "name": "_requestedAmount",
          "type": "uint256"
        },
        {
          "internalType": "uint256",
          "name": "_requestedRepayments",
          "type": "uint256"
        },
        {
          "internalType": "uint256",
          "name": "_interest",
          "type": "uint256"
        },
        {
          "internalType": "string",
          "name": "_description",
          "type": "string"
        },
        {
          "internalType": "address",
          "name": "_borrower",
          "type": "address"
        }
      ],
      "stateMutability": "nonpayable",
      "type": "constructor"
    },
    {
      "anonymous": false,
      "inputs": [
        {
          "indexed": true,
          "internalType": "address",
          "name": "borrower",
          "type": "address"
        },
        {
          "indexed": true,
          "internalType": "uint256",
          "name": "time",
          "type": "uint256"
        }
      ],
      "name": "BorrowerIsFraud",
      "type": "event"
    },
    {
      "anonymous": false,
      "inputs": [
        {
          "indexed": true,
          "internalType": "address",
          "name": "borrower",
          "type": "address"
        },
        {
          "indexed": true,
          "internalType": "uint256",
          "name": "time",
          "type": "uint256"
        }
      ],
      "name": "BorrowerRepaymentFinished",
      "type": "event"
    },
    {
      "anonymous": false,
      "inputs": [
        {
          "indexed": true,
          "internalType": "address",
          "name": "borrower",
          "type": "address"
        },
        {
          "indexed": true,
          "internalType": "uint256",
          "name": "installment",
          "type": "uint256"
        },
        {
          "indexed": true,
          "internalType": "uint256",
          "name": "time",
          "type": "uint256"
        }
      ],
      "name": "BorrowerRepaymentInstallment",
      "type": "event"
    },
    {
      "anonymous": false,
      "inputs": [
        {
          "indexed": true,
          "internalType": "address",
          "name": "borrower",
          "type": "address"
        },
        {
          "indexed": true,
          "internalType": "uint256",
          "name": "amount",
          "type": "uint256"
        },
        {
          "indexed": true,
          "internalType": "uint256",
          "name": "time",
          "type": "uint256"
        }
      ],
      "name": "BorrowerWithdrawal",
      "type": "event"
    },
    {
      "anonymous": false,
      "inputs": [
        {
          "indexed": true,
          "internalType": "address",
          "name": "lender",
          "type": "address"
        },
        {
          "indexed": true,
          "internalType": "uint256",
          "name": "extraFund",
          "type": "uint256"
        },
        {
          "indexed": true,
          "internalType": "uint256",
          "name": "time",
          "type": "uint256"
        }
      ],
      "name": "ChangeReturned",
      "type": "event"
    },
    {
      "anonymous": false,
      "inputs": [
        {
          "indexed": true,
          "internalType": "address",
          "name": "borrower",
          "type": "address"
        },
        {
          "indexed": true,
          "internalType": "uint256",
          "name": "time",
          "type": "uint256"
        }
      ],
      "name": "CreditCreated",
      "type": "event"
    },
    {
      "anonymous": false,
      "inputs": [
        {
          "indexed": true,
          "internalType": "bool",
          "name": "active",
          "type": "bool"
        },
        {
          "indexed": true,
          "internalType": "uint256",
          "name": "time",
          "type": "uint256"
        }
      ],
      "name": "CreditStateActiveChanged",
      "type": "event"
    },
    {
      "anonymous": false,
      "inputs": [
        {
          "indexed": true,
          "internalType": "enum Credit.CreditState",
          "name": "state",
          "type": "uint8"
        },
        {
          "indexed": true,
          "internalType": "uint256",
          "name": "time",
          "type": "uint256"
        }
      ],
      "name": "CreditStateChanged",
      "type": "event"
    },
    {
      "anonymous": false,
      "inputs": [
        {
          "indexed": false,
          "internalType": "address",
          "name": "lender",
          "type": "address"
        },
        {
          "indexed": true,
          "internalType": "uint256",
          "name": "investment",
          "type": "uint256"
        },
        {
          "indexed": true,
          "internalType": "uint256",
          "name": "time",
          "type": "uint256"
        }
      ],
      "name": "LenderInvestment",
      "type": "event"
    },
    {
      "anonymous": false,
      "inputs": [
        {
          "indexed": true,
          "internalType": "address",
          "name": "lender",
          "type": "address"
        },
        {
          "indexed": true,
          "internalType": "uint256",
          "name": "lendersInvestedAmount",
          "type": "uint256"
        },
        {
          "indexed": true,
          "internalType": "uint256",
          "name": "time",
          "type": "uint256"
        }
      ],
      "name": "LenderRefunded",
      "type": "event"
    },
    {
      "anonymous": false,
      "inputs": [
        {
          "indexed": true,
          "internalType": "address",
          "name": "lender",
          "type": "address"
        },
        {
          "indexed": true,
          "internalType": "uint256",
          "name": "time",
          "type": "uint256"
        }
      ],
      "name": "LenderVoteForFraud",
      "type": "event"
    },
    {
      "anonymous": false,
      "inputs": [
        {
          "indexed": true,
          "internalType": "address",
          "name": "lender",
          "type": "address"
        },
        {
          "indexed": true,
          "internalType": "uint256",
          "name": "time",
          "type": "uint256"
        }
      ],
      "name": "LenderVoteForRevoking",
      "type": "event"
    },
    {
      "anonymous": false,
      "inputs": [
        {
          "indexed": true,
          "internalType": "address",
          "name": "borrower",
          "type": "address"
        },
        {
          "indexed": true,
          "internalType": "uint256",
          "name": "lenderReturnAmount",
          "type": "uint256"
        },
        {
          "indexed": true,
          "internalType": "uint256",
          "name": "time",
          "type": "uint256"
        }
      ],
      "name": "LenderWithdrawal",
      "type": "event"
    },
    {
      "anonymous": false,
      "inputs": [
        {
          "indexed": true,
          "internalType": "address",
          "name": "previousOwner",
          "type": "address"
        },
        {
          "indexed": true,
          "internalType": "address",
          "name": "newOwner",
          "type": "address"
        }
      ],
      "name": "OwnershipTransferred",
      "type": "event"
    },
    {
      "inputs": [
        {
          "internalType": "address",
          "name": "",
          "type": "address"
        }
      ],
      "name": "lenders",
      "outputs": [
        {
          "internalType": "bool",
          "name": "",
          "type": "bool"
        }
      ],
      "stateMutability": "view",
      "type": "function"
    },
    {
      "inputs": [
        {
          "internalType": "uint256",
          "name": "",
          "type": "uint256"
        }
      ],
      "name": "lendersLog",
      "outputs": [
        {
          "internalType": "address",
          "name": "",
          "type": "address"
        }
      ],
      "stateMutability": "view",
      "type": "function"
    },
    {
      "inputs": [],
      "name": "owner",
      "outputs": [
        {
          "internalType": "address",
          "name": "",
          "type": "address"
        }
      ],
      "stateMutability": "view",
      "type": "function"
    },
    {
      "inputs": [],
      "name": "renounceOwnership",
      "outputs": [],
      "stateMutability": "nonpayable",
      "type": "function"
    },
    {
      "inputs": [
        {
          "internalType": "address",
          "name": "newOwner",
          "type": "address"
        }
      ],
      "name": "transferOwnership",
      "outputs": [],
      "stateMutability": "nonpayable",
      "type": "function"
    },
    {
      "inputs": [],
      "name": "invest",
      "outputs": [],
      "stateMutability": "payable",
      "type": "function"
    },
    {
      "inputs": [],
      "name": "repay",
      "outputs": [],
      "stateMutability": "payable",
      "type": "function"
    },
    {
      "inputs": [],
      "name": "withdraw",
      "outputs": [],
      "stateMutability": "nonpayable",
      "type": "function"
    },
    {
      "inputs": [],
      "name": "requestInterest",
      "outputs": [],
      "stateMutability": "nonpayable",
      "type": "function"
    },
    {
      "inputs": [],
      "name": "revokeVote",
      "outputs": [],
      "stateMutability": "nonpayable",
      "type": "function"
    },
    {
      "inputs": [],
      "name": "refund",
      "outputs": [],
      "stateMutability": "nonpayable",
      "type": "function"
    },
    {
      "inputs": [
        {
          "internalType": "enum Credit.CreditState",
          "name": "_state",
          "type": "uint8"
        }
      ],
      "name": "changeState",
      "outputs": [],
      "stateMutability": "nonpayable",
      "type": "function"
    },
    {
      "inputs": [],
      "name": "toggleActive",
      "outputs": [
        {
          "internalType": "bool",
          "name": "",
          "type": "bool"
        }
      ],
      "stateMutability": "nonpayable",
      "type": "function"
    },
    {
      "inputs": [],
      "name": "getCreditInfo",
      "outputs": [
        {
          "internalType": "address",
          "name": "",
          "type": "address"
        },
        {
          "internalType": "string",
          "name": "",
          "type": "string"
        },
        {
          "internalType": "uint256",
          "name": "",
          "type": "uint256"
        },
        {
          "internalType": "uint256",
          "name": "",
          "type": "uint256"
        },
        {
          "internalType": "uint256",
          "name": "",
          "type": "uint256"
        },
        {
          "internalType": "uint256",
          "name": "",
          "type": "uint256"
        },
        {
          "internalType": "uint256",
          "name": "",
          "type": "uint256"
        },
        {
          "internalType": "uint256",
          "name": "",
          "type": "uint256"
        },
        {
          "internalType": "enum Credit.CreditState",
          "name": "",
          "type": "uint8"
        },
        {
          "internalType": "bool",
          "name": "",
          "type": "bool"
        },
        {
          "internalType": "uint256",
          "name": "",
          "type": "uint256"
        }
      ],
      "stateMutability": "view",
      "type": "function"
    },
    {
      "inputs": [],
      "name": "getBalance",
      "outputs": [
        {
          "internalType": "uint256",
          "name": "",
          "type": "uint256"
        }
      ],
      "stateMutability": "view",
      "type": "function"
    },
    {
      "inputs": [],
      "name": "getLenders",
      "outputs": [
        {
          "internalType": "address[]",
          "name": "",
          "type": "address[]"
        }
      ],
      "stateMutability": "view",
      "type": "function"
    }
  ],
  "bytecode": "0x60806040526000600c819055600d556200001b42600162000392565b600e556010805460ff191660011790553480156200003857600080fd5b506040516200163e3803806200163e8339810160408190526200005b9162000281565b62000066336200014b565b600280546001600160a01b0319166001600160a01b0383161790556006839055600385905560078490556008849055620000ad85846200019b602090811b62000e2117901c565b600481905550620000d1600754600454620001b060201b62000e341790919060201c565b6009558151620000e990600f906020850190620001be565b5042600a819055600180546001600160a01b031916331790556000805460ff60a01b191681556040516001600160a01b038416917fd6b0a532be6a7986b9de41fbbf991ac71079eb4c48f5f46913a7e16f194ddb6e91a350505050506200042f565b600080546001600160a01b038381166001600160a01b0319831681178455604051919092169283917f8be0079c531659141344cd1fd0a4f28419497f9722a3daafe3b4186f6b6457e09190a35050565b6000620001a9828462000392565b9392505050565b6000620001a98284620003b9565b828054620001cc90620003dc565b90600052602060002090601f016020900481019282620001f057600085556200023b565b82601f106200020b57805160ff19168380011785556200023b565b828001600101855582156200023b579182015b828111156200023b5782518255916020019190600101906200021e565b50620002499291506200024d565b5090565b5b808211156200024957600081556001016200024e565b80516001600160a01b03811681146200027c57600080fd5b919050565b600080600080600060a086880312156200029a57600080fd5b8551602080880151604089015160608a01519398509096509450906001600160401b0380821115620002cb57600080fd5b818901915089601f830112620002e057600080fd5b815181811115620002f557620002f562000419565b604051601f8201601f19908116603f0116810190838211818310171562000320576200032062000419565b816040528281528c868487010111156200033957600080fd5b600093505b828410156200035d57848401860151818501870152928501926200033e565b828411156200036f5760008684830101525b809750505050505050620003866080870162000264565b90509295509295909350565b60008219821115620003b457634e487b7160e01b600052601160045260246000fd5b500190565b600082620003d757634e487b7160e01b600052601260045260246000fd5b500490565b600181811c90821680620003f157607f821691505b602082108114156200041357634e487b7160e01b600052602260045260246000fd5b50919050565b634e487b7160e01b600052604160045260246000fd5b6111ff806200043f6000396000f3fe6080604052600436106100c35760003560e01c806312065fe0146100c8578063268f1153146100e857806328fd10d71461010a57806329c68dc11461014a5780633ccfd60b1461015f578063402d88831461017457806343c14b221461017c578063590e1ae3146101915780636e021df7146101a6578063715018a6146101d357806382926875146101e85780638da5cb5b1461020a578063e8b5e51f1461021f578063efd475ab14610227578063f06817cf1461023c578063f2fde38b14610268575b600080fd5b3480156100d457600080fd5b506040514781526020015b60405180910390f35b3480156100f457600080fd5b50610108610103366004610edf565b610288565b005b34801561011657600080fd5b5061013a610125366004610eb6565b60126020526000908152604090205460ff1681565b60405190151581526020016100df565b34801561015657600080fd5b5061013a610324565b34801561016b57600080fd5b50610108610393565b6101086104a8565b34801561018857600080fd5b5061010861060e565b34801561019d57600080fd5b506101086106f7565b3480156101b257600080fd5b506101c66101c1366004610f00565b610862565b6040516100df9190610f3b565b3480156101df57600080fd5b5061010861088c565b3480156101f457600080fd5b506101fd6108c5565b6040516100df9190611007565b34801561021657600080fd5b506101c6610956565b610108610965565b34801561023357600080fd5b50610108610b3b565b34801561024857600080fd5b50610251610c78565b6040516100df9b9a99989796959493929190610f4f565b34801561027457600080fd5b50610108610283366004610eb6565b610d84565b33610291610956565b6001600160a01b0316146102c05760405162461bcd60e51b81526004016102b790611054565b60405180910390fd5b6000805482919060ff60a01b1916600160a01b8360058111156102e5576102e5611173565b02179055506000544290600160a01b900460ff16600581111561030a5761030a611173565b60405160008051602061118a83398151915290600090a350565b60003361032f610956565b6001600160a01b0316146103555760405162461bcd60e51b81526004016102b790611054565b6010805460ff19811660ff9182161590811790925560405142929091161515906000805160206111aa83398151915290600090a35060105460ff1690565b60105460ff1615156001146103a757600080fd5b6002546001600160a01b031633146103be57600080fd5b6003544710156103cd57600080fd5b6005600054600160a01b900460ff1660058111156103ed576103ed611173565b14156103f857600080fd5b6000805460ff60a01b1916600160a01b9081179182905542910460ff16600581111561042657610426611173565b60405160008051602061118a83398151915290600090a36040514290479033907f7dc4c37201ed56b6c6e0a05290eb94e64040786a508fff228cf7f79423b643c590600090a46002546040516001600160a01b03909116904780156108fc02916000818181858888f193505050501580156104a5573d6000803e3d6000fd5b50565b6002546001600160a01b031633146104bf57600080fd5b6001600054600160a01b900460ff1660058111156104df576104df611173565b146104e957600080fd5b6000600854116104f857600080fd5b60095434101561050757600080fd5b60088054906000610517836110da565b909155505042600b5560095460009034111561056d5760095461053b903490610e40565b604051909150339082156108fc029083906000818181858888f1935050505015801561056b573d6000803e3d6000fd5b505b426105783483610e40565b60405133907f3fb95d44e159e2cf279d6cb5fd3d694601f47aa11311cf0db500354af34518a790600090a46105b96105b03483610e40565b60055490610e21565b600581905560045414156104a557604051429033907f88c3c6dc70a5cff89078a4ab563dafce790b6f69d88c77fd2bbe7a4d53f12b7090600090a3600080546002919060ff60a01b1916600160a01b836102e5565b60105460ff16151560011461062257600080fd5b600e5442101561063157600080fd5b60008054600160a01b900460ff16600581111561065057610650611173565b1461065a57600080fd5b3360009081526012602052604090205460ff16151560011461067b57600080fd5b3360009081526011602052604090205460ff161561069857600080fd5b600d80549060006106a88361112c565b909155505033600081815260116020526040514292917fe34f4c35680db62badf230c91431ddb53698ee30e6291e7ba2c29e87083fa53191a3600d54600c5414156106f5576106f5610e4c565b565b60105460ff16151560011461070b57600080fd5b3360009081526012602052604090205460ff16151560011461072c57600080fd5b6004600054600160a01b900460ff16600581111561074c5761074c611173565b1461075657600080fd5b3360009081526013602052604090205447101561077257600080fd5b3360008181526013602052604080822054905181156108fc0292818181858888f193505050501580156107a9573d6000803e3d6000fd5b5033600081815260136020526040808220549051429391927fe7afe2021ef5a8fe5e543b38f37e6a7799d26907b92fb1e3d24dd7a06e74ff6791a4476106f5576010805460ff1916905560405142906000906000805160206111aa833981519152908290a3600080546003919060ff60a01b1916600160a01b835b02179055506000544290600160a01b900460ff16600581111561084957610849611173565b60405160008051602061118a83398151915290600090a3565b6014818154811061087257600080fd5b6000918252602090912001546001600160a01b0316905081565b33610895610956565b6001600160a01b0316146108bb5760405162461bcd60e51b81526004016102b790611054565b6106f56000610e66565b6060336108d0610956565b6001600160a01b0316146108f65760405162461bcd60e51b81526004016102b790611054565b601480548060200260200160405190810160405280929190818152602001828054801561094c57602002820191906000526020600020905b81546001600160a01b0316815260019091019060200180831161092e575b5050505050905090565b6000546001600160a01b031690565b60008054600160a01b900460ff16600581111561098457610984611173565b1461098e57600080fd5b60006003544710610a53576003546109a7904790610e40565b90508015610a0d57604051339082156108fc029083906000818181858888f193505050501580156109dc573d6000803e3d6000fd5b506040514290829033907f2e2503bd032926fd7c2f6f2e1779b83841a24ab4d41accf43c89793c26f4cf6d90600090a45b6000805460ff60a01b1916600160a01b9081179182905542910460ff166005811115610a3b57610a3b611173565b60405160008051602061118a83398151915290600090a35b336000818152601260205260408120805460ff1916600190811790915560148054918201815582527fce6d7b5282bd9a3661ae061feed1dbda4e52ab073b1f9285be6e155d9c38d4ec0180546001600160a01b031916909217909155600c805491610abd8361112c565b90915550610ae69050610ad03483610e40565b3360009081526013602052604090205490610e21565b3360009081526013602052604090205542610b013483610e40565b7f90ba96906dd7ba676e83e5be593cbf08e08ae7af573a546478e7e61526fb68fa33604051610b309190610f3b565b60405180910390a350565b60105460ff161515600114610b4f57600080fd5b3360009081526012602052604090205460ff161515600114610b7057600080fd5b6002600054600160a01b900460ff166005811115610b9057610b90611173565b14610b9a57600080fd5b33600090815260136020526040902054610bb357600080fd5b6000600c54600454610bc591906110a1565b905080471015610bd757610bd7611147565b604051339082156108fc029083906000818181858888f19350505050158015610c04573d6000803e3d6000fd5b506040514290829033907f87a3bdf95d74f9ddbb5e43fa19605b0f0610ff18829384e905031dc75d85a3b290600090a4476104a5576010805460ff1916905560405142906000906000805160206111aa833981519152908290a3600080546003919060ff60a01b1916600160a01b836102e5565b600060606000806000806000806000806000600260009054906101000a90046001600160a01b0316600f600354600754600954600854600654600454600060149054906101000a900460ff16601060009054906101000a900460ff1647898054610ce1906110f1565b80601f0160208091040260200160405190810160405280929190818152602001828054610d0d906110f1565b8015610d5a5780601f10610d2f57610100808354040283529160200191610d5a565b820191906000526020600020905b815481529060010190602001808311610d3d57829003601f168201915b505050505099509a509a509a509a509a509a509a509a509a509a509a50909192939495969798999a565b33610d8d610956565b6001600160a01b031614610db35760405162461bcd60e51b81526004016102b790611054565b6001600160a01b038116610e185760405162461bcd60e51b815260206004820152602660248201527f4f776e61626c653a206e6577206f776e657220697320746865207a65726f206160448201526564647265737360d01b60648201526084016102b7565b6104a581610e66565b6000610e2d8284611089565b9392505050565b6000610e2d82846110a1565b6000610e2d82846110c3565b600080546004919060ff60a01b1916600160a01b83610824565b600080546001600160a01b038381166001600160a01b0319831681178455604051919092169283917f8be0079c531659141344cd1fd0a4f28419497f9722a3daafe3b4186f6b6457e09190a35050565b600060208284031215610ec857600080fd5b81356001600160a01b0381168114610e2d57600080fd5b600060208284031215610ef157600080fd5b813560068110610e2d57600080fd5b600060208284031215610f1257600080fd5b5035919050565b60068110610f3757634e487b7160e01b600052602160045260246000fd5b9052565b6001600160a01b0391909116815260200190565b6001600160a01b038c168152610160602082018190528b5190820181905260009081905b80821015610f95576020828f0101516101808386010152602082019150610f73565b80821115610fa857600061018082860101525b610180601f19601f830116850101925050508a60408301528960608301528860808301528760a08301528660c08301528560e0830152610fec610100830186610f19565b92151561012082015261014001529998505050505050505050565b6020808252825182820181905260009190848201906040850190845b818110156110485783516001600160a01b031683529284019291840191600101611023565b50909695505050505050565b6020808252818101527f4f776e61626c653a2063616c6c6572206973206e6f7420746865206f776e6572604082015260600190565b6000821982111561109c5761109c61115d565b500190565b6000826110be57634e487b7160e01b600052601260045260246000fd5b500490565b6000828210156110d5576110d561115d565b500390565b6000816110e9576110e961115d565b506000190190565b600181811c9082168061110557607f821691505b6020821081141561112657634e487b7160e01b600052602260045260246000fd5b50919050565b60006000198214156111405761114061115d565b5060010190565b634e487b7160e01b600052600160045260246000fd5b634e487b7160e01b600052601160045260246000fd5b634e487b7160e01b600052602160045260246000fdfea1f57b4d2e1dbc2fb780a8bf1d654bff435e9ae4d78f0090aa1424de456e1aa28fcb8b9c907c3d63d35e1f35de0ecdc8618c3b3d752a1fd7ea77292f77891246a2646970667358221220da246fe2e8c6b86680d8ba72cb2c333b3a1234cf8738e9dc3a734f9d6dfefa3764736f6c63430008070033",
  "immutableReferences": {},
  "source": "pragma solidity 0.8.7;\r\n\r\nimport \"@openzeppelin/contracts/utils/math/SafeMath.sol\";\r\nimport \"@openzeppelin/contracts/access/Ownable.sol\";\r\n\r\n\r\ncontract Credit is Ownable{\r\n    \r\n    using SafeMath for uint;\r\n\r\n    event CreditCreated(address indexed borrower, uint indexed time);\r\n    event ChangeReturned(address indexed lender, uint indexed extraFund, uint indexed time);\r\n    event CreditStateChanged(CreditState indexed state, uint indexed time);\r\n    event LenderInvestment(address lender, uint indexed investment, uint indexed time);\r\n    event BorrowerRepaymentInstallment(address indexed borrower, uint indexed installment, uint indexed time);\r\n    event BorrowerRepaymentFinished(address indexed borrower, uint indexed time);\r\n    event BorrowerWithdrawal(address indexed borrower, uint indexed amount, uint indexed time);\r\n    event CreditStateActiveChanged(bool indexed active, uint indexed time);\r\n    event LenderWithdrawal(address indexed borrower, uint indexed lenderReturnAmount, uint indexed time);\r\n    event LenderRefunded(address indexed lender, uint indexed lendersInvestedAmount, uint indexed time);\r\n    event LenderVoteForRevoking(address indexed lender, uint indexed time);\r\n    event BorrowerIsFraud(address indexed borrower, uint indexed time);\r\n    event LenderVoteForFraud(address indexed lender, uint indexed time);\r\n\r\n\r\n /** Stages that every credit contract gets trough.\r\n      *   INVESTMENT - During this state only investments are allowed.\r\n      *   REPAYMENT - During this stage only repayments are allowed.\r\n      *   INTREST_RETURNS - This stage gives investors opportunity to request their returns.\r\n      *   EXPIRED - This is the stage when the contract is finished its purpose.\r\n      *   FRAUD - The borrower was marked as fraud.\r\n    */\r\n    enum CreditState { \r\n        INVESTMENT, \r\n        REPAYMENT, \r\n        INTREST_RETURNS, \r\n        EXPIRED, \r\n        REVOCKED, \r\n        FRAUD \r\n    }\r\n\r\n    CreditState state;\r\n\r\n    address creditFactory;\r\n\r\n    // Borrower is the person who generated the credit contract.\r\n    address borrower;\r\n\r\n    // Amount requested to be funded (in wei).\r\n    uint requestedAmount;\r\n\r\n    // Amount that will be returned by the borrower (including the interest).\r\n    uint returnAmount;\r\n\r\n    // Currently repaid amount.\r\n    uint repaidAmount;\r\n\r\n    // Credit interest.\r\n    uint interest;\r\n\r\n    // Requested number of repayment installments.\r\n    uint requestedRepayments;\r\n\r\n    // Remaining repayment installments.\r\n    uint remainingRepayments;\r\n\r\n    // The value of the repayment installment.\r\n    uint repaymentInstallment;\r\n\r\n    // The timestamp of credit creation.\r\n    uint requestedDate;\r\n\r\n    // The timestamp of last repayment date.\r\n    uint lastRepaymentDate;\r\n\r\n       // Store the lenders count, later needed for revoke vote.\r\n    uint lendersCount = 0;\r\n\r\n    // Revoke votes count.\r\n    uint revokeVotes = 0;\r\n\r\n    // Time needed for a revoke voting to start.\r\n    uint revokeTimeNeeded = block.timestamp + 1 seconds;\r\n\r\n    // Description of the credit.\r\n    string description;\r\n\r\n    // Active state of the credit.\r\n    bool active = true;\r\n  \r\n    // Revoke voters.\r\n    mapping(address => bool) revokeVoters;\r\n    \r\n    // Storing the lenders for this credit.\r\n    mapping(address => bool) public lenders;\r\n\r\n    // Storing the invested amount by each lender.\r\n    mapping(address => uint) lendersInvestedAmount;\r\n\r\n    address[] public lendersLog;\r\n\r\n    modifier isActive() {\r\n        require(active == true);\r\n        _;\r\n    }\r\n\r\n    modifier onlyBorrower() {\r\n        require(msg.sender == borrower);\r\n        _;\r\n    }\r\n\r\n    modifier onlyLender() {\r\n        require(lenders[msg.sender] == true);\r\n        _;\r\n    }\r\n\r\n    modifier canAskForInterest() {\r\n        require(state == CreditState.INTREST_RETURNS);\r\n        require(lendersInvestedAmount[msg.sender] > 0);\r\n        _;\r\n    }\r\n\r\n    modifier canInvest() {\r\n        require(state == CreditState.INVESTMENT);\r\n        _;\r\n    }\r\n\r\n    modifier canRepay() {\r\n        require(state == CreditState.REPAYMENT);\r\n        _;\r\n    }\r\n\r\n    modifier canWithdraw() {\r\n        require(address(this).balance >= requestedAmount);\r\n        _;\r\n    }\r\n\r\n    modifier isNotFraud() {\r\n        require(state != CreditState.FRAUD);\r\n        _;\r\n    }\r\n\r\n    modifier isRevokable() {\r\n        require(block.timestamp >= revokeTimeNeeded);\r\n        require(state == CreditState.INVESTMENT);\r\n        _;\r\n    }\r\n\r\n    modifier isRevoked() {\r\n        require(state == CreditState.REVOCKED);\r\n        _;\r\n    }\r\n\r\n    constructor (uint _requestedAmount, uint _requestedRepayments, uint _interest, string memory _description, address _borrower) {\r\n        \r\n        borrower = _borrower; \r\n        interest = _interest;\r\n        requestedAmount = _requestedAmount;\r\n        requestedRepayments = _requestedRepayments;\r\n        remainingRepayments = _requestedRepayments;\r\n        returnAmount = requestedAmount.add(interest);\r\n        repaymentInstallment = returnAmount.div(requestedRepayments);\r\n        description = _description;\r\n        requestedDate = block.timestamp;\r\n        creditFactory = msg.sender;\r\n        state = CreditState.INVESTMENT;\r\n        emit CreditCreated(_borrower, block.timestamp);\r\n    }\r\n\r\n    function invest() public payable canInvest {\r\n        \r\n        uint extraFund = 0;\r\n\r\n        if (address(this).balance >= requestedAmount) {\r\n\r\n            // Calculate the extra money that may have been sent.\r\n            extraFund = address(this).balance.sub(requestedAmount);\r\n\r\n            // Check if extra money is greater than 0 wei.\r\n            if (extraFund > 0) {\r\n\r\n                payable(msg.sender).transfer(extraFund);\r\n                emit ChangeReturned(msg.sender, extraFund, block.timestamp);\r\n            }\r\n\r\n            state = CreditState.REPAYMENT;\r\n            \r\n            emit CreditStateChanged(state, block.timestamp);\r\n        }\r\n\r\n        \r\n        lenders[msg.sender] = true;\r\n\r\n        lendersLog.push(msg.sender);\r\n\r\n        lendersCount++;\r\n\r\n        lendersInvestedAmount[msg.sender] = lendersInvestedAmount[msg.sender].add(msg.value.sub(extraFund));\r\n\r\n        emit LenderInvestment(msg.sender, msg.value.sub(extraFund), block.timestamp);\r\n    }\r\n\r\n    function repay() public onlyBorrower canRepay payable {\r\n        require(remainingRepayments > 0);\r\n        require(msg.value >= repaymentInstallment);\r\n\r\n        remainingRepayments--;\r\n\r\n        lastRepaymentDate = block.timestamp;\r\n\r\n        uint extraFund = 0;\r\n\r\n        if (msg.value > repaymentInstallment) {\r\n\r\n            extraFund = msg.value.sub(repaymentInstallment);\r\n\r\n            payable(msg.sender).transfer(extraFund);\r\n        }\r\n\r\n        emit BorrowerRepaymentInstallment(msg.sender, msg.value.sub(extraFund), block.timestamp);\r\n\r\n        repaidAmount = repaidAmount.add(msg.value.sub(extraFund));\r\n\r\n        if (repaidAmount == returnAmount) {\r\n\r\n            emit BorrowerRepaymentFinished(msg.sender, block.timestamp);\r\n\r\n            state = CreditState.INTREST_RETURNS;\r\n\r\n            emit CreditStateChanged(state, block.timestamp);\r\n        }\r\n    }\r\n\r\n    /** @dev Withdraw function.\r\n      * It can only be executed while contract is in active state.\r\n      * It is only accessible to the borrower.\r\n      * It is only accessible if the needed amount is gathered in the contract.\r\n      * It can only be executed once.\r\n      * Transfers the gathered amount to the borrower.\r\n      */\r\n    function withdraw() public isActive onlyBorrower canWithdraw isNotFraud {\r\n\r\n        state = CreditState.REPAYMENT;\r\n\r\n        emit CreditStateChanged(state, block.timestamp);\r\n\r\n        emit BorrowerWithdrawal(msg.sender, address(this).balance, block.timestamp);\r\n\r\n        payable(borrower).transfer(address(this).balance);\r\n    }\r\n\r\n    /** @dev Request interest function.\r\n      * It can only be executed while contract is in active state.\r\n      * It is only accessible to lenders.\r\n      * It is only accessible if lender funded 1 or more wei.\r\n      * It can only be executed once.\r\n      * Transfers the lended amount + interest to the lender.\r\n      */\r\n    function requestInterest() public isActive onlyLender canAskForInterest {\r\n\r\n        // Calculate the amount to be returned to lender.\r\n        uint lenderReturnAmount = returnAmount / lendersCount;\r\n\r\n        // Assert the contract has enough balance to pay the lender.\r\n        assert(address(this).balance >= lenderReturnAmount);\r\n\r\n        // Transfer the return amount with interest to the lender.\r\n        payable(msg.sender).transfer(lenderReturnAmount);\r\n\r\n        emit LenderWithdrawal(msg.sender, lenderReturnAmount, block.timestamp);\r\n\r\n        if (address(this).balance == 0) {\r\n\r\n            // Set the active state to false.\r\n            active = false;\r\n\r\n            // Log active state change.\r\n            emit CreditStateActiveChanged(active, block.timestamp);\r\n\r\n            state = CreditState.EXPIRED;\r\n\r\n            emit CreditStateChanged(state, block.timestamp);\r\n        }\r\n    }\r\n\r\n    /** @dev Function for revoking the credit.\r\n      */\r\n    function revokeVote() public isActive isRevokable onlyLender {\r\n        require(revokeVoters[msg.sender] == false);\r\n        revokeVotes++;\r\n        revokeVoters[msg.sender] == true;\r\n\r\n        emit LenderVoteForRevoking(msg.sender, block.timestamp);\r\n\r\n        if (lendersCount == revokeVotes) {\r\n            revoke();\r\n        }\r\n    }\r\n\r\n    /** @dev Revoke internal function.\r\n      */\r\n    function revoke() internal {\r\n        state = CreditState.REVOCKED;\r\n        emit CreditStateChanged(state, block.timestamp);\r\n\r\n    }\r\n\r\n    /** @dev Function for refunding people. */\r\n    function refund() public isActive onlyLender isRevoked {\r\n        require(address(this).balance >= lendersInvestedAmount[msg.sender]);\r\n\r\n        payable(msg.sender).transfer(lendersInvestedAmount[msg.sender]);\r\n\r\n        emit LenderRefunded(msg.sender, lendersInvestedAmount[msg.sender], block.timestamp);\r\n        \r\n        if (address(this).balance == 0) {\r\n\r\n            active = false;\r\n            emit CreditStateActiveChanged(active, block.timestamp);\r\n\r\n            state = CreditState.EXPIRED;\r\n\r\n            emit CreditStateChanged(state, block.timestamp);\r\n        }\r\n    }\r\n\r\n    function changeState(CreditState _state) external onlyOwner {\r\n        state = _state;\r\n\r\n        emit CreditStateChanged(state, block.timestamp);\r\n    }\r\n\r\n    \r\n    function toggleActive() external onlyOwner returns (bool) {\r\n        active = !active;\r\n        emit CreditStateActiveChanged(active, block.timestamp);\r\n        return active;\r\n    }\r\n\r\n    function getCreditInfo() public view returns (address, string memory, uint, uint, uint, uint, uint, uint, CreditState, bool, uint) {\r\n       \r\n        return (\r\n        borrower,\r\n        description,\r\n        requestedAmount,\r\n        requestedRepayments,\r\n        repaymentInstallment,\r\n        remainingRepayments,\r\n        interest,\r\n        returnAmount,\r\n        state,\r\n        active,\r\n        address(this).balance\r\n        );\r\n    }\r\n\r\n    function getBalance() public view returns (uint) {\r\n        return address(this).balance;\r\n    }\r\n\r\n    function getLenders() external view onlyOwner returns(address[] memory){\r\n        return lendersLog;\r\n    }\r\n\r\n\r\n}",
  "sourcePath": "C:\\Users\\USER\\Desktop\\Credit_and_staking\\contracts\\Credit.sol",
  "compiler": {
    "name": "solc",
    "version": "0.8.7+commit.e28d00a7.Emscripten.clang"
  },
  "schemaVersion": "3.4.6",
  "updatedAt": "2022-04-18T21:49:57.486Z",
  "devdoc": {
    "kind": "dev",
    "methods": {
      "owner()": {
        "details": "Returns the address of the current owner."
      },
      "refund()": {
        "details": "Function for refunding people. "
      },
      "renounceOwnership()": {
        "details": "Leaves the contract without owner. It will not be possible to call `onlyOwner` functions anymore. Can only be called by the current owner. NOTE: Renouncing ownership will leave the contract without an owner, thereby removing any functionality that is only available to the owner."
      },
      "requestInterest()": {
        "details": "Request interest function. It can only be executed while contract is in active state. It is only accessible to lenders. It is only accessible if lender funded 1 or more wei. It can only be executed once. Transfers the lended amount + interest to the lender."
      },
      "revokeVote()": {
        "details": "Function for revoking the credit."
      },
      "transferOwnership(address)": {
        "details": "Transfers ownership of the contract to a new account (`newOwner`). Can only be called by the current owner."
      },
      "withdraw()": {
        "details": "Withdraw function. It can only be executed while contract is in active state. It is only accessible to the borrower. It is only accessible if the needed amount is gathered in the contract. It can only be executed once. Transfers the gathered amount to the borrower."
      }
    },
    "version": 1
  },
  "userdoc": {
    "kind": "user",
    "methods": {},
    "version": 1
  }
}