{
  "contractName": "Credit",
  "abi": [
    {
      "inputs": [
        {
          "internalType": "uint256",
          "name": "_requestedAmount",
          "type": "uint256"
        },
        {
          "internalType": "uint256",
          "name": "_requestedRepayments",
          "type": "uint256"
        },
        {
          "internalType": "uint256",
          "name": "_interest",
          "type": "uint256"
        },
        {
          "internalType": "string",
          "name": "_description",
          "type": "string"
        },
        {
          "internalType": "address",
          "name": "_borrower",
          "type": "address"
        }
      ],
      "stateMutability": "nonpayable",
      "type": "constructor"
    },
    {
      "anonymous": false,
      "inputs": [
        {
          "indexed": true,
          "internalType": "address",
          "name": "borrower",
          "type": "address"
        },
        {
          "indexed": true,
          "internalType": "uint256",
          "name": "time",
          "type": "uint256"
        }
      ],
      "name": "BorrowerIsFraud",
      "type": "event"
    },
    {
      "anonymous": false,
      "inputs": [
        {
          "indexed": true,
          "internalType": "address",
          "name": "borrower",
          "type": "address"
        },
        {
          "indexed": true,
          "internalType": "uint256",
          "name": "time",
          "type": "uint256"
        }
      ],
      "name": "BorrowerRepaymentFinished",
      "type": "event"
    },
    {
      "anonymous": false,
      "inputs": [
        {
          "indexed": true,
          "internalType": "address",
          "name": "borrower",
          "type": "address"
        },
        {
          "indexed": true,
          "internalType": "uint256",
          "name": "installment",
          "type": "uint256"
        },
        {
          "indexed": true,
          "internalType": "uint256",
          "name": "time",
          "type": "uint256"
        }
      ],
      "name": "BorrowerRepaymentInstallment",
      "type": "event"
    },
    {
      "anonymous": false,
      "inputs": [
        {
          "indexed": true,
          "internalType": "address",
          "name": "borrower",
          "type": "address"
        },
        {
          "indexed": true,
          "internalType": "uint256",
          "name": "amount",
          "type": "uint256"
        },
        {
          "indexed": true,
          "internalType": "uint256",
          "name": "time",
          "type": "uint256"
        }
      ],
      "name": "BorrowerWithdrawal",
      "type": "event"
    },
    {
      "anonymous": false,
      "inputs": [
        {
          "indexed": true,
          "internalType": "address",
          "name": "lender",
          "type": "address"
        },
        {
          "indexed": true,
          "internalType": "uint256",
          "name": "extraFund",
          "type": "uint256"
        },
        {
          "indexed": true,
          "internalType": "uint256",
          "name": "time",
          "type": "uint256"
        }
      ],
      "name": "ChangeReturned",
      "type": "event"
    },
    {
      "anonymous": false,
      "inputs": [
        {
          "indexed": true,
          "internalType": "address",
          "name": "borrower",
          "type": "address"
        },
        {
          "indexed": true,
          "internalType": "uint256",
          "name": "time",
          "type": "uint256"
        }
      ],
      "name": "CreditCreated",
      "type": "event"
    },
    {
      "anonymous": false,
      "inputs": [
        {
          "indexed": true,
          "internalType": "bool",
          "name": "active",
          "type": "bool"
        },
        {
          "indexed": true,
          "internalType": "uint256",
          "name": "time",
          "type": "uint256"
        }
      ],
      "name": "CreditStateActiveChanged",
      "type": "event"
    },
    {
      "anonymous": false,
      "inputs": [
        {
          "indexed": true,
          "internalType": "enum Credit.CreditState",
          "name": "state",
          "type": "uint8"
        },
        {
          "indexed": true,
          "internalType": "uint256",
          "name": "time",
          "type": "uint256"
        }
      ],
      "name": "CreditStateChanged",
      "type": "event"
    },
    {
      "anonymous": false,
      "inputs": [
        {
          "indexed": false,
          "internalType": "address",
          "name": "lender",
          "type": "address"
        },
        {
          "indexed": true,
          "internalType": "uint256",
          "name": "investment",
          "type": "uint256"
        },
        {
          "indexed": true,
          "internalType": "uint256",
          "name": "time",
          "type": "uint256"
        }
      ],
      "name": "LenderInvestment",
      "type": "event"
    },
    {
      "anonymous": false,
      "inputs": [
        {
          "indexed": true,
          "internalType": "address",
          "name": "lender",
          "type": "address"
        },
        {
          "indexed": true,
          "internalType": "uint256",
          "name": "lendersInvestedAmount",
          "type": "uint256"
        },
        {
          "indexed": true,
          "internalType": "uint256",
          "name": "time",
          "type": "uint256"
        }
      ],
      "name": "LenderRefunded",
      "type": "event"
    },
    {
      "anonymous": false,
      "inputs": [
        {
          "indexed": true,
          "internalType": "address",
          "name": "lender",
          "type": "address"
        },
        {
          "indexed": true,
          "internalType": "uint256",
          "name": "time",
          "type": "uint256"
        }
      ],
      "name": "LenderVoteForFraud",
      "type": "event"
    },
    {
      "anonymous": false,
      "inputs": [
        {
          "indexed": true,
          "internalType": "address",
          "name": "lender",
          "type": "address"
        },
        {
          "indexed": true,
          "internalType": "uint256",
          "name": "time",
          "type": "uint256"
        }
      ],
      "name": "LenderVoteForRevoking",
      "type": "event"
    },
    {
      "anonymous": false,
      "inputs": [
        {
          "indexed": true,
          "internalType": "address",
          "name": "borrower",
          "type": "address"
        },
        {
          "indexed": true,
          "internalType": "uint256",
          "name": "lenderReturnAmount",
          "type": "uint256"
        },
        {
          "indexed": true,
          "internalType": "uint256",
          "name": "time",
          "type": "uint256"
        }
      ],
      "name": "LenderWithdrawal",
      "type": "event"
    },
    {
      "anonymous": false,
      "inputs": [
        {
          "indexed": true,
          "internalType": "address",
          "name": "previousOwner",
          "type": "address"
        },
        {
          "indexed": true,
          "internalType": "address",
          "name": "newOwner",
          "type": "address"
        }
      ],
      "name": "OwnershipTransferred",
      "type": "event"
    },
    {
      "inputs": [
        {
          "internalType": "address",
          "name": "",
          "type": "address"
        }
      ],
      "name": "lenders",
      "outputs": [
        {
          "internalType": "bool",
          "name": "",
          "type": "bool"
        }
      ],
      "stateMutability": "view",
      "type": "function"
    },
    {
      "inputs": [
        {
          "internalType": "uint256",
          "name": "",
          "type": "uint256"
        }
      ],
      "name": "lendersLog",
      "outputs": [
        {
          "internalType": "address",
          "name": "",
          "type": "address"
        }
      ],
      "stateMutability": "view",
      "type": "function"
    },
    {
      "inputs": [],
      "name": "owner",
      "outputs": [
        {
          "internalType": "address",
          "name": "",
          "type": "address"
        }
      ],
      "stateMutability": "view",
      "type": "function"
    },
    {
      "inputs": [],
      "name": "renounceOwnership",
      "outputs": [],
      "stateMutability": "nonpayable",
      "type": "function"
    },
    {
      "inputs": [
        {
          "internalType": "address",
          "name": "newOwner",
          "type": "address"
        }
      ],
      "name": "transferOwnership",
      "outputs": [],
      "stateMutability": "nonpayable",
      "type": "function"
    },
    {
      "inputs": [],
      "name": "invest",
      "outputs": [],
      "stateMutability": "payable",
      "type": "function"
    },
    {
      "inputs": [],
      "name": "repay",
      "outputs": [],
      "stateMutability": "payable",
      "type": "function"
    },
    {
      "inputs": [],
      "name": "withdraw",
      "outputs": [],
      "stateMutability": "nonpayable",
      "type": "function"
    },
    {
      "inputs": [],
      "name": "requestInterest",
      "outputs": [],
      "stateMutability": "nonpayable",
      "type": "function"
    },
    {
      "inputs": [],
      "name": "revokeVote",
      "outputs": [],
      "stateMutability": "nonpayable",
      "type": "function"
    },
    {
      "inputs": [],
      "name": "refund",
      "outputs": [],
      "stateMutability": "nonpayable",
      "type": "function"
    },
    {
      "inputs": [
        {
          "internalType": "enum Credit.CreditState",
          "name": "_state",
          "type": "uint8"
        }
      ],
      "name": "changeState",
      "outputs": [],
      "stateMutability": "nonpayable",
      "type": "function"
    },
    {
      "inputs": [],
      "name": "toggleActive",
      "outputs": [
        {
          "internalType": "bool",
          "name": "",
          "type": "bool"
        }
      ],
      "stateMutability": "nonpayable",
      "type": "function"
    },
    {
      "inputs": [],
      "name": "getCreditInfo",
      "outputs": [
        {
          "internalType": "address",
          "name": "",
          "type": "address"
        },
        {
          "internalType": "string",
          "name": "",
          "type": "string"
        },
        {
          "internalType": "uint256",
          "name": "",
          "type": "uint256"
        },
        {
          "internalType": "uint256",
          "name": "",
          "type": "uint256"
        },
        {
          "internalType": "uint256",
          "name": "",
          "type": "uint256"
        },
        {
          "internalType": "uint256",
          "name": "",
          "type": "uint256"
        },
        {
          "internalType": "uint256",
          "name": "",
          "type": "uint256"
        },
        {
          "internalType": "uint256",
          "name": "",
          "type": "uint256"
        },
        {
          "internalType": "enum Credit.CreditState",
          "name": "",
          "type": "uint8"
        },
        {
          "internalType": "bool",
          "name": "",
          "type": "bool"
        },
        {
          "internalType": "uint256",
          "name": "",
          "type": "uint256"
        }
      ],
      "stateMutability": "view",
      "type": "function"
    },
    {
      "inputs": [],
      "name": "getBalance",
      "outputs": [
        {
          "internalType": "uint256",
          "name": "",
          "type": "uint256"
        }
      ],
      "stateMutability": "view",
      "type": "function"
    },
    {
      "inputs": [],
      "name": "getLenders",
      "outputs": [
        {
          "internalType": "address[]",
          "name": "",
          "type": "address[]"
        }
      ],
      "stateMutability": "view",
      "type": "function"
    }
  ],
  "bytecode": "0x60806040526200001142600162000529565b600855600a805460ff191660011790553480156200002e57600080fd5b5060405162001bf638038062001bf6833981016040819052620000519162000418565b6200005c33620002e2565b600480546001600160a01b0319166001600160a01b03831617905560408051661a5b9d1c995cdd60ca1b815260026007820181905282519182900360270182208690556e1c995c5d595cdd1959105b5bdd5b9d608a1b8252600f8201819052825191829003602f0182208890557f72657175657374656452657061796d656e74730000000000000000000000000082526013808301829052835192839003603390810184208990557f72656d61696e696e6752657061796d656e747300000000000000000000000000845290830191909152915190819003909101902084905562000154858462000332602090811b6200124517901c565b6040516b1c995d1d5c9b905b5bdd5b9d60a21b8152600290600c01908152602001604051809103902081905550620001cb846002604051620001a8906b1c995d1d5c9b905b5bdd5b9d60a21b8152600c0190565b9081526020016040518091039020546200034760201b620012581790919060201c565b604080517f72657061796d656e74496e7374616c6c6d656e7400000000000000000000000081526002601482015290519081900360340190205581516200021a90600990602085019062000355565b5042600655600380546001600160a01b0319163317905560405160009060019062000257906b1b195b99195c9cd0dbdd5b9d60a21b8152600c0190565b908152604051908190036020018120919091556a7265766f6b65566f74657360a81b8152600090600190600b01908152604051602091819003919091018120919091556000805460ff60a01b1916815542916001600160a01b038416917fd6b0a532be6a7986b9de41fbbf991ac71079eb4c48f5f46913a7e16f194ddb6e91a35050505050620005c6565b600080546001600160a01b038381166001600160a01b0319831681178455604051919092169283917f8be0079c531659141344cd1fd0a4f28419497f9722a3daafe3b4186f6b6457e09190a35050565b600062000340828462000529565b9392505050565b600062000340828462000550565b828054620003639062000573565b90600052602060002090601f016020900481019282620003875760008555620003d2565b82601f10620003a257805160ff1916838001178555620003d2565b82800160010185558215620003d2579182015b82811115620003d2578251825591602001919060010190620003b5565b50620003e0929150620003e4565b5090565b5b80821115620003e05760008155600101620003e5565b80516001600160a01b03811681146200041357600080fd5b919050565b600080600080600060a086880312156200043157600080fd5b8551602080880151604089015160608a01519398509096509450906001600160401b03808211156200046257600080fd5b818901915089601f8301126200047757600080fd5b8151818111156200048c576200048c620005b0565b604051601f8201601f19908116603f01168101908382118183101715620004b757620004b7620005b0565b816040528281528c86848701011115620004d057600080fd5b600093505b82841015620004f45784840186015181850187015292850192620004d5565b82841115620005065760008684830101525b8097505050505050506200051d60808701620003fb565b90509295509295909350565b600082198211156200054b57634e487b7160e01b600052601160045260246000fd5b500190565b6000826200056e57634e487b7160e01b600052601260045260246000fd5b500490565b600181811c908216806200058857607f821691505b60208210811415620005aa57634e487b7160e01b600052602260045260246000fd5b50919050565b634e487b7160e01b600052604160045260246000fd5b61162080620005d66000396000f3fe6080604052600436106100f35760003560e01c80636e021df71161008a578063e8b5e51f11610059578063e8b5e51f14610263578063efd475ab1461026b578063f06817cf14610280578063f2fde38b146102ac57600080fd5b80636e021df7146101d6578063715018a61461020e57806382926875146102235780638da5cb5b1461024557600080fd5b80633ccfd60b116100c65780633ccfd60b1461018f578063402d8883146101a457806343c14b22146101ac578063590e1ae3146101c157600080fd5b806312065fe0146100f8578063268f11531461011857806328fd10d71461013a57806329c68dc11461017a575b600080fd5b34801561010457600080fd5b506040514781526020015b60405180910390f35b34801561012457600080fd5b50610138610133366004611334565b6102cc565b005b34801561014657600080fd5b5061016a61015536600461130b565b600c6020526000908152604090205460ff1681565b604051901515815260200161010f565b34801561018657600080fd5b5061016a610363565b34801561019b57600080fd5b506101386103de565b610138610539565b3480156101b857600080fd5b506101386107e5565b3480156101cd57600080fd5b50610138610928565b3480156101e257600080fd5b506101f66101f1366004611355565b610a57565b6040516001600160a01b03909116815260200161010f565b34801561021a57600080fd5b50610138610a81565b34801561022f57600080fd5b50610238610ab7565b60405161010f9190611448565b34801561025157600080fd5b506000546001600160a01b03166101f6565b610138610b44565b34801561027757600080fd5b50610138610dc6565b34801561028c57600080fd5b50610295610fa7565b60405161010f9b9a99989796959493929190611390565b3480156102b857600080fd5b506101386102c736600461130b565b6111ad565b6000546001600160a01b031633146102ff5760405162461bcd60e51b81526004016102f690611495565b60405180910390fd5b6000805482919060ff60a01b1916600160a01b836005811115610324576103246115b4565b02179055506000544290600160a01b900460ff166005811115610349576103496115b4565b6040516000805160206115cb83398151915290600090a350565b600080546001600160a01b0316331461038e5760405162461bcd60e51b81526004016102f690611495565b600a805460ff19811660ff9182161590811790925560405142929091161515907f8fcb8b9c907c3d63d35e1f35de0ecdc8618c3b3d752a1fd7ea77292f7789124690600090a350600a5460ff1690565b600a5460ff1615156001146103f257600080fd5b6004546001600160a01b0316331461040957600080fd5b6040516e1c995c5d595cdd1959105b5bdd5b9d608a1b8152600290600f0190815260200160405180910390205447101561044257600080fd5b6005600054600160a01b900460ff166005811115610462576104626115b4565b141561046d57600080fd5b6000805460ff60a01b1916600160a01b9081179182905542910460ff16600581111561049b5761049b6115b4565b6040516000805160206115cb83398151915290600090a36040514290479033907f7dc4c37201ed56b6c6e0a05290eb94e64040786a508fff228cf7f79423b643c590600090a4604051600090339047908381818185875af1925050503d8060008114610523576040519150601f19603f3d011682016040523d82523d6000602084013e610528565b606091505b505090508061053657600080fd5b50565b6004546001600160a01b0316331461055057600080fd5b6001600054600160a01b900460ff166005811115610570576105706115b4565b1461057a57600080fd5b600060026040516105a4907272656d61696e696e6752657061796d656e747360681b815260130190565b908152602001604051809103902054116105bd57600080fd5b604051731c995c185e5b595b9d125b9cdd185b1b1b595b9d60621b81526002906014019081526020016040518091039020543410156105fb57600080fd5b6040517272656d61696e696e6752657061796d656e747360681b8152600290601301908152604051908190036020019020805490600061063a8361151b565b909155505042600755604051731c995c185e5b595b9d125b9cdd185b1b1b595b9d60621b815260009060029060140190815260200160405180910390205434111561071c576106c260026040516106ab90731c995c185e5b595b9d125b9cdd185b1b1b595b9d60621b815260140190565b908152604051908190036020019020543490611264565b604051909150600090339083908381818185875af1925050503d8060008114610707576040519150601f19603f3d011682016040523d82523d6000602084013e61070c565b606091505b505090508061071a57600080fd5b505b426107273483611264565b60405133907f3fb95d44e159e2cf279d6cb5fd3d694601f47aa11311cf0db500354af34518a790600090a461076861075f3483611264565b60055490611245565b6005556040516b1c995d1d5c9b905b5bdd5b9d60a21b8152600290600c01908152602001604051809103902054600554141561053657604051429033907f88c3c6dc70a5cff89078a4ab563dafce790b6f69d88c77fd2bbe7a4d53f12b7090600090a3600080546002919060ff60a01b1916600160a01b83610324565b600a5460ff1615156001146107f957600080fd5b60085442101561080857600080fd5b60008054600160a01b900460ff166005811115610827576108276115b4565b1461083157600080fd5b336000908152600c602052604090205460ff16151560011461085257600080fd5b336000908152600b602052604090205460ff161561086f57600080fd5b60006001604051610891906a7265766f6b65566f74657360a81b8152600b0190565b908152604051908190036020018120546b1b195b99195c9cd0dbdd5b9d60a21b82529150600090600190600c01908152602001604051809103902054905081806108da9061156d565b336000818152600b60205260405192955042935090917fe34f4c35680db62badf230c91431ddb53698ee30e6291e7ba2c29e87083fa5319190a38181141561092457610924611270565b5050565b600a5460ff16151560011461093c57600080fd5b336000908152600c602052604090205460ff16151560011461095d57600080fd5b6004600054600160a01b900460ff16600581111561097d5761097d6115b4565b1461098757600080fd5b336000908152600d6020526040902054478111156109a457600080fd5b604051339082156108fc029083906000818181858888f193505050501580156109d1573d6000803e3d6000fd5b506040514290829033907fe7afe2021ef5a8fe5e543b38f37e6a7799d26907b92fb1e3d24dd7a06e74ff6790600090a44761053657600a805460ff1916905560405142906000907f8fcb8b9c907c3d63d35e1f35de0ecdc8618c3b3d752a1fd7ea77292f77891246908290a3600080546003919060ff60a01b1916600160a01b83610324565b600e8181548110610a6757600080fd5b6000918252602090912001546001600160a01b0316905081565b6000546001600160a01b03163314610aab5760405162461bcd60e51b81526004016102f690611495565b610ab560006112bb565b565b6000546060906001600160a01b03163314610ae45760405162461bcd60e51b81526004016102f690611495565b600e805480602002602001604051908101604052809291908181526020018280548015610b3a57602002820191906000526020600020905b81546001600160a01b03168152600190910190602001808311610b1c575b5050505050905090565b60008054600160a01b900460ff166005811115610b6357610b636115b4565b14610b6d57600080fd5b60006001604051610b90906b1b195b99195c9cd0dbdd5b9d60a21b8152600c0190565b908152604051908190036020018120546e1c995c5d595cdd1959105b5bdd5b9d608a1b82529150600090600290600f019081526020016040518091039020544710610ce757610c136002604051610bfc906e1c995c5d595cdd1959105b5bdd5b9d608a1b8152600f0190565b908152604051908190036020019020544790611264565b90508015610ca157604051600090339083908381818185875af1925050503d8060008114610c5d576040519150601f19603f3d011682016040523d82523d6000602084013e610c62565b606091505b5050905080610c7057600080fd5b6040514290839033907f2e2503bd032926fd7c2f6f2e1779b83841a24ab4d41accf43c89793c26f4cf6d90600090a4505b6000805460ff60a01b1916600160a01b9081179182905542910460ff166005811115610ccf57610ccf6115b4565b6040516000805160206115cb83398151915290600090a35b336000818152600c60205260408120805460ff19166001908117909155600e805491820181559091527fbb7b4a454dc3493923482f07822329ed19e8244eff582cc204f8554c3620c3fd0180546001600160a01b031916909117905581610d4d8161156d565b9250610d749050610d5e3483611264565b336000908152600d602052604090205490611245565b336000908152600d602052604090205542610d8f3483611264565b6040513381527f90ba96906dd7ba676e83e5be593cbf08e08ae7af573a546478e7e61526fb68fa9060200160405180910390a35050565b600a5460ff161515600114610dda57600080fd5b336000908152600c602052604090205460ff161515600114610dfb57600080fd5b6002600054600160a01b900460ff166005811115610e1b57610e1b6115b4565b14610e2557600080fd5b336000908152600d6020526040902054610e3e57600080fd5b60006001604051610e61906b1b195b99195c9cd0dbdd5b9d60a21b8152600c0190565b90815260200160405180910390205490506000816002604051610e96906b1c995d1d5c9b905b5bdd5b9d60a21b8152600c0190565b908152602001604051809103902054610eaf91906114e2565b905080471015610ec157610ec1611588565b604051339082156108fc029083906000818181858888f19350505050158015610eee573d6000803e3d6000fd5b506040514290829033907f87a3bdf95d74f9ddbb5e43fa19605b0f0610ff18829384e905031dc75d85a3b290600090a44761092457600a805460ff1916905560405142906000907f8fcb8b9c907c3d63d35e1f35de0ecdc8618c3b3d752a1fd7ea77292f77891246908290a36000805460ff60a01b1916600360a01b17908190554290600160a01b900460ff166005811115610f8c57610f8c6115b4565b6040516000805160206115cb83398151915290600090a35050565b600060606000806000806000806000806000600460009054906101000a90046001600160a01b031660096002604051610ff5906e1c995c5d595cdd1959105b5bdd5b9d608a1b8152600f0190565b908152604051908190036020018120547272657175657374656452657061796d656e747360681b82529060029060130190815260405190819003602001812054731c995c185e5b595b9d125b9cdd185b1b1b595b9d60621b825290600290601401908152604051908190036020018120547272656d61696e696e6752657061796d656e747360681b82529060029060130190815260405190819003602001812054661a5b9d1c995cdd60ca1b825290600290600701908152604051908190036020018120546b1c995d1d5c9b905b5bdd5b9d60a21b825290600290600c0190815260405190819003602001902054600054600a54885460ff600160a01b909304831692919091169047908a9061110a90611532565b80601f016020809104026020016040519081016040528092919081815260200182805461113690611532565b80156111835780601f1061115857610100808354040283529160200191611183565b820191906000526020600020905b81548152906001019060200180831161116657829003601f168201915b505050505099509a509a509a509a509a509a509a509a509a509a509a50909192939495969798999a565b6000546001600160a01b031633146111d75760405162461bcd60e51b81526004016102f690611495565b6001600160a01b03811661123c5760405162461bcd60e51b815260206004820152602660248201527f4f776e61626c653a206e6577206f776e657220697320746865207a65726f206160448201526564647265737360d01b60648201526084016102f6565b610536816112bb565b600061125182846114ca565b9392505050565b600061125182846114e2565b60006112518284611504565b6000805460ff60a01b1916600160a21b17908190554290600160a01b900460ff1660058111156112a2576112a26115b4565b6040516000805160206115cb83398151915290600090a3565b600080546001600160a01b038381166001600160a01b0319831681178455604051919092169283917f8be0079c531659141344cd1fd0a4f28419497f9722a3daafe3b4186f6b6457e09190a35050565b60006020828403121561131d57600080fd5b81356001600160a01b038116811461125157600080fd5b60006020828403121561134657600080fd5b81356006811061125157600080fd5b60006020828403121561136757600080fd5b5035919050565b6006811061138c57634e487b7160e01b600052602160045260246000fd5b9052565b6001600160a01b038c168152610160602082018190528b5190820181905260009081905b808210156113d6576020828f01015161018083860101526020820191506113b4565b808211156113e957600061018082860101525b610180601f19601f830116850101925050508a60408301528960608301528860808301528760a08301528660c08301528560e083015261142d61010083018661136e565b92151561012082015261014001529998505050505050505050565b6020808252825182820181905260009190848201906040850190845b818110156114895783516001600160a01b031683529284019291840191600101611464565b50909695505050505050565b6020808252818101527f4f776e61626c653a2063616c6c6572206973206e6f7420746865206f776e6572604082015260600190565b600082198211156114dd576114dd61159e565b500190565b6000826114ff57634e487b7160e01b600052601260045260246000fd5b500490565b6000828210156115165761151661159e565b500390565b60008161152a5761152a61159e565b506000190190565b600181811c9082168061154657607f821691505b6020821081141561156757634e487b7160e01b600052602260045260246000fd5b50919050565b60006000198214156115815761158161159e565b5060010190565b634e487b7160e01b600052600160045260246000fd5b634e487b7160e01b600052601160045260246000fd5b634e487b7160e01b600052602160045260246000fdfea1f57b4d2e1dbc2fb780a8bf1d654bff435e9ae4d78f0090aa1424de456e1aa2a2646970667358221220d954cea4846e61606ae48f0e0d54c145fafcbf8d672b667361172875584b68b764736f6c63430008070033",
  "immutableReferences": {},
  "source": "pragma solidity 0.8.7;\r\npragma experimental ABIEncoderV2;\r\n\r\nimport \"@openzeppelin/contracts/utils/math/SafeMath.sol\";\r\nimport \"@openzeppelin/contracts/access/Ownable.sol\";\r\n\r\n\r\ncontract Credit is Ownable{\r\n    \r\n    using SafeMath for uint;\r\n\r\n    event CreditCreated(address indexed borrower, uint indexed time);\r\n    event ChangeReturned(address indexed lender, uint indexed extraFund, uint indexed time);\r\n    event CreditStateChanged(CreditState indexed state, uint indexed time);\r\n    event LenderInvestment(address lender, uint indexed investment, uint indexed time);\r\n    event BorrowerRepaymentInstallment(address indexed borrower, uint indexed installment, uint indexed time);\r\n    event BorrowerRepaymentFinished(address indexed borrower, uint indexed time);\r\n    event BorrowerWithdrawal(address indexed borrower, uint indexed amount, uint indexed time);\r\n    event CreditStateActiveChanged(bool indexed active, uint indexed time);\r\n    event LenderWithdrawal(address indexed borrower, uint indexed lenderReturnAmount, uint indexed time);\r\n    event LenderRefunded(address indexed lender, uint indexed lendersInvestedAmount, uint indexed time);\r\n    event LenderVoteForRevoking(address indexed lender, uint indexed time);\r\n    event BorrowerIsFraud(address indexed borrower, uint indexed time);\r\n    event LenderVoteForFraud(address indexed lender, uint indexed time);\r\n\r\n\r\n /** Stages that every credit contract gets trough.\r\n      *   INVESTMENT - During this state only investments are allowed.\r\n      *   REPAYMENT - During this stage only repayments are allowed.\r\n      *   INTREST_RETURNS - This stage gives investors opportunity to request their returns.\r\n      *   EXPIRED - This is the stage when the contract is finished its purpose.\r\n      *   FRAUD - The borrower was marked as fraud.\r\n    */\r\n    enum CreditState { \r\n        INVESTMENT, \r\n        REPAYMENT, \r\n        INTREST_RETURNS, \r\n        EXPIRED, \r\n        REVOCKED, \r\n        FRAUD \r\n    }\r\n\r\n    CreditState state;\r\n\r\n    mapping (string => uint) countMap;\r\n    mapping (string => uint) uintMap;\r\n\r\n    address creditFactory;\r\n    address borrower;\r\n    uint repaidAmount;\r\n    uint requestedDate;\r\n    uint lastRepaymentDate;\r\n    uint revokeTimeNeeded = block.timestamp + 1 seconds;\r\n\r\n    \r\n    string description;\r\n    bool active = true;\r\n  \r\n\r\n    mapping(address => bool) revokeVoters;\r\n    \r\n    mapping(address => bool) public lenders;\r\n\r\n    mapping(address => uint) lendersInvestedAmount;\r\n\r\n    address[] public lendersLog;\r\n\r\n    modifier isActive() {\r\n        require(active == true);\r\n        _;\r\n    }\r\n\r\n    modifier onlyBorrower() {\r\n        require(msg.sender == borrower);\r\n        _;\r\n    }\r\n\r\n    modifier onlyLender() {\r\n        require(lenders[msg.sender] == true);\r\n        _;\r\n    }\r\n\r\n    modifier canAskForInterest() {\r\n        require(state == CreditState.INTREST_RETURNS);\r\n        require(lendersInvestedAmount[msg.sender] > 0);\r\n        _;\r\n    }\r\n\r\n    modifier canInvest() {\r\n        require(state == CreditState.INVESTMENT);\r\n        _;\r\n    }\r\n\r\n    modifier canRepay() {\r\n        require(state == CreditState.REPAYMENT);\r\n        _;\r\n    }\r\n\r\n    modifier canWithdraw() {\r\n        require(address(this).balance >= uintMap[\"requestedAmount\"]);\r\n        _;\r\n    }\r\n\r\n    modifier isNotFraud() {\r\n        require(state != CreditState.FRAUD);\r\n        _;\r\n    }\r\n\r\n    modifier isRevokable() {\r\n        require(block.timestamp >= revokeTimeNeeded);\r\n        require(state == CreditState.INVESTMENT);\r\n        _;\r\n    }\r\n\r\n    modifier isRevoked() {\r\n        require(state == CreditState.REVOCKED);\r\n        _;\r\n    }\r\n\r\n    constructor (uint _requestedAmount, uint _requestedRepayments, uint _interest, string memory _description, address _borrower) {\r\n        \r\n        borrower = _borrower; \r\n        uintMap[\"intrest\"] = _interest;\r\n        uintMap[\"requestedAmount\"] = _requestedAmount;\r\n        uintMap[\"requestedRepayments\"] = _requestedRepayments;\r\n        uintMap[\"remainingRepayments\"] = _requestedRepayments;\r\n        uintMap[\"returnAmount\"]  = _requestedAmount.add(_interest);\r\n        uintMap[\"repaymentInstallment\"] = uintMap[\"returnAmount\"].div(_requestedRepayments);\r\n        description = _description;\r\n        requestedDate = block.timestamp;\r\n        creditFactory = msg.sender;\r\n        countMap[\"lendersCount\"] = 0;\r\n        countMap[\"revokeVotes\"] = 0;\r\n        state = CreditState.INVESTMENT;\r\n        emit CreditCreated(_borrower, block.timestamp);\r\n    }\r\n\r\n    function invest() public payable canInvest {\r\n        uint lendersCount = countMap[\"lendersCount\"];\r\n        uint extraFund = 0;\r\n\r\n        if (address(this).balance >= uintMap[\"requestedAmount\"]) {\r\n            extraFund = address(this).balance.sub(uintMap[\"requestedAmount\"]);\r\n            if (extraFund > 0) {\r\n\r\n                (bool pc, ) = payable(msg.sender).call{value: extraFund}(\"\");\r\n                require(pc);\r\n             \r\n                emit ChangeReturned(msg.sender, extraFund, block.timestamp);\r\n            \r\n            }\r\n\r\n            state = CreditState.REPAYMENT;\r\n            \r\n            emit CreditStateChanged(state, block.timestamp);\r\n        }\r\n\r\n        \r\n        lenders[msg.sender] = true;\r\n        lendersLog.push(msg.sender);\r\n        lendersCount++;\r\n        lendersInvestedAmount[msg.sender] = lendersInvestedAmount[msg.sender].add(msg.value.sub(extraFund));\r\n\r\n        emit LenderInvestment(msg.sender, msg.value.sub(extraFund), block.timestamp);\r\n    }\r\n\r\n    function repay() public onlyBorrower canRepay payable {\r\n        require(uintMap[\"remainingRepayments\"] > 0);\r\n        require(msg.value >= uintMap[\"repaymentInstallment\"]);\r\n\r\n        uintMap[\"remainingRepayments\"]--;\r\n        lastRepaymentDate = block.timestamp;\r\n\r\n        uint extraFund = 0;\r\n        if (msg.value > uintMap[\"repaymentInstallment\"]) {\r\n            extraFund = msg.value.sub(uintMap[\"repaymentInstallment\"]);\r\n            \r\n            (bool os, ) = payable(msg.sender).call{value: extraFund}(\"\");\r\n            require(os);\r\n        }\r\n\r\n        emit BorrowerRepaymentInstallment(msg.sender, msg.value.sub(extraFund), block.timestamp);\r\n\r\n        repaidAmount = repaidAmount.add(msg.value.sub(extraFund));\r\n        if (repaidAmount == uintMap[\"returnAmount\"]) {\r\n            emit BorrowerRepaymentFinished(msg.sender, block.timestamp);\r\n            state = CreditState.INTREST_RETURNS;\r\n\r\n            emit CreditStateChanged(state, block.timestamp);\r\n        }\r\n    }\r\n\r\n    function withdraw() public isActive onlyBorrower canWithdraw isNotFraud {\r\n\r\n        state = CreditState.REPAYMENT;\r\n        emit CreditStateChanged(state, block.timestamp);\r\n        emit BorrowerWithdrawal(msg.sender, address(this).balance, block.timestamp);\r\n        (bool os, ) = payable(msg.sender).call{value: address(this).balance}(\"\");\r\n        require(os);\r\n    }\r\n\r\n    /** @dev Request interest function.\r\n      * It can only be executed while contract is in active state.\r\n      * It is only accessible to lenders.\r\n      * It is only accessible if lender funded 1 or more wei.\r\n      * It can only be executed once.\r\n      * Transfers the lended amount + interest to the lender.\r\n      */\r\n    function requestInterest() public isActive onlyLender canAskForInterest {\r\n        \r\n        uint newlendersCount = countMap[\"lendersCount\"];\r\n        \r\n        uint lenderReturnAmount = uintMap[\"returnAmount\"] / newlendersCount;\r\n        assert(address(this).balance >= lenderReturnAmount);\r\n        payable(msg.sender).transfer(lenderReturnAmount);\r\n       \r\n        emit LenderWithdrawal(msg.sender, lenderReturnAmount, block.timestamp);\r\n\r\n        if (address(this).balance == 0) {\r\n\r\n            \r\n            active = false;\r\n            emit CreditStateActiveChanged(active, block.timestamp);\r\n            state = CreditState.EXPIRED;\r\n\r\n            emit CreditStateChanged(state, block.timestamp);\r\n        }\r\n    }\r\n\r\n\r\n    function revokeVote() public isActive isRevokable onlyLender {\r\n        require(revokeVoters[msg.sender] == false);\r\n        uint voteCounts = countMap[\"revokeVotes\"];\r\n        uint lendersCount = countMap[\"lendersCount\"];\r\n        voteCounts++;\r\n        revokeVoters[msg.sender] == true;\r\n\r\n        emit LenderVoteForRevoking(msg.sender, block.timestamp);\r\n\r\n        if (lendersCount == voteCounts) {\r\n            revoke();\r\n        }\r\n    }\r\n\r\n    \r\n    function revoke() internal {\r\n        state = CreditState.REVOCKED;\r\n        emit CreditStateChanged(state, block.timestamp);\r\n\r\n    }\r\n\r\n    /** @dev Function for refunding people. */\r\n    function refund() public isActive onlyLender isRevoked {\r\n\r\n        uint investedAmount = lendersInvestedAmount[msg.sender];\r\n        \r\n        require(address(this).balance >= investedAmount);\r\n        payable(msg.sender).transfer(investedAmount);\r\n        emit LenderRefunded(msg.sender, investedAmount, block.timestamp);\r\n        \r\n        if (address(this).balance == 0) {\r\n            active = false;\r\n            emit CreditStateActiveChanged(active, block.timestamp);\r\n            state = CreditState.EXPIRED;\r\n            emit CreditStateChanged(state, block.timestamp);\r\n        }\r\n    }\r\n\r\n    function changeState(CreditState _state) external onlyOwner {\r\n        state = _state;\r\n        emit CreditStateChanged(state, block.timestamp);\r\n    }\r\n\r\n    \r\n    function toggleActive() external onlyOwner returns (bool) {\r\n        active = !active;\r\n        emit CreditStateActiveChanged(active, block.timestamp);\r\n        return active;\r\n    }\r\n\r\n    function getCreditInfo() public view returns (address, string memory, uint, uint, uint, uint, uint, uint, CreditState, bool, uint) {\r\n       \r\n        return \r\n            (borrower, \r\n            description, \r\n            uintMap[\"requestedAmount\"], \r\n            uintMap[\"requestedRepayments\"], \r\n            uintMap[\"repaymentInstallment\"], \r\n            uintMap[\"remainingRepayments\"], \r\n            uintMap[\"intrest\"], \r\n            uintMap[\"returnAmount\"], \r\n            state, \r\n            active,\r\n            address(this).balance\r\n        );\r\n    }\r\n\r\n    function getBalance() public view returns (uint) {\r\n        return address(this).balance;\r\n    }\r\n\r\n    function getLenders() external view onlyOwner returns(address[] memory){\r\n        return lendersLog;\r\n    }\r\n\r\n\r\n}",
  "sourcePath": "C:\\Users\\USER\\Desktop\\Projects\\Credit_and_staking\\contracts\\Credit.sol",
  "compiler": {
    "name": "solc",
    "version": "0.8.7+commit.e28d00a7.Emscripten.clang"
  },
  "schemaVersion": "3.4.6",
  "updatedAt": "2022-04-21T14:44:04.088Z",
  "devdoc": {
    "kind": "dev",
    "methods": {
      "owner()": {
        "details": "Returns the address of the current owner."
      },
      "refund()": {
        "details": "Function for refunding people. "
      },
      "renounceOwnership()": {
        "details": "Leaves the contract without owner. It will not be possible to call `onlyOwner` functions anymore. Can only be called by the current owner. NOTE: Renouncing ownership will leave the contract without an owner, thereby removing any functionality that is only available to the owner."
      },
      "requestInterest()": {
        "details": "Request interest function. It can only be executed while contract is in active state. It is only accessible to lenders. It is only accessible if lender funded 1 or more wei. It can only be executed once. Transfers the lended amount + interest to the lender."
      },
      "transferOwnership(address)": {
        "details": "Transfers ownership of the contract to a new account (`newOwner`). Can only be called by the current owner."
      }
    },
    "version": 1
  },
  "userdoc": {
    "kind": "user",
    "methods": {},
    "version": 1
  }
}