{
  "contractName": "P2PLending",
  "abi": [
    {
      "anonymous": false,
      "inputs": [
        {
          "indexed": true,
          "internalType": "contract Credit",
          "name": "_address",
          "type": "address"
        },
        {
          "indexed": true,
          "internalType": "bool",
          "name": "active",
          "type": "bool"
        },
        {
          "indexed": true,
          "internalType": "uint256",
          "name": "timestamp",
          "type": "uint256"
        }
      ],
      "name": "CreditActiveChanged",
      "type": "event"
    },
    {
      "anonymous": false,
      "inputs": [
        {
          "indexed": true,
          "internalType": "contract Credit",
          "name": "_address",
          "type": "address"
        },
        {
          "indexed": true,
          "internalType": "address",
          "name": "_borrower",
          "type": "address"
        },
        {
          "indexed": true,
          "internalType": "uint256",
          "name": "timestamp",
          "type": "uint256"
        }
      ],
      "name": "CreditCreated",
      "type": "event"
    },
    {
      "anonymous": false,
      "inputs": [
        {
          "indexed": true,
          "internalType": "address",
          "name": "previousOwner",
          "type": "address"
        },
        {
          "indexed": true,
          "internalType": "address",
          "name": "newOwner",
          "type": "address"
        }
      ],
      "name": "OwnershipTransferred",
      "type": "event"
    },
    {
      "anonymous": false,
      "inputs": [
        {
          "indexed": true,
          "internalType": "address",
          "name": "_address",
          "type": "address"
        },
        {
          "indexed": false,
          "internalType": "bool",
          "name": "fraudStatus",
          "type": "bool"
        },
        {
          "indexed": false,
          "internalType": "uint256",
          "name": "timestamp",
          "type": "uint256"
        }
      ],
      "name": "UserSetFraud",
      "type": "event"
    },
    {
      "inputs": [
        {
          "internalType": "uint256",
          "name": "",
          "type": "uint256"
        }
      ],
      "name": "creditlog",
      "outputs": [
        {
          "internalType": "uint256",
          "name": "requestedAmount",
          "type": "uint256"
        },
        {
          "internalType": "uint256",
          "name": "requestedRepayments",
          "type": "uint256"
        },
        {
          "internalType": "uint256",
          "name": "interest",
          "type": "uint256"
        },
        {
          "internalType": "string",
          "name": "description",
          "type": "string"
        },
        {
          "internalType": "address",
          "name": "borrower",
          "type": "address"
        },
        {
          "internalType": "uint256",
          "name": "fraudVoteCount",
          "type": "uint256"
        }
      ],
      "stateMutability": "view",
      "type": "function"
    },
    {
      "inputs": [
        {
          "internalType": "uint256",
          "name": "",
          "type": "uint256"
        }
      ],
      "name": "credits",
      "outputs": [
        {
          "internalType": "contract Credit",
          "name": "",
          "type": "address"
        }
      ],
      "stateMutability": "view",
      "type": "function"
    },
    {
      "inputs": [
        {
          "internalType": "contract Credit",
          "name": "",
          "type": "address"
        }
      ],
      "name": "creditsMap",
      "outputs": [
        {
          "internalType": "uint256",
          "name": "requestedAmount",
          "type": "uint256"
        },
        {
          "internalType": "uint256",
          "name": "requestedRepayments",
          "type": "uint256"
        },
        {
          "internalType": "uint256",
          "name": "interest",
          "type": "uint256"
        },
        {
          "internalType": "string",
          "name": "description",
          "type": "string"
        },
        {
          "internalType": "address",
          "name": "borrower",
          "type": "address"
        },
        {
          "internalType": "uint256",
          "name": "fraudVoteCount",
          "type": "uint256"
        }
      ],
      "stateMutability": "view",
      "type": "function"
    },
    {
      "inputs": [],
      "name": "owner",
      "outputs": [
        {
          "internalType": "address",
          "name": "",
          "type": "address"
        }
      ],
      "stateMutability": "view",
      "type": "function"
    },
    {
      "inputs": [],
      "name": "renounceOwnership",
      "outputs": [],
      "stateMutability": "nonpayable",
      "type": "function"
    },
    {
      "inputs": [
        {
          "internalType": "address",
          "name": "newOwner",
          "type": "address"
        }
      ],
      "name": "transferOwnership",
      "outputs": [],
      "stateMutability": "nonpayable",
      "type": "function"
    },
    {
      "inputs": [
        {
          "internalType": "address",
          "name": "",
          "type": "address"
        }
      ],
      "name": "users",
      "outputs": [
        {
          "internalType": "bool",
          "name": "credited",
          "type": "bool"
        },
        {
          "internalType": "contract Credit",
          "name": "activeCredit",
          "type": "address"
        },
        {
          "internalType": "bool",
          "name": "fraudStatus",
          "type": "bool"
        }
      ],
      "stateMutability": "view",
      "type": "function"
    },
    {
      "inputs": [
        {
          "internalType": "uint256",
          "name": "requestedAmount",
          "type": "uint256"
        },
        {
          "internalType": "uint256",
          "name": "repaymentsCount",
          "type": "uint256"
        },
        {
          "internalType": "uint256",
          "name": "interest",
          "type": "uint256"
        },
        {
          "internalType": "string",
          "name": "creditDescription",
          "type": "string"
        }
      ],
      "name": "applyForCredit",
      "outputs": [
        {
          "internalType": "contract Credit",
          "name": "_credit",
          "type": "address"
        }
      ],
      "stateMutability": "nonpayable",
      "type": "function"
    },
    {
      "inputs": [],
      "name": "getCredits",
      "outputs": [
        {
          "internalType": "contract Credit[]",
          "name": "",
          "type": "address[]"
        }
      ],
      "stateMutability": "view",
      "type": "function"
    },
    {
      "inputs": [],
      "name": "getUserCredits",
      "outputs": [
        {
          "internalType": "contract Credit[]",
          "name": "",
          "type": "address[]"
        }
      ],
      "stateMutability": "view",
      "type": "function"
    },
    {
      "inputs": [
        {
          "internalType": "address",
          "name": "_borrower",
          "type": "address"
        }
      ],
      "name": "setFraudStatus",
      "outputs": [
        {
          "internalType": "bool",
          "name": "",
          "type": "bool"
        }
      ],
      "stateMutability": "nonpayable",
      "type": "function"
    },
    {
      "inputs": [
        {
          "internalType": "address",
          "name": "_credit",
          "type": "address"
        }
      ],
      "name": "changeCreditState",
      "outputs": [],
      "stateMutability": "nonpayable",
      "type": "function"
    },
    {
      "inputs": [
        {
          "internalType": "contract Credit",
          "name": "_credit",
          "type": "address"
        }
      ],
      "name": "fraudVote",
      "outputs": [],
      "stateMutability": "nonpayable",
      "type": "function"
    }
  ],
  "bytecode": "0x608060405234801561001057600080fd5b5061001a3361001f565b61006f565b600080546001600160a01b038381166001600160a01b0319831681178455604051919092169283917f8be0079c531659141344cd1fd0a4f28419497f9722a3daafe3b4186f6b6457e09190a35050565b6127e98061007e6000396000f3fe60806040523480156200001157600080fd5b5060043610620000be5760003560e01c8063036a1c2214620000c35780632092cb3314620000f757806359658c481462000110578063715018a61462000129578063812aa8eb1462000133578063823a71af146200015e5780638da5cb5b1462000168578063a87430ba1462000172578063bb189ac214620001db578063bb9e424714620001f2578063d159e7e01462000248578063d2e397e7146200025f578063f2fde38b1462000276575b600080fd5b620000da620000d436600462000eb9565b6200028d565b6040516001600160a01b0390911681526020015b60405180910390f35b62000101620002b8565b604051620000ee919062000f64565b620001276200012136600462000d95565b62000328565b005b6200012762000424565b6200014a6200014436600462000d95565b62000466565b604051620000ee969594939291906200103f565b6200010162000537565b620000da62000599565b620001b36200018336600462000d95565b60036020526000908152604090205460ff808216916001600160a01b0361010082041691600160a81b9091041683565b6040805193151584526001600160a01b039092166020840152151590820152606001620000ee565b620000da620001ec36600462000ed3565b620005a8565b620002376200020336600462000d95565b6001600160a01b03166000908152600360205260409020805460ff60a81b1916600160a81b90811791829055900460ff1690565b6040519015158152602001620000ee565b6200014a6200025936600462000eb9565b62000967565b620001276200027036600462000d95565b620009af565b620001276200028736600462000d95565b62000bd6565b600481815481106200029e57600080fd5b6000918252602090912001546001600160a01b0316905081565b336000908152600360209081526040918290206001018054835181840281018401909452808452606093928301828280156200031e57602002820191906000526020600020905b81546001600160a01b03168152600190910190602001808311620002ff575b5050505050905090565b336200033362000599565b6001600160a01b031614620003655760405162461bcd60e51b81526004016200035c9062000fb3565b60405180910390fd5b60008190506000816001600160a01b03166329c68dc16040518163ffffffff1660e01b8152600401602060405180830381600087803b158015620003a857600080fd5b505af1158015620003bd573d6000803e3d6000fd5b505050506040513d601f19601f82011682018060405250810190620003e3919062000e95565b905042811515836001600160a01b03167f71ce7686e91fa8c354084a1684940b6da2d63559a5e4652d1baf5c2c2a9dcfca60405160405180910390a4505050565b336200042f62000599565b6001600160a01b031614620004585760405162461bcd60e51b81526004016200035c9062000fb3565b62000464600062000c7f565b565b6002602081905260009182526040909120805460018201549282015460038301805492949391926200049890620010cc565b80601f0160208091040260200160405190810160405280929190818152602001828054620004c690620010cc565b8015620005175780601f10620004eb5761010080835404028352916020019162000517565b820191906000526020600020905b815481529060010190602001808311620004f957829003601f168201915b50505050600483015460059093015491926001600160a01b031691905086565b606060048054806020026020016040519081016040528092919081815260200182805480156200031e576020028201919060005260206000209081546001600160a01b03168152600190910190602001808311620002ff575050505050905090565b6000546001600160a01b031690565b3360009081526003602052604081205460ff1615620005c657600080fd5b33600090815260036020526040902054600160a81b900460ff1615620005eb57600080fd5b33600081815260036020526040808220805460ff19166001179055519091889188918891889188916200061e9062000ccf565b6200062f9695949392919062000fe8565b604051809103906000f0801580156200064c573d6000803e3d6000fd5b509050600060026000836001600160a01b03166001600160a01b031681526020019081526020016000206040518060c0016040529081600082015481526020016001820154815260200160028201548152602001600382018054620006b190620010cc565b80601f0160208091040260200160405190810160405280929190818152602001828054620006df90620010cc565b8015620007305780601f10620007045761010080835404028352916020019162000730565b820191906000526020600020905b8154815290600101906020018083116200071257829003601f168201915b505050918352505060048201546001600160a01b0316602080830191909152600590920154604091820152805160c0810182528b81528083018b90528082018a90528151601f8901849004840281018401909252878252929350606083019188908890819084018382808284376000920182905250938552505033602080850191909152604093840183905260058054600181018255935284517f036b6384b5eca791c62761152d0c79bb0604c104a5fb6f4eb0703f3154bb3db06006909402938401908155858201517f036b6384b5eca791c62761152d0c79bb0604c104a5fb6f4eb0703f3154bb3db1850155938501517f036b6384b5eca791c62761152d0c79bb0604c104a5fb6f4eb0703f3154bb3db284015560608501518051959650869562000884947f036b6384b5eca791c62761152d0c79bb0604c104a5fb6f4eb0703f3154bb3db301935091019062000cdd565b506080820151600482810180546001600160a01b03199081166001600160a01b039485161790915560a0909401516005909301929092553360008181526003602090815260408083208054610100600160a81b031916610100968b16968702178155865460018181019098557f8a35acfbc15ff81a39ae7d344fd709f28e8600b4aa8c65c6b64bfe7fe36bd19b018054891687179055860180549687018155835290822090940180549095168317909455915142937fbb23603d6f3f6ddbe10dbe70633e287a232c78acbccb239b11271844b5be8d7991a4509695505050505050565b600581815481106200097857600080fd5b90600052602060002090600602016000915090508060000154908060010154908060020154908060030180546200049890620010cc565b60008190506000816001600160a01b031663829268756040518163ffffffff1660e01b815260040160006040518083038186803b158015620009f057600080fd5b505afa15801562000a05573d6000803e3d6000fd5b505050506040513d6000823e601f3d908101601f1916820160405262000a2f919081019062000dbc565b6001600160a01b038085166000908152600260205260408120600401549293509116905b825181101562000bcf5782818151811062000a725762000a7262001133565b60200260200101516001600160a01b0316336001600160a01b03161462000ad25760405162461bcd60e51b81526020600482015260136024820152722cb7ba9030b932b737ba1030903632b73232b960691b60448201526064016200035c565b3360009081526001602081815260408084206001600160a01b038a1685528252808420805460ff191690931790925560029052812060050180549162000b188362001109565b909155505082516001600160a01b038616600090815260026020526040902060050154141562000bba576001600160a01b03821660008181526003602052604090819020805460ff60a81b1916600160a81b9081179182905591517fe10f48804089cca7e3995c4d2eda1c3d12204999a90e2203893115592e9a65e49262000bb1920460ff169042909115158252602082015260400190565b60405180910390a25b8062000bc68162001109565b91505062000a53565b5050505050565b3362000be162000599565b6001600160a01b03161462000c0a5760405162461bcd60e51b81526004016200035c9062000fb3565b6001600160a01b03811662000c715760405162461bcd60e51b815260206004820152602660248201527f4f776e61626c653a206e6577206f776e657220697320746865207a65726f206160448201526564647265737360d01b60648201526084016200035c565b62000c7c8162000c7f565b50565b600080546001600160a01b038381166001600160a01b0319831681178455604051919092169283917f8be0079c531659141344cd1fd0a4f28419497f9722a3daafe3b4186f6b6457e09190a35050565b61163e806200117683390190565b82805462000ceb90620010cc565b90600052602060002090601f01602090048101928262000d0f576000855562000d5a565b82601f1062000d2a57805160ff191683800117855562000d5a565b8280016001018555821562000d5a579182015b8281111562000d5a57825182559160200191906001019062000d3d565b5062000d6892915062000d6c565b5090565b5b8082111562000d68576000815560010162000d6d565b805162000d90816200115f565b919050565b60006020828403121562000da857600080fd5b813562000db5816200115f565b9392505050565b6000602080838503121562000dd057600080fd5b82516001600160401b038082111562000de857600080fd5b818501915085601f83011262000dfd57600080fd5b81518181111562000e125762000e1262001149565b8060051b604051601f19603f8301168101818110858211171562000e3a5762000e3a62001149565b604052828152858101935084860182860187018a101562000e5a57600080fd5b600095505b8386101562000e885762000e738162000d83565b85526001959095019493860193860162000e5f565b5098975050505050505050565b60006020828403121562000ea857600080fd5b8151801515811462000db557600080fd5b60006020828403121562000ecc57600080fd5b5035919050565b60008060008060006080868803121562000eec57600080fd5b85359450602086013593506040860135925060608601356001600160401b038082111562000f1957600080fd5b818801915088601f83011262000f2e57600080fd5b81358181111562000f3e57600080fd5b89602082850101111562000f5157600080fd5b9699959850939650602001949392505050565b6020808252825182820181905260009190848201906040850190845b8181101562000fa75783516001600160a01b03168352928401929184019160010162000f80565b50909695505050505050565b6020808252818101527f4f776e61626c653a2063616c6c6572206973206e6f7420746865206f776e6572604082015260600190565b86815285602082015284604082015260a060608201528260a0820152828460c0830137600081840160c0908101919091526001600160a01b03929092166080820152601f909201601f191690910101949350505050565b86815260006020878184015286604084015260c0606084015285518060c085015260005b81811015620010815787810183015185820160e00152820162001063565b818111156200109457600060e083870101525b50601f01601f1916830160e0019150620010bb905060808301856001600160a01b03169052565b8260a0830152979650505050505050565b600181811c90821680620010e157607f821691505b602082108114156200110357634e487b7160e01b600052602260045260246000fd5b50919050565b60006000198214156200112c57634e487b7160e01b600052601160045260246000fd5b5060010190565b634e487b7160e01b600052603260045260246000fd5b634e487b7160e01b600052604160045260246000fd5b6001600160a01b038116811462000c7c57600080fdfe60806040526000600c819055600d556200001b42600162000392565b600e556010805460ff191660011790553480156200003857600080fd5b506040516200163e3803806200163e8339810160408190526200005b9162000281565b62000066336200014b565b600280546001600160a01b0319166001600160a01b0383161790556006839055600385905560078490556008849055620000ad85846200019b602090811b62000e2117901c565b600481905550620000d1600754600454620001b060201b62000e341790919060201c565b6009558151620000e990600f906020850190620001be565b5042600a819055600180546001600160a01b031916331790556000805460ff60a01b191681556040516001600160a01b038416917fd6b0a532be6a7986b9de41fbbf991ac71079eb4c48f5f46913a7e16f194ddb6e91a350505050506200042f565b600080546001600160a01b038381166001600160a01b0319831681178455604051919092169283917f8be0079c531659141344cd1fd0a4f28419497f9722a3daafe3b4186f6b6457e09190a35050565b6000620001a9828462000392565b9392505050565b6000620001a98284620003b9565b828054620001cc90620003dc565b90600052602060002090601f016020900481019282620001f057600085556200023b565b82601f106200020b57805160ff19168380011785556200023b565b828001600101855582156200023b579182015b828111156200023b5782518255916020019190600101906200021e565b50620002499291506200024d565b5090565b5b808211156200024957600081556001016200024e565b80516001600160a01b03811681146200027c57600080fd5b919050565b600080600080600060a086880312156200029a57600080fd5b8551602080880151604089015160608a01519398509096509450906001600160401b0380821115620002cb57600080fd5b818901915089601f830112620002e057600080fd5b815181811115620002f557620002f562000419565b604051601f8201601f19908116603f0116810190838211818310171562000320576200032062000419565b816040528281528c868487010111156200033957600080fd5b600093505b828410156200035d57848401860151818501870152928501926200033e565b828411156200036f5760008684830101525b809750505050505050620003866080870162000264565b90509295509295909350565b60008219821115620003b457634e487b7160e01b600052601160045260246000fd5b500190565b600082620003d757634e487b7160e01b600052601260045260246000fd5b500490565b600181811c90821680620003f157607f821691505b602082108114156200041357634e487b7160e01b600052602260045260246000fd5b50919050565b634e487b7160e01b600052604160045260246000fd5b6111ff806200043f6000396000f3fe6080604052600436106100c35760003560e01c806312065fe0146100c8578063268f1153146100e857806328fd10d71461010a57806329c68dc11461014a5780633ccfd60b1461015f578063402d88831461017457806343c14b221461017c578063590e1ae3146101915780636e021df7146101a6578063715018a6146101d357806382926875146101e85780638da5cb5b1461020a578063e8b5e51f1461021f578063efd475ab14610227578063f06817cf1461023c578063f2fde38b14610268575b600080fd5b3480156100d457600080fd5b506040514781526020015b60405180910390f35b3480156100f457600080fd5b50610108610103366004610edf565b610288565b005b34801561011657600080fd5b5061013a610125366004610eb6565b60126020526000908152604090205460ff1681565b60405190151581526020016100df565b34801561015657600080fd5b5061013a610324565b34801561016b57600080fd5b50610108610393565b6101086104a8565b34801561018857600080fd5b5061010861060e565b34801561019d57600080fd5b506101086106f7565b3480156101b257600080fd5b506101c66101c1366004610f00565b610862565b6040516100df9190610f3b565b3480156101df57600080fd5b5061010861088c565b3480156101f457600080fd5b506101fd6108c5565b6040516100df9190611007565b34801561021657600080fd5b506101c6610956565b610108610965565b34801561023357600080fd5b50610108610b3b565b34801561024857600080fd5b50610251610c78565b6040516100df9b9a99989796959493929190610f4f565b34801561027457600080fd5b50610108610283366004610eb6565b610d84565b33610291610956565b6001600160a01b0316146102c05760405162461bcd60e51b81526004016102b790611054565b60405180910390fd5b6000805482919060ff60a01b1916600160a01b8360058111156102e5576102e5611173565b02179055506000544290600160a01b900460ff16600581111561030a5761030a611173565b60405160008051602061118a83398151915290600090a350565b60003361032f610956565b6001600160a01b0316146103555760405162461bcd60e51b81526004016102b790611054565b6010805460ff19811660ff9182161590811790925560405142929091161515906000805160206111aa83398151915290600090a35060105460ff1690565b60105460ff1615156001146103a757600080fd5b6002546001600160a01b031633146103be57600080fd5b6003544710156103cd57600080fd5b6005600054600160a01b900460ff1660058111156103ed576103ed611173565b14156103f857600080fd5b6000805460ff60a01b1916600160a01b9081179182905542910460ff16600581111561042657610426611173565b60405160008051602061118a83398151915290600090a36040514290479033907f7dc4c37201ed56b6c6e0a05290eb94e64040786a508fff228cf7f79423b643c590600090a46002546040516001600160a01b03909116904780156108fc02916000818181858888f193505050501580156104a5573d6000803e3d6000fd5b50565b6002546001600160a01b031633146104bf57600080fd5b6001600054600160a01b900460ff1660058111156104df576104df611173565b146104e957600080fd5b6000600854116104f857600080fd5b60095434101561050757600080fd5b60088054906000610517836110da565b909155505042600b5560095460009034111561056d5760095461053b903490610e40565b604051909150339082156108fc029083906000818181858888f1935050505015801561056b573d6000803e3d6000fd5b505b426105783483610e40565b60405133907f3fb95d44e159e2cf279d6cb5fd3d694601f47aa11311cf0db500354af34518a790600090a46105b96105b03483610e40565b60055490610e21565b600581905560045414156104a557604051429033907f88c3c6dc70a5cff89078a4ab563dafce790b6f69d88c77fd2bbe7a4d53f12b7090600090a3600080546002919060ff60a01b1916600160a01b836102e5565b60105460ff16151560011461062257600080fd5b600e5442101561063157600080fd5b60008054600160a01b900460ff16600581111561065057610650611173565b1461065a57600080fd5b3360009081526012602052604090205460ff16151560011461067b57600080fd5b3360009081526011602052604090205460ff161561069857600080fd5b600d80549060006106a88361112c565b909155505033600081815260116020526040514292917fe34f4c35680db62badf230c91431ddb53698ee30e6291e7ba2c29e87083fa53191a3600d54600c5414156106f5576106f5610e4c565b565b60105460ff16151560011461070b57600080fd5b3360009081526012602052604090205460ff16151560011461072c57600080fd5b6004600054600160a01b900460ff16600581111561074c5761074c611173565b1461075657600080fd5b3360009081526013602052604090205447101561077257600080fd5b3360008181526013602052604080822054905181156108fc0292818181858888f193505050501580156107a9573d6000803e3d6000fd5b5033600081815260136020526040808220549051429391927fe7afe2021ef5a8fe5e543b38f37e6a7799d26907b92fb1e3d24dd7a06e74ff6791a4476106f5576010805460ff1916905560405142906000906000805160206111aa833981519152908290a3600080546003919060ff60a01b1916600160a01b835b02179055506000544290600160a01b900460ff16600581111561084957610849611173565b60405160008051602061118a83398151915290600090a3565b6014818154811061087257600080fd5b6000918252602090912001546001600160a01b0316905081565b33610895610956565b6001600160a01b0316146108bb5760405162461bcd60e51b81526004016102b790611054565b6106f56000610e66565b6060336108d0610956565b6001600160a01b0316146108f65760405162461bcd60e51b81526004016102b790611054565b601480548060200260200160405190810160405280929190818152602001828054801561094c57602002820191906000526020600020905b81546001600160a01b0316815260019091019060200180831161092e575b5050505050905090565b6000546001600160a01b031690565b60008054600160a01b900460ff16600581111561098457610984611173565b1461098e57600080fd5b60006003544710610a53576003546109a7904790610e40565b90508015610a0d57604051339082156108fc029083906000818181858888f193505050501580156109dc573d6000803e3d6000fd5b506040514290829033907f2e2503bd032926fd7c2f6f2e1779b83841a24ab4d41accf43c89793c26f4cf6d90600090a45b6000805460ff60a01b1916600160a01b9081179182905542910460ff166005811115610a3b57610a3b611173565b60405160008051602061118a83398151915290600090a35b336000818152601260205260408120805460ff1916600190811790915560148054918201815582527fce6d7b5282bd9a3661ae061feed1dbda4e52ab073b1f9285be6e155d9c38d4ec0180546001600160a01b031916909217909155600c805491610abd8361112c565b90915550610ae69050610ad03483610e40565b3360009081526013602052604090205490610e21565b3360009081526013602052604090205542610b013483610e40565b7f90ba96906dd7ba676e83e5be593cbf08e08ae7af573a546478e7e61526fb68fa33604051610b309190610f3b565b60405180910390a350565b60105460ff161515600114610b4f57600080fd5b3360009081526012602052604090205460ff161515600114610b7057600080fd5b6002600054600160a01b900460ff166005811115610b9057610b90611173565b14610b9a57600080fd5b33600090815260136020526040902054610bb357600080fd5b6000600c54600454610bc591906110a1565b905080471015610bd757610bd7611147565b604051339082156108fc029083906000818181858888f19350505050158015610c04573d6000803e3d6000fd5b506040514290829033907f87a3bdf95d74f9ddbb5e43fa19605b0f0610ff18829384e905031dc75d85a3b290600090a4476104a5576010805460ff1916905560405142906000906000805160206111aa833981519152908290a3600080546003919060ff60a01b1916600160a01b836102e5565b600060606000806000806000806000806000600260009054906101000a90046001600160a01b0316600f600354600754600954600854600654600454600060149054906101000a900460ff16601060009054906101000a900460ff1647898054610ce1906110f1565b80601f0160208091040260200160405190810160405280929190818152602001828054610d0d906110f1565b8015610d5a5780601f10610d2f57610100808354040283529160200191610d5a565b820191906000526020600020905b815481529060010190602001808311610d3d57829003601f168201915b505050505099509a509a509a509a509a509a509a509a509a509a509a50909192939495969798999a565b33610d8d610956565b6001600160a01b031614610db35760405162461bcd60e51b81526004016102b790611054565b6001600160a01b038116610e185760405162461bcd60e51b815260206004820152602660248201527f4f776e61626c653a206e6577206f776e657220697320746865207a65726f206160448201526564647265737360d01b60648201526084016102b7565b6104a581610e66565b6000610e2d8284611089565b9392505050565b6000610e2d82846110a1565b6000610e2d82846110c3565b600080546004919060ff60a01b1916600160a01b83610824565b600080546001600160a01b038381166001600160a01b0319831681178455604051919092169283917f8be0079c531659141344cd1fd0a4f28419497f9722a3daafe3b4186f6b6457e09190a35050565b600060208284031215610ec857600080fd5b81356001600160a01b0381168114610e2d57600080fd5b600060208284031215610ef157600080fd5b813560068110610e2d57600080fd5b600060208284031215610f1257600080fd5b5035919050565b60068110610f3757634e487b7160e01b600052602160045260246000fd5b9052565b6001600160a01b0391909116815260200190565b6001600160a01b038c168152610160602082018190528b5190820181905260009081905b80821015610f95576020828f0101516101808386010152602082019150610f73565b80821115610fa857600061018082860101525b610180601f19601f830116850101925050508a60408301528960608301528860808301528760a08301528660c08301528560e0830152610fec610100830186610f19565b92151561012082015261014001529998505050505050505050565b6020808252825182820181905260009190848201906040850190845b818110156110485783516001600160a01b031683529284019291840191600101611023565b50909695505050505050565b6020808252818101527f4f776e61626c653a2063616c6c6572206973206e6f7420746865206f776e6572604082015260600190565b6000821982111561109c5761109c61115d565b500190565b6000826110be57634e487b7160e01b600052601260045260246000fd5b500490565b6000828210156110d5576110d561115d565b500390565b6000816110e9576110e961115d565b506000190190565b600181811c9082168061110557607f821691505b6020821081141561112657634e487b7160e01b600052602260045260246000fd5b50919050565b60006000198214156111405761114061115d565b5060010190565b634e487b7160e01b600052600160045260246000fd5b634e487b7160e01b600052601160045260246000fd5b634e487b7160e01b600052602160045260246000fdfea1f57b4d2e1dbc2fb780a8bf1d654bff435e9ae4d78f0090aa1424de456e1aa28fcb8b9c907c3d63d35e1f35de0ecdc8618c3b3d752a1fd7ea77292f77891246a264697066735822122085a106672f07bc272e5760bbe5b274225a3018083251be19d3150b4ac225b2e664736f6c63430008070033a26469706673582212203bb3988ca65dc4ee9a02169e029c7f667a70cb7e5f5dba98114e406b1a4144ec64736f6c63430008070033",
  "immutableReferences": {},
  "source": "pragma solidity 0.8.7;\r\npragma experimental ABIEncoderV2;\r\n\r\nimport \"@openzeppelin/contracts/utils/math/SafeMath.sol\";\r\nimport \"@openzeppelin/contracts/access/Ownable.sol\";\r\nimport \"./Credit.sol\";\r\n\r\ncontract P2PLending is Ownable  {\r\n\r\n    using SafeMath for uint;\r\n\r\n    struct Credits {\r\n        uint requestedAmount;\r\n        uint requestedRepayments;\r\n        uint interest;\r\n        string description;\r\n        address borrower;\r\n        uint fraudVoteCount;\r\n    }\r\n\r\n    struct User {\r\n        bool credited;\r\n        Credit activeCredit;\r\n        bool fraudStatus;\r\n        Credit[] allCredits;\r\n    }\r\n\r\n    mapping (address => mapping (Credit => bool)) creditFraudVote;\r\n    mapping (Credit => Credits) public creditsMap;\r\n    mapping(address => User) public users;\r\n    \r\n    Credit[] public credits;\r\n    Credits[] public creditlog;\r\n\r\n    event CreditCreated(Credit indexed _address, address indexed _borrower, uint indexed timestamp);\r\n    event CreditActiveChanged(Credit indexed _address, bool indexed active, uint indexed timestamp);\r\n    event UserSetFraud(address indexed _address, bool fraudStatus, uint timestamp);\r\n\r\n\r\n    function applyForCredit(uint requestedAmount, uint repaymentsCount, uint interest, string calldata creditDescription) public returns(Credit _credit) {\r\n        require(users[msg.sender].credited == false);\r\n        require(users[msg.sender].fraudStatus == false);\r\n        users[msg.sender].credited = true;\r\n\r\n        Credit credit = new Credit(requestedAmount, repaymentsCount, interest, creditDescription, msg.sender);\r\n        Credits memory newCredits = creditsMap[credit];\r\n        newCredits = Credits(requestedAmount, repaymentsCount, interest, creditDescription, msg.sender, 0);\r\n        creditlog.push(newCredits);\r\n\r\n        users[msg.sender].activeCredit = credit;\r\n        credits.push(credit);\r\n        users[msg.sender].allCredits.push(credit);\r\n\r\n        emit CreditCreated(credit, msg.sender, block.timestamp);\r\n\r\n        return credit;\r\n    }\r\n\r\n    function getCredits() public view returns (Credit[] memory) {\r\n        return credits;\r\n    }\r\n\r\n    function getUserCredits() public view returns (Credit[] memory) {\r\n        return users[msg.sender].allCredits;\r\n    }\r\n\r\n    function setFraudStatus(address _borrower) public returns (bool) {\r\n        // Update user fraud status.\r\n        users[_borrower].fraudStatus = true;\r\n\r\n        return users[_borrower].fraudStatus;\r\n    }\r\n\r\n    function changeCreditState (address _credit) public onlyOwner {\r\n        Credit credit = Credit(_credit);\r\n        bool active = credit.toggleActive();\r\n\r\n        emit CreditActiveChanged(credit, active, block.timestamp);\r\n    }\r\n\r\n    /** @dev Function for voting the borrower as fraudster.\r\n     */\r\n    function fraudVote(Credit _credit) external {\r\n       \r\n        Credit credit = Credit(_credit);\r\n        address[] memory lendersLog = credit.getLenders();\r\n        address borrower = creditsMap[_credit].borrower;\r\n        \r\n        for(uint lendersIndex = 0; lendersIndex < lendersLog.length; lendersIndex++){\r\n            require(msg.sender == lendersLog[lendersIndex], \"You arenot a lender\");\r\n            creditFraudVote[msg.sender][_credit] = true;\r\n            creditsMap[_credit].fraudVoteCount++;\r\n                \r\n            if(creditsMap[_credit].fraudVoteCount == lendersLog.length){\r\n                users[borrower].fraudStatus = true;\r\n\r\n                emit UserSetFraud(borrower, users[borrower].fraudStatus, block.timestamp);\r\n            }\r\n        }\r\n    }\r\n}",
  "sourcePath": "C:\\Users\\USER\\Desktop\\Credit_and_staking\\contracts\\P2PLending.sol",
  "compiler": {
    "name": "solc",
    "version": "0.8.7+commit.e28d00a7.Emscripten.clang"
  },
  "schemaVersion": "3.4.6",
  "updatedAt": "2022-04-18T17:41:40.220Z",
  "devdoc": {
    "kind": "dev",
    "methods": {
      "fraudVote(address)": {
        "details": "Function for voting the borrower as fraudster."
      },
      "owner()": {
        "details": "Returns the address of the current owner."
      },
      "renounceOwnership()": {
        "details": "Leaves the contract without owner. It will not be possible to call `onlyOwner` functions anymore. Can only be called by the current owner. NOTE: Renouncing ownership will leave the contract without an owner, thereby removing any functionality that is only available to the owner."
      },
      "transferOwnership(address)": {
        "details": "Transfers ownership of the contract to a new account (`newOwner`). Can only be called by the current owner."
      }
    },
    "version": 1
  },
  "userdoc": {
    "kind": "user",
    "methods": {},
    "version": 1
  }
}