{
  "contractName": "P2PLending",
  "abi": [
    {
      "anonymous": false,
      "inputs": [
        {
          "indexed": true,
          "internalType": "contract Credit",
          "name": "_address",
          "type": "address"
        },
        {
          "indexed": true,
          "internalType": "bool",
          "name": "active",
          "type": "bool"
        },
        {
          "indexed": true,
          "internalType": "uint256",
          "name": "timestamp",
          "type": "uint256"
        }
      ],
      "name": "CreditActiveChanged",
      "type": "event"
    },
    {
      "anonymous": false,
      "inputs": [
        {
          "indexed": true,
          "internalType": "contract Credit",
          "name": "_address",
          "type": "address"
        },
        {
          "indexed": true,
          "internalType": "address",
          "name": "_borrower",
          "type": "address"
        },
        {
          "indexed": true,
          "internalType": "uint256",
          "name": "timestamp",
          "type": "uint256"
        }
      ],
      "name": "CreditCreated",
      "type": "event"
    },
    {
      "anonymous": false,
      "inputs": [
        {
          "indexed": true,
          "internalType": "address",
          "name": "previousOwner",
          "type": "address"
        },
        {
          "indexed": true,
          "internalType": "address",
          "name": "newOwner",
          "type": "address"
        }
      ],
      "name": "OwnershipTransferred",
      "type": "event"
    },
    {
      "anonymous": false,
      "inputs": [
        {
          "indexed": true,
          "internalType": "address",
          "name": "_address",
          "type": "address"
        },
        {
          "indexed": false,
          "internalType": "bool",
          "name": "fraudStatus",
          "type": "bool"
        },
        {
          "indexed": false,
          "internalType": "uint256",
          "name": "timestamp",
          "type": "uint256"
        }
      ],
      "name": "UserSetFraud",
      "type": "event"
    },
    {
      "inputs": [
        {
          "internalType": "uint256",
          "name": "",
          "type": "uint256"
        }
      ],
      "name": "creditAddressMap",
      "outputs": [
        {
          "internalType": "contract Credit",
          "name": "",
          "type": "address"
        }
      ],
      "stateMutability": "view",
      "type": "function"
    },
    {
      "inputs": [
        {
          "internalType": "uint256",
          "name": "",
          "type": "uint256"
        }
      ],
      "name": "creditlog",
      "outputs": [
        {
          "internalType": "uint256",
          "name": "requestedAmount",
          "type": "uint256"
        },
        {
          "internalType": "uint256",
          "name": "requestedRepayments",
          "type": "uint256"
        },
        {
          "internalType": "uint256",
          "name": "interest",
          "type": "uint256"
        },
        {
          "internalType": "string",
          "name": "description",
          "type": "string"
        },
        {
          "internalType": "address",
          "name": "borrower",
          "type": "address"
        },
        {
          "internalType": "uint256",
          "name": "fraudVoteCount",
          "type": "uint256"
        },
        {
          "internalType": "uint256",
          "name": "creditId",
          "type": "uint256"
        }
      ],
      "stateMutability": "view",
      "type": "function"
    },
    {
      "inputs": [
        {
          "internalType": "uint256",
          "name": "",
          "type": "uint256"
        }
      ],
      "name": "credits",
      "outputs": [
        {
          "internalType": "contract Credit",
          "name": "",
          "type": "address"
        }
      ],
      "stateMutability": "view",
      "type": "function"
    },
    {
      "inputs": [
        {
          "internalType": "contract Credit",
          "name": "",
          "type": "address"
        }
      ],
      "name": "creditsMap",
      "outputs": [
        {
          "internalType": "uint256",
          "name": "requestedAmount",
          "type": "uint256"
        },
        {
          "internalType": "uint256",
          "name": "requestedRepayments",
          "type": "uint256"
        },
        {
          "internalType": "uint256",
          "name": "interest",
          "type": "uint256"
        },
        {
          "internalType": "string",
          "name": "description",
          "type": "string"
        },
        {
          "internalType": "address",
          "name": "borrower",
          "type": "address"
        },
        {
          "internalType": "uint256",
          "name": "fraudVoteCount",
          "type": "uint256"
        },
        {
          "internalType": "uint256",
          "name": "creditId",
          "type": "uint256"
        }
      ],
      "stateMutability": "view",
      "type": "function"
    },
    {
      "inputs": [],
      "name": "owner",
      "outputs": [
        {
          "internalType": "address",
          "name": "",
          "type": "address"
        }
      ],
      "stateMutability": "view",
      "type": "function"
    },
    {
      "inputs": [],
      "name": "renounceOwnership",
      "outputs": [],
      "stateMutability": "nonpayable",
      "type": "function"
    },
    {
      "inputs": [
        {
          "internalType": "address",
          "name": "newOwner",
          "type": "address"
        }
      ],
      "name": "transferOwnership",
      "outputs": [],
      "stateMutability": "nonpayable",
      "type": "function"
    },
    {
      "inputs": [
        {
          "internalType": "address",
          "name": "",
          "type": "address"
        }
      ],
      "name": "users",
      "outputs": [
        {
          "internalType": "bool",
          "name": "credited",
          "type": "bool"
        },
        {
          "internalType": "contract Credit",
          "name": "activeCredit",
          "type": "address"
        },
        {
          "internalType": "bool",
          "name": "fraudStatus",
          "type": "bool"
        }
      ],
      "stateMutability": "view",
      "type": "function"
    },
    {
      "inputs": [
        {
          "internalType": "uint256",
          "name": "requestedAmount",
          "type": "uint256"
        },
        {
          "internalType": "uint256",
          "name": "repaymentsCount",
          "type": "uint256"
        },
        {
          "internalType": "uint256",
          "name": "interest",
          "type": "uint256"
        },
        {
          "internalType": "string",
          "name": "creditDescription",
          "type": "string"
        }
      ],
      "name": "applyForCredit",
      "outputs": [
        {
          "internalType": "contract Credit",
          "name": "_credit",
          "type": "address"
        }
      ],
      "stateMutability": "nonpayable",
      "type": "function"
    },
    {
      "inputs": [
        {
          "internalType": "uint256",
          "name": "_creditId",
          "type": "uint256"
        }
      ],
      "name": "getCreditAddress",
      "outputs": [
        {
          "internalType": "contract Credit",
          "name": "",
          "type": "address"
        }
      ],
      "stateMutability": "view",
      "type": "function"
    },
    {
      "inputs": [],
      "name": "getCredits",
      "outputs": [
        {
          "internalType": "contract Credit[]",
          "name": "",
          "type": "address[]"
        }
      ],
      "stateMutability": "view",
      "type": "function"
    },
    {
      "inputs": [],
      "name": "getUserCredits",
      "outputs": [
        {
          "internalType": "contract Credit[]",
          "name": "",
          "type": "address[]"
        }
      ],
      "stateMutability": "view",
      "type": "function"
    },
    {
      "inputs": [
        {
          "internalType": "address",
          "name": "_borrower",
          "type": "address"
        }
      ],
      "name": "setFraudStatus",
      "outputs": [
        {
          "internalType": "bool",
          "name": "",
          "type": "bool"
        }
      ],
      "stateMutability": "nonpayable",
      "type": "function"
    },
    {
      "inputs": [
        {
          "internalType": "address",
          "name": "_credit",
          "type": "address"
        }
      ],
      "name": "changeCreditState",
      "outputs": [],
      "stateMutability": "nonpayable",
      "type": "function"
    },
    {
      "inputs": [
        {
          "internalType": "contract Credit",
          "name": "_credit",
          "type": "address"
        }
      ],
      "name": "fraudVote",
      "outputs": [],
      "stateMutability": "nonpayable",
      "type": "function"
    }
  ],
  "bytecode": "0x608060405234801561001057600080fd5b5061001a3361001f565b61006f565b600080546001600160a01b038381166001600160a01b0319831681178455604051919092169283917f8be0079c531659141344cd1fd0a4f28419497f9722a3daafe3b4186f6b6457e09190a35050565b612f0f8061007e6000396000f3fe60806040523480156200001157600080fd5b5060043610620001095760003560e01c80638337bb8c11620000a3578063bb9e4247116200006e578063bb9e42471462000289578063d159e7e014620002b1578063d2e397e714620002c8578063f2fde38b14620002df57600080fd5b80638337bb8c14620001cb5780638da5cb5b14620001f7578063a87430ba1462000209578063bb189ac2146200027257600080fd5b806359658c4811620000e457806359658c481462000172578063715018a6146200018b578063812aa8eb1462000195578063823a71af14620001c157600080fd5b8063036a1c22146200010e5780630d0adc8e14620001425780632092cb331462000159575b600080fd5b620001256200011f3660046200101f565b620002f6565b6040516001600160a01b0390911681526020015b60405180910390f35b62000125620001533660046200101f565b62000321565b6200016362000354565b604051620001399190620010cb565b620001896200018336600462000efa565b620003c4565b005b62000189620004b9565b620001ac620001a636600462000efa565b620004f4565b604051620001399796959493929190620011a6565b62000163620005d2565b62000125620001dc3660046200101f565b6004602052600090815260409020546001600160a01b031681565b6000546001600160a01b031662000125565b6200024a6200021a36600462000efa565b60056020526000908152604090205460ff808216916001600160a01b0361010082041691600160a81b9091041683565b6040805193151584526001600160a01b03909216602084015215159082015260600162000139565b620001256200028336600462001039565b62000634565b620002a06200029a36600462000efa565b62000a71565b604051901515815260200162000139565b620001ac620002c23660046200101f565b62000ad8565b62000189620002d936600462000efa565b62000b20565b62000189620002f036600462000efa565b62000d47565b600681815481106200030757600080fd5b6000918252602090912001546001600160a01b0316905081565b600060068281548110620003395762000339620012a1565b6000918252602090912001546001600160a01b031692915050565b33600090815260056020908152604091829020600101805483518184028101840190945280845260609392830182828015620003ba57602002820191906000526020600020905b81546001600160a01b031681526001909101906020018083116200039b575b5050505050905090565b6000546001600160a01b03163314620003fa5760405162461bcd60e51b8152600401620003f1906200111a565b60405180910390fd5b60008190506000816001600160a01b03166329c68dc16040518163ffffffff1660e01b8152600401602060405180830381600087803b1580156200043d57600080fd5b505af115801562000452573d6000803e3d6000fd5b505050506040513d601f19601f8201168201806040525081019062000478919062000ffb565b905042811515836001600160a01b03167f71ce7686e91fa8c354084a1684940b6da2d63559a5e4652d1baf5c2c2a9dcfca60405160405180910390a4505050565b6000546001600160a01b03163314620004e65760405162461bcd60e51b8152600401620003f1906200111a565b620004f2600062000de9565b565b60036020528060005260406000206000915090508060000154908060010154908060020154908060030180546200052b906200123a565b80601f016020809104026020016040519081016040528092919081815260200182805462000559906200123a565b8015620005aa5780601f106200057e57610100808354040283529160200191620005aa565b820191906000526020600020905b8154815290600101906020018083116200058c57829003601f168201915b505050506004830154600584015460069094015492936001600160a01b039091169290915087565b60606006805480602002602001604051908101604052809291908181526020018280548015620003ba576020028201919060005260206000209081546001600160a01b031681526001909101906020018083116200039b575050505050905090565b3360009081526005602052604081205460ff16156200065257600080fd5b33600090815260056020526040902054600160a81b900460ff16156200067757600080fd5b33600081815260056020526040808220805460ff1916600117905551909188918891889188918891620006aa9062000e39565b620006bb969594939291906200114f565b604051809103906000f080158015620006d8573d6000803e3d6000fd5b509050600060036000836001600160a01b03166001600160a01b031681526020019081526020016000206040518060e00160405290816000820154815260200160018201548152602001600282015481526020016003820180546200073d906200123a565b80601f01602080910402602001604051908101604052809291908181526020018280546200076b906200123a565b8015620007bc5780601f106200079057610100808354040283529160200191620007bc565b820191906000526020600020905b8154815290600101906020018083116200079e57829003601f168201915b505050505081526020016004820160009054906101000a90046001600160a01b03166001600160a01b03166001600160a01b031681526020016005820154815260200160068201548152505090506040518060e0016040528089815260200188815260200187815260200186868080601f016020809104026020016040519081016040528093929190818152602001838380828437600092018290525093855250503360208085019190915260408085018490526001805460609096018690529484526004909152822080546001600160a01b0319166001600160a01b038816179055508154929350620008b08362001277565b9091555050600780546001810182556000829052825191027fa66cc928b5edb82af9bd49922954155ab7b0942694bea4ce44661d9a8736c68881019182556020808401517fa66cc928b5edb82af9bd49922954155ab7b0942694bea4ce44661d9a8736c68983015560408401517fa66cc928b5edb82af9bd49922954155ab7b0942694bea4ce44661d9a8736c68a830155606084015180518594936200097d937fa66cc928b5edb82af9bd49922954155ab7b0942694bea4ce44661d9a8736c68b90910192019062000e47565b506080820151600482810180546001600160a01b03199081166001600160a01b039485161790915560a085015160058086019190915560c090950151600694850155336000818152602096875260408082208054610100600160a81b031916610100978c16978802178155875460018181019099557ff652222313e28459528d920b65115c16c04f3efc82aaedc97be59f3f377c0d3f0180548616881790558701805480890182559083528883200180549094168617909355945485529190945292514293927fbb23603d6f3f6ddbe10dbe70633e287a232c78acbccb239b11271844b5be8d7991a4505095945050505050565b600080546001600160a01b0316331462000a9f5760405162461bcd60e51b8152600401620003f1906200111a565b506001600160a01b0381166000908152600560205260409020805460ff60a81b1916600160a81b90811791829055900460ff165b919050565b6007818154811062000ae957600080fd5b90600052602060002090600702016000915090508060000154908060010154908060020154908060030180546200052b906200123a565b60008190506000816001600160a01b031663829268756040518163ffffffff1660e01b815260040160006040518083038186803b15801562000b6157600080fd5b505afa15801562000b76573d6000803e3d6000fd5b505050506040513d6000823e601f3d908101601f1916820160405262000ba0919081019062000f21565b6001600160a01b038085166000908152600360205260408120600401549293509116905b825181101562000d405782818151811062000be35762000be3620012a1565b60200260200101516001600160a01b0316336001600160a01b03161462000c435760405162461bcd60e51b81526020600482015260136024820152722cb7ba9030b932b737ba1030903632b73232b960691b6044820152606401620003f1565b3360009081526002602090815260408083206001600160a01b03891684528252808320805460ff191660011790556003909152812060050180549162000c898362001277565b909155505082516001600160a01b038616600090815260036020526040902060050154141562000d2b576001600160a01b03821660008181526005602052604090819020805460ff60a81b1916600160a81b9081179182905591517fe10f48804089cca7e3995c4d2eda1c3d12204999a90e2203893115592e9a65e49262000d22920460ff169042909115158252602082015260400190565b60405180910390a25b8062000d378162001277565b91505062000bc4565b5050505050565b6000546001600160a01b0316331462000d745760405162461bcd60e51b8152600401620003f1906200111a565b6001600160a01b03811662000ddb5760405162461bcd60e51b815260206004820152602660248201527f4f776e61626c653a206e6577206f776e657220697320746865207a65726f206160448201526564647265737360d01b6064820152608401620003f1565b62000de68162000de9565b50565b600080546001600160a01b038381166001600160a01b0319831681178455604051919092169283917f8be0079c531659141344cd1fd0a4f28419497f9722a3daafe3b4186f6b6457e09190a35050565b611bf680620012e483390190565b82805462000e55906200123a565b90600052602060002090601f01602090048101928262000e79576000855562000ec4565b82601f1062000e9457805160ff191683800117855562000ec4565b8280016001018555821562000ec4579182015b8281111562000ec457825182559160200191906001019062000ea7565b5062000ed292915062000ed6565b5090565b5b8082111562000ed2576000815560010162000ed7565b805162000ad381620012cd565b60006020828403121562000f0d57600080fd5b813562000f1a81620012cd565b9392505050565b6000602080838503121562000f3557600080fd5b825167ffffffffffffffff8082111562000f4e57600080fd5b818501915085601f83011262000f6357600080fd5b81518181111562000f785762000f78620012b7565b8060051b604051601f19603f8301168101818110858211171562000fa05762000fa0620012b7565b604052828152858101935084860182860187018a101562000fc057600080fd5b600095505b8386101562000fee5762000fd98162000eed565b85526001959095019493860193860162000fc5565b5098975050505050505050565b6000602082840312156200100e57600080fd5b8151801515811462000f1a57600080fd5b6000602082840312156200103257600080fd5b5035919050565b6000806000806000608086880312156200105257600080fd5b853594506020860135935060408601359250606086013567ffffffffffffffff808211156200108057600080fd5b818801915088601f8301126200109557600080fd5b813581811115620010a557600080fd5b896020828501011115620010b857600080fd5b9699959850939650602001949392505050565b6020808252825182820181905260009190848201906040850190845b818110156200110e5783516001600160a01b031683529284019291840191600101620010e7565b50909695505050505050565b6020808252818101527f4f776e61626c653a2063616c6c6572206973206e6f7420746865206f776e6572604082015260600190565b86815285602082015284604082015260a060608201528260a0820152828460c0830137600081840160c0908101919091526001600160a01b03929092166080820152601f909201601f191690910101949350505050565b87815260006020888184015287604084015260e0606084015286518060e085015260005b81811015620011e95788810183015185820161010001528201620011ca565b81811115620011fd57600061010083870101525b50601f01601f1916830161010001915062001225905060808301866001600160a01b03169052565b60a082019390935260c0015295945050505050565b600181811c908216806200124f57607f821691505b602082108114156200127157634e487b7160e01b600052602260045260246000fd5b50919050565b60006000198214156200129a57634e487b7160e01b600052601160045260246000fd5b5060010190565b634e487b7160e01b600052603260045260246000fd5b634e487b7160e01b600052604160045260246000fd5b6001600160a01b038116811462000de657600080fdfe60806040526200001142600162000529565b600855600a805460ff191660011790553480156200002e57600080fd5b5060405162001bf638038062001bf6833981016040819052620000519162000418565b6200005c33620002e2565b600480546001600160a01b0319166001600160a01b03831617905560408051661a5b9d1c995cdd60ca1b815260026007820181905282519182900360270182208690556e1c995c5d595cdd1959105b5bdd5b9d608a1b8252600f8201819052825191829003602f0182208890557f72657175657374656452657061796d656e74730000000000000000000000000082526013808301829052835192839003603390810184208990557f72656d61696e696e6752657061796d656e747300000000000000000000000000845290830191909152915190819003909101902084905562000154858462000332602090811b6200124517901c565b6040516b1c995d1d5c9b905b5bdd5b9d60a21b8152600290600c01908152602001604051809103902081905550620001cb846002604051620001a8906b1c995d1d5c9b905b5bdd5b9d60a21b8152600c0190565b9081526020016040518091039020546200034760201b620012581790919060201c565b604080517f72657061796d656e74496e7374616c6c6d656e7400000000000000000000000081526002601482015290519081900360340190205581516200021a90600990602085019062000355565b5042600655600380546001600160a01b0319163317905560405160009060019062000257906b1b195b99195c9cd0dbdd5b9d60a21b8152600c0190565b908152604051908190036020018120919091556a7265766f6b65566f74657360a81b8152600090600190600b01908152604051602091819003919091018120919091556000805460ff60a01b1916815542916001600160a01b038416917fd6b0a532be6a7986b9de41fbbf991ac71079eb4c48f5f46913a7e16f194ddb6e91a35050505050620005c6565b600080546001600160a01b038381166001600160a01b0319831681178455604051919092169283917f8be0079c531659141344cd1fd0a4f28419497f9722a3daafe3b4186f6b6457e09190a35050565b600062000340828462000529565b9392505050565b600062000340828462000550565b828054620003639062000573565b90600052602060002090601f016020900481019282620003875760008555620003d2565b82601f10620003a257805160ff1916838001178555620003d2565b82800160010185558215620003d2579182015b82811115620003d2578251825591602001919060010190620003b5565b50620003e0929150620003e4565b5090565b5b80821115620003e05760008155600101620003e5565b80516001600160a01b03811681146200041357600080fd5b919050565b600080600080600060a086880312156200043157600080fd5b8551602080880151604089015160608a01519398509096509450906001600160401b03808211156200046257600080fd5b818901915089601f8301126200047757600080fd5b8151818111156200048c576200048c620005b0565b604051601f8201601f19908116603f01168101908382118183101715620004b757620004b7620005b0565b816040528281528c86848701011115620004d057600080fd5b600093505b82841015620004f45784840186015181850187015292850192620004d5565b82841115620005065760008684830101525b8097505050505050506200051d60808701620003fb565b90509295509295909350565b600082198211156200054b57634e487b7160e01b600052601160045260246000fd5b500190565b6000826200056e57634e487b7160e01b600052601260045260246000fd5b500490565b600181811c908216806200058857607f821691505b60208210811415620005aa57634e487b7160e01b600052602260045260246000fd5b50919050565b634e487b7160e01b600052604160045260246000fd5b61162080620005d66000396000f3fe6080604052600436106100f35760003560e01c80636e021df71161008a578063e8b5e51f11610059578063e8b5e51f14610263578063efd475ab1461026b578063f06817cf14610280578063f2fde38b146102ac57600080fd5b80636e021df7146101d6578063715018a61461020e57806382926875146102235780638da5cb5b1461024557600080fd5b80633ccfd60b116100c65780633ccfd60b1461018f578063402d8883146101a457806343c14b22146101ac578063590e1ae3146101c157600080fd5b806312065fe0146100f8578063268f11531461011857806328fd10d71461013a57806329c68dc11461017a575b600080fd5b34801561010457600080fd5b506040514781526020015b60405180910390f35b34801561012457600080fd5b50610138610133366004611334565b6102cc565b005b34801561014657600080fd5b5061016a61015536600461130b565b600c6020526000908152604090205460ff1681565b604051901515815260200161010f565b34801561018657600080fd5b5061016a610363565b34801561019b57600080fd5b506101386103de565b610138610539565b3480156101b857600080fd5b506101386107e5565b3480156101cd57600080fd5b50610138610928565b3480156101e257600080fd5b506101f66101f1366004611355565b610a57565b6040516001600160a01b03909116815260200161010f565b34801561021a57600080fd5b50610138610a81565b34801561022f57600080fd5b50610238610ab7565b60405161010f9190611448565b34801561025157600080fd5b506000546001600160a01b03166101f6565b610138610b44565b34801561027757600080fd5b50610138610dc6565b34801561028c57600080fd5b50610295610fa7565b60405161010f9b9a99989796959493929190611390565b3480156102b857600080fd5b506101386102c736600461130b565b6111ad565b6000546001600160a01b031633146102ff5760405162461bcd60e51b81526004016102f690611495565b60405180910390fd5b6000805482919060ff60a01b1916600160a01b836005811115610324576103246115b4565b02179055506000544290600160a01b900460ff166005811115610349576103496115b4565b6040516000805160206115cb83398151915290600090a350565b600080546001600160a01b0316331461038e5760405162461bcd60e51b81526004016102f690611495565b600a805460ff19811660ff9182161590811790925560405142929091161515907f8fcb8b9c907c3d63d35e1f35de0ecdc8618c3b3d752a1fd7ea77292f7789124690600090a350600a5460ff1690565b600a5460ff1615156001146103f257600080fd5b6004546001600160a01b0316331461040957600080fd5b6040516e1c995c5d595cdd1959105b5bdd5b9d608a1b8152600290600f0190815260200160405180910390205447101561044257600080fd5b6005600054600160a01b900460ff166005811115610462576104626115b4565b141561046d57600080fd5b6000805460ff60a01b1916600160a01b9081179182905542910460ff16600581111561049b5761049b6115b4565b6040516000805160206115cb83398151915290600090a36040514290479033907f7dc4c37201ed56b6c6e0a05290eb94e64040786a508fff228cf7f79423b643c590600090a4604051600090339047908381818185875af1925050503d8060008114610523576040519150601f19603f3d011682016040523d82523d6000602084013e610528565b606091505b505090508061053657600080fd5b50565b6004546001600160a01b0316331461055057600080fd5b6001600054600160a01b900460ff166005811115610570576105706115b4565b1461057a57600080fd5b600060026040516105a4907272656d61696e696e6752657061796d656e747360681b815260130190565b908152602001604051809103902054116105bd57600080fd5b604051731c995c185e5b595b9d125b9cdd185b1b1b595b9d60621b81526002906014019081526020016040518091039020543410156105fb57600080fd5b6040517272656d61696e696e6752657061796d656e747360681b8152600290601301908152604051908190036020019020805490600061063a8361151b565b909155505042600755604051731c995c185e5b595b9d125b9cdd185b1b1b595b9d60621b815260009060029060140190815260200160405180910390205434111561071c576106c260026040516106ab90731c995c185e5b595b9d125b9cdd185b1b1b595b9d60621b815260140190565b908152604051908190036020019020543490611264565b604051909150600090339083908381818185875af1925050503d8060008114610707576040519150601f19603f3d011682016040523d82523d6000602084013e61070c565b606091505b505090508061071a57600080fd5b505b426107273483611264565b60405133907f3fb95d44e159e2cf279d6cb5fd3d694601f47aa11311cf0db500354af34518a790600090a461076861075f3483611264565b60055490611245565b6005556040516b1c995d1d5c9b905b5bdd5b9d60a21b8152600290600c01908152602001604051809103902054600554141561053657604051429033907f88c3c6dc70a5cff89078a4ab563dafce790b6f69d88c77fd2bbe7a4d53f12b7090600090a3600080546002919060ff60a01b1916600160a01b83610324565b600a5460ff1615156001146107f957600080fd5b60085442101561080857600080fd5b60008054600160a01b900460ff166005811115610827576108276115b4565b1461083157600080fd5b336000908152600c602052604090205460ff16151560011461085257600080fd5b336000908152600b602052604090205460ff161561086f57600080fd5b60006001604051610891906a7265766f6b65566f74657360a81b8152600b0190565b908152604051908190036020018120546b1b195b99195c9cd0dbdd5b9d60a21b82529150600090600190600c01908152602001604051809103902054905081806108da9061156d565b336000818152600b60205260405192955042935090917fe34f4c35680db62badf230c91431ddb53698ee30e6291e7ba2c29e87083fa5319190a38181141561092457610924611270565b5050565b600a5460ff16151560011461093c57600080fd5b336000908152600c602052604090205460ff16151560011461095d57600080fd5b6004600054600160a01b900460ff16600581111561097d5761097d6115b4565b1461098757600080fd5b336000908152600d6020526040902054478111156109a457600080fd5b604051339082156108fc029083906000818181858888f193505050501580156109d1573d6000803e3d6000fd5b506040514290829033907fe7afe2021ef5a8fe5e543b38f37e6a7799d26907b92fb1e3d24dd7a06e74ff6790600090a44761053657600a805460ff1916905560405142906000907f8fcb8b9c907c3d63d35e1f35de0ecdc8618c3b3d752a1fd7ea77292f77891246908290a3600080546003919060ff60a01b1916600160a01b83610324565b600e8181548110610a6757600080fd5b6000918252602090912001546001600160a01b0316905081565b6000546001600160a01b03163314610aab5760405162461bcd60e51b81526004016102f690611495565b610ab560006112bb565b565b6000546060906001600160a01b03163314610ae45760405162461bcd60e51b81526004016102f690611495565b600e805480602002602001604051908101604052809291908181526020018280548015610b3a57602002820191906000526020600020905b81546001600160a01b03168152600190910190602001808311610b1c575b5050505050905090565b60008054600160a01b900460ff166005811115610b6357610b636115b4565b14610b6d57600080fd5b60006001604051610b90906b1b195b99195c9cd0dbdd5b9d60a21b8152600c0190565b908152604051908190036020018120546e1c995c5d595cdd1959105b5bdd5b9d608a1b82529150600090600290600f019081526020016040518091039020544710610ce757610c136002604051610bfc906e1c995c5d595cdd1959105b5bdd5b9d608a1b8152600f0190565b908152604051908190036020019020544790611264565b90508015610ca157604051600090339083908381818185875af1925050503d8060008114610c5d576040519150601f19603f3d011682016040523d82523d6000602084013e610c62565b606091505b5050905080610c7057600080fd5b6040514290839033907f2e2503bd032926fd7c2f6f2e1779b83841a24ab4d41accf43c89793c26f4cf6d90600090a4505b6000805460ff60a01b1916600160a01b9081179182905542910460ff166005811115610ccf57610ccf6115b4565b6040516000805160206115cb83398151915290600090a35b336000818152600c60205260408120805460ff19166001908117909155600e805491820181559091527fbb7b4a454dc3493923482f07822329ed19e8244eff582cc204f8554c3620c3fd0180546001600160a01b031916909117905581610d4d8161156d565b9250610d749050610d5e3483611264565b336000908152600d602052604090205490611245565b336000908152600d602052604090205542610d8f3483611264565b6040513381527f90ba96906dd7ba676e83e5be593cbf08e08ae7af573a546478e7e61526fb68fa9060200160405180910390a35050565b600a5460ff161515600114610dda57600080fd5b336000908152600c602052604090205460ff161515600114610dfb57600080fd5b6002600054600160a01b900460ff166005811115610e1b57610e1b6115b4565b14610e2557600080fd5b336000908152600d6020526040902054610e3e57600080fd5b60006001604051610e61906b1b195b99195c9cd0dbdd5b9d60a21b8152600c0190565b90815260200160405180910390205490506000816002604051610e96906b1c995d1d5c9b905b5bdd5b9d60a21b8152600c0190565b908152602001604051809103902054610eaf91906114e2565b905080471015610ec157610ec1611588565b604051339082156108fc029083906000818181858888f19350505050158015610eee573d6000803e3d6000fd5b506040514290829033907f87a3bdf95d74f9ddbb5e43fa19605b0f0610ff18829384e905031dc75d85a3b290600090a44761092457600a805460ff1916905560405142906000907f8fcb8b9c907c3d63d35e1f35de0ecdc8618c3b3d752a1fd7ea77292f77891246908290a36000805460ff60a01b1916600360a01b17908190554290600160a01b900460ff166005811115610f8c57610f8c6115b4565b6040516000805160206115cb83398151915290600090a35050565b600060606000806000806000806000806000600460009054906101000a90046001600160a01b031660096002604051610ff5906e1c995c5d595cdd1959105b5bdd5b9d608a1b8152600f0190565b908152604051908190036020018120547272657175657374656452657061796d656e747360681b82529060029060130190815260405190819003602001812054731c995c185e5b595b9d125b9cdd185b1b1b595b9d60621b825290600290601401908152604051908190036020018120547272656d61696e696e6752657061796d656e747360681b82529060029060130190815260405190819003602001812054661a5b9d1c995cdd60ca1b825290600290600701908152604051908190036020018120546b1c995d1d5c9b905b5bdd5b9d60a21b825290600290600c0190815260405190819003602001902054600054600a54885460ff600160a01b909304831692919091169047908a9061110a90611532565b80601f016020809104026020016040519081016040528092919081815260200182805461113690611532565b80156111835780601f1061115857610100808354040283529160200191611183565b820191906000526020600020905b81548152906001019060200180831161116657829003601f168201915b505050505099509a509a509a509a509a509a509a509a509a509a509a50909192939495969798999a565b6000546001600160a01b031633146111d75760405162461bcd60e51b81526004016102f690611495565b6001600160a01b03811661123c5760405162461bcd60e51b815260206004820152602660248201527f4f776e61626c653a206e6577206f776e657220697320746865207a65726f206160448201526564647265737360d01b60648201526084016102f6565b610536816112bb565b600061125182846114ca565b9392505050565b600061125182846114e2565b60006112518284611504565b6000805460ff60a01b1916600160a21b17908190554290600160a01b900460ff1660058111156112a2576112a26115b4565b6040516000805160206115cb83398151915290600090a3565b600080546001600160a01b038381166001600160a01b0319831681178455604051919092169283917f8be0079c531659141344cd1fd0a4f28419497f9722a3daafe3b4186f6b6457e09190a35050565b60006020828403121561131d57600080fd5b81356001600160a01b038116811461125157600080fd5b60006020828403121561134657600080fd5b81356006811061125157600080fd5b60006020828403121561136757600080fd5b5035919050565b6006811061138c57634e487b7160e01b600052602160045260246000fd5b9052565b6001600160a01b038c168152610160602082018190528b5190820181905260009081905b808210156113d6576020828f01015161018083860101526020820191506113b4565b808211156113e957600061018082860101525b610180601f19601f830116850101925050508a60408301528960608301528860808301528760a08301528660c08301528560e083015261142d61010083018661136e565b92151561012082015261014001529998505050505050505050565b6020808252825182820181905260009190848201906040850190845b818110156114895783516001600160a01b031683529284019291840191600101611464565b50909695505050505050565b6020808252818101527f4f776e61626c653a2063616c6c6572206973206e6f7420746865206f776e6572604082015260600190565b600082198211156114dd576114dd61159e565b500190565b6000826114ff57634e487b7160e01b600052601260045260246000fd5b500490565b6000828210156115165761151661159e565b500390565b60008161152a5761152a61159e565b506000190190565b600181811c9082168061154657607f821691505b6020821081141561156757634e487b7160e01b600052602260045260246000fd5b50919050565b60006000198214156115815761158161159e565b5060010190565b634e487b7160e01b600052600160045260246000fd5b634e487b7160e01b600052601160045260246000fd5b634e487b7160e01b600052602160045260246000fdfea1f57b4d2e1dbc2fb780a8bf1d654bff435e9ae4d78f0090aa1424de456e1aa2a2646970667358221220d954cea4846e61606ae48f0e0d54c145fafcbf8d672b667361172875584b68b764736f6c63430008070033a2646970667358221220f8300ac68d5ff0628008ee391931fdd17d3c47c4926fb67c7d2b41d33018391a64736f6c63430008070033",
  "immutableReferences": {},
  "source": "pragma solidity 0.8.7;\r\npragma experimental ABIEncoderV2;\r\n\r\nimport \"@openzeppelin/contracts/utils/math/SafeMath.sol\";\r\nimport \"@openzeppelin/contracts/access/Ownable.sol\";\r\nimport \"./Credit.sol\";\r\n\r\ncontract P2PLending is Ownable  {\r\n\r\n    using SafeMath for uint;\r\n\r\n    struct Credits {\r\n        uint requestedAmount;\r\n        uint requestedRepayments;\r\n        uint interest;\r\n        string description;\r\n        address borrower;\r\n        uint fraudVoteCount;\r\n        uint creditId;\r\n    }\r\n\r\n    struct User {\r\n        bool credited;\r\n        Credit activeCredit;\r\n        bool fraudStatus;\r\n        Credit[] allCredits;\r\n    }\r\n\r\n    uint nextCreditId;\r\n    \r\n    mapping (address => mapping (Credit => bool)) creditFraudVote;\r\n    mapping (Credit => Credits) public creditsMap;\r\n    mapping (uint => Credit) public creditAddressMap;\r\n    mapping(address => User) public users;\r\n    \r\n    Credit[] public credits;\r\n    Credits[] public creditlog;\r\n\r\n    event CreditCreated(Credit indexed _address, address indexed _borrower, uint indexed timestamp);\r\n    event CreditActiveChanged(Credit indexed _address, bool indexed active, uint indexed timestamp);\r\n    event UserSetFraud(address indexed _address, bool fraudStatus, uint timestamp);\r\n\r\n\r\n    function applyForCredit(uint requestedAmount, uint repaymentsCount, uint interest, string calldata creditDescription) public returns(Credit _credit) {\r\n        require(users[msg.sender].credited == false);\r\n        require(users[msg.sender].fraudStatus == false);\r\n        users[msg.sender].credited = true;\r\n\r\n        Credit credit = new Credit(requestedAmount, repaymentsCount, interest, creditDescription, msg.sender);\r\n        Credits memory newCredits = creditsMap[credit];\r\n        newCredits = Credits(requestedAmount, repaymentsCount, interest, creditDescription, msg.sender, 0, nextCreditId);\r\n        \r\n        creditAddressMap[nextCreditId] = credit;\r\n        nextCreditId++;\r\n        \r\n        creditlog.push(newCredits);\r\n\r\n        users[msg.sender].activeCredit = credit;\r\n        credits.push(credit);\r\n        users[msg.sender].allCredits.push(credit);\r\n        \r\n        creditAddressMap[nextCreditId];\r\n\r\n        emit CreditCreated(credit, msg.sender, block.timestamp);\r\n\r\n        return _credit;\r\n    }\r\n\r\n    function getCreditAddress(uint _creditId) public view returns (Credit){\r\n        return credits[_creditId];\r\n    }\r\n\r\n    function getCredits() public view returns (Credit[] memory) {\r\n        return credits;\r\n    }\r\n\r\n    function getUserCredits() public view returns (Credit[] memory) {\r\n        return users[msg.sender].allCredits;\r\n    }\r\n\r\n    function setFraudStatus(address _borrower) public onlyOwner returns (bool) {\r\n        users[_borrower].fraudStatus = true;\r\n        return users[_borrower].fraudStatus;\r\n    }\r\n\r\n    function changeCreditState (address _credit) public onlyOwner {\r\n        Credit credit = Credit(_credit);\r\n        bool active = credit.toggleActive();\r\n\r\n        emit CreditActiveChanged(credit, active, block.timestamp);\r\n    }\r\n\r\n    /** @dev Function for voting the borrower as fraudster.\r\n     */\r\n    function fraudVote(Credit _credit) external {\r\n       \r\n        Credit credit = Credit(_credit);\r\n        address[] memory lendersLog = credit.getLenders();\r\n        address borrower = creditsMap[_credit].borrower;\r\n        \r\n        for(uint lendersIndex = 0; lendersIndex < lendersLog.length; lendersIndex++){\r\n            require(msg.sender == lendersLog[lendersIndex], \"You arenot a lender\");\r\n            creditFraudVote[msg.sender][_credit] = true;\r\n            creditsMap[_credit].fraudVoteCount++;\r\n                \r\n            if(creditsMap[_credit].fraudVoteCount == lendersLog.length){\r\n                users[borrower].fraudStatus = true;\r\n\r\n                emit UserSetFraud(borrower, users[borrower].fraudStatus, block.timestamp);\r\n            }\r\n        }\r\n    }\r\n}",
  "sourcePath": "C:\\Users\\USER\\Desktop\\Projects\\Credit_and_staking\\contracts\\P2PLending.sol",
  "compiler": {
    "name": "solc",
    "version": "0.8.7+commit.e28d00a7.Emscripten.clang"
  },
  "schemaVersion": "3.4.6",
  "updatedAt": "2022-04-21T14:44:04.224Z",
  "devdoc": {
    "kind": "dev",
    "methods": {
      "fraudVote(address)": {
        "details": "Function for voting the borrower as fraudster."
      },
      "owner()": {
        "details": "Returns the address of the current owner."
      },
      "renounceOwnership()": {
        "details": "Leaves the contract without owner. It will not be possible to call `onlyOwner` functions anymore. Can only be called by the current owner. NOTE: Renouncing ownership will leave the contract without an owner, thereby removing any functionality that is only available to the owner."
      },
      "transferOwnership(address)": {
        "details": "Transfers ownership of the contract to a new account (`newOwner`). Can only be called by the current owner."
      }
    },
    "version": 1
  },
  "userdoc": {
    "kind": "user",
    "methods": {},
    "version": 1
  }
}