{
  "contractName": "PeerToPeerLending",
  "abi": [
    {
      "anonymous": false,
      "inputs": [
        {
          "indexed": true,
          "internalType": "contract Credit",
          "name": "_address",
          "type": "address"
        },
        {
          "indexed": true,
          "internalType": "bool",
          "name": "active",
          "type": "bool"
        },
        {
          "indexed": true,
          "internalType": "uint256",
          "name": "timestamp",
          "type": "uint256"
        }
      ],
      "name": "CreditActiveChanged",
      "type": "event"
    },
    {
      "anonymous": false,
      "inputs": [
        {
          "indexed": true,
          "internalType": "contract Credit",
          "name": "_address",
          "type": "address"
        },
        {
          "indexed": true,
          "internalType": "address",
          "name": "_borrower",
          "type": "address"
        },
        {
          "indexed": true,
          "internalType": "uint256",
          "name": "timestamp",
          "type": "uint256"
        }
      ],
      "name": "CreditCreated",
      "type": "event"
    },
    {
      "anonymous": false,
      "inputs": [
        {
          "indexed": true,
          "internalType": "address",
          "name": "previousOwner",
          "type": "address"
        },
        {
          "indexed": true,
          "internalType": "address",
          "name": "newOwner",
          "type": "address"
        }
      ],
      "name": "OwnershipTransferred",
      "type": "event"
    },
    {
      "anonymous": false,
      "inputs": [
        {
          "indexed": true,
          "internalType": "address",
          "name": "_address",
          "type": "address"
        },
        {
          "indexed": false,
          "internalType": "bool",
          "name": "fraudStatus",
          "type": "bool"
        },
        {
          "indexed": false,
          "internalType": "uint256",
          "name": "timestamp",
          "type": "uint256"
        }
      ],
      "name": "UserSetFraud",
      "type": "event"
    },
    {
      "inputs": [
        {
          "internalType": "uint256",
          "name": "",
          "type": "uint256"
        }
      ],
      "name": "creditlog",
      "outputs": [
        {
          "internalType": "uint256",
          "name": "requestedAmount",
          "type": "uint256"
        },
        {
          "internalType": "uint256",
          "name": "requestedRepayments",
          "type": "uint256"
        },
        {
          "internalType": "uint256",
          "name": "interest",
          "type": "uint256"
        },
        {
          "internalType": "string",
          "name": "description",
          "type": "string"
        },
        {
          "internalType": "address",
          "name": "borrower",
          "type": "address"
        },
        {
          "internalType": "uint256",
          "name": "fraudVoteCount",
          "type": "uint256"
        }
      ],
      "stateMutability": "view",
      "type": "function"
    },
    {
      "inputs": [
        {
          "internalType": "uint256",
          "name": "",
          "type": "uint256"
        }
      ],
      "name": "credits",
      "outputs": [
        {
          "internalType": "contract Credit",
          "name": "",
          "type": "address"
        }
      ],
      "stateMutability": "view",
      "type": "function"
    },
    {
      "inputs": [
        {
          "internalType": "contract Credit",
          "name": "",
          "type": "address"
        }
      ],
      "name": "creditsMap",
      "outputs": [
        {
          "internalType": "uint256",
          "name": "requestedAmount",
          "type": "uint256"
        },
        {
          "internalType": "uint256",
          "name": "requestedRepayments",
          "type": "uint256"
        },
        {
          "internalType": "uint256",
          "name": "interest",
          "type": "uint256"
        },
        {
          "internalType": "string",
          "name": "description",
          "type": "string"
        },
        {
          "internalType": "address",
          "name": "borrower",
          "type": "address"
        },
        {
          "internalType": "uint256",
          "name": "fraudVoteCount",
          "type": "uint256"
        }
      ],
      "stateMutability": "view",
      "type": "function"
    },
    {
      "inputs": [],
      "name": "owner",
      "outputs": [
        {
          "internalType": "address",
          "name": "",
          "type": "address"
        }
      ],
      "stateMutability": "view",
      "type": "function"
    },
    {
      "inputs": [],
      "name": "renounceOwnership",
      "outputs": [],
      "stateMutability": "nonpayable",
      "type": "function"
    },
    {
      "inputs": [
        {
          "internalType": "address",
          "name": "newOwner",
          "type": "address"
        }
      ],
      "name": "transferOwnership",
      "outputs": [],
      "stateMutability": "nonpayable",
      "type": "function"
    },
    {
      "inputs": [
        {
          "internalType": "address",
          "name": "",
          "type": "address"
        }
      ],
      "name": "users",
      "outputs": [
        {
          "internalType": "bool",
          "name": "credited",
          "type": "bool"
        },
        {
          "internalType": "contract Credit",
          "name": "activeCredit",
          "type": "address"
        },
        {
          "internalType": "bool",
          "name": "fraudStatus",
          "type": "bool"
        }
      ],
      "stateMutability": "view",
      "type": "function"
    },
    {
      "inputs": [
        {
          "internalType": "uint256",
          "name": "requestedAmount",
          "type": "uint256"
        },
        {
          "internalType": "uint256",
          "name": "repaymentsCount",
          "type": "uint256"
        },
        {
          "internalType": "uint256",
          "name": "interest",
          "type": "uint256"
        },
        {
          "internalType": "string",
          "name": "creditDescription",
          "type": "string"
        }
      ],
      "name": "applyForCredit",
      "outputs": [
        {
          "internalType": "contract Credit",
          "name": "_credit",
          "type": "address"
        }
      ],
      "stateMutability": "nonpayable",
      "type": "function"
    },
    {
      "inputs": [],
      "name": "getCredits",
      "outputs": [
        {
          "internalType": "contract Credit[]",
          "name": "",
          "type": "address[]"
        }
      ],
      "stateMutability": "view",
      "type": "function"
    },
    {
      "inputs": [],
      "name": "getUserCredits",
      "outputs": [
        {
          "internalType": "contract Credit[]",
          "name": "",
          "type": "address[]"
        }
      ],
      "stateMutability": "view",
      "type": "function"
    },
    {
      "inputs": [
        {
          "internalType": "address",
          "name": "_borrower",
          "type": "address"
        }
      ],
      "name": "setFraudStatus",
      "outputs": [
        {
          "internalType": "bool",
          "name": "",
          "type": "bool"
        }
      ],
      "stateMutability": "nonpayable",
      "type": "function"
    },
    {
      "inputs": [
        {
          "internalType": "address",
          "name": "_credit",
          "type": "address"
        }
      ],
      "name": "changeCreditState",
      "outputs": [],
      "stateMutability": "nonpayable",
      "type": "function"
    },
    {
      "inputs": [
        {
          "internalType": "contract Credit",
          "name": "_credit",
          "type": "address"
        }
      ],
      "name": "fraudVote",
      "outputs": [],
      "stateMutability": "nonpayable",
      "type": "function"
    }
  ],
  "bytecode": "0x608060405234801561001057600080fd5b5061002d61002261003260201b60201c565b61003a60201b60201c565b6100fe565b600033905090565b60008060009054906101000a900473ffffffffffffffffffffffffffffffffffffffff169050816000806101000a81548173ffffffffffffffffffffffffffffffffffffffff021916908373ffffffffffffffffffffffffffffffffffffffff1602179055508173ffffffffffffffffffffffffffffffffffffffff168173ffffffffffffffffffffffffffffffffffffffff167f8be0079c531659141344cd1fd0a4f28419497f9722a3daafe3b4186f6b6457e060405160405180910390a35050565b614b6b806200010e6000396000f3fe60806040523480156200001157600080fd5b5060043610620000e25760003560e01c80638da5cb5b1162000099578063bb9e4247116200006f578063bb9e42471462000258578063d159e7e0146200028e578063d2e397e714620002c9578063f2fde38b14620002e957620000e2565b80638da5cb5b14620001c8578063a87430ba14620001ea578063bb189ac2146200022257620000e2565b8063036a1c2214620000e75780632092cb33146200011d57806359658c48146200013f578063715018a6146200015f578063812aa8eb146200016b578063823a71af14620001a6575b600080fd5b620001056004803603810190620000ff91906200189c565b62000309565b60405162000114919062001bee565b60405180910390f35b6200012762000349565b60405162000136919062001b43565b60405180910390f35b6200015d6004803603810190620001579190620017b5565b62000419565b005b6200016962000575565b005b6200018960048036038101906200018391906200186a565b62000606565b6040516200019d9695949392919062001cd7565b60405180910390f35b620001b0620006f2565b604051620001bf919062001b43565b60405180910390f35b620001d262000782565b604051620001e1919062001b26565b60405180910390f35b620002086004803603810190620002029190620017b5565b620007ab565b604051620002199392919062001b84565b60405180910390f35b6200024060048036038101906200023a9190620018ce565b6200080f565b6040516200024f919062001bee565b60405180910390f35b620002766004803603810190620002709190620017b5565b62000e10565b60405162000285919062001b67565b60405180910390f35b620002ac6004803603810190620002a691906200189c565b62000ec4565b604051620002c09695949392919062001cd7565b60405180910390f35b620002e76004803603810190620002e191906200186a565b62000fc1565b005b620003076004803603810190620003019190620017b5565b620013a7565b005b600481815481106200031a57600080fd5b906000526020600020016000915054906101000a900473ffffffffffffffffffffffffffffffffffffffff1681565b6060600360003373ffffffffffffffffffffffffffffffffffffffff1673ffffffffffffffffffffffffffffffffffffffff1681526020019081526020016000206001018054806020026020016040519081016040528092919081815260200182805480156200040f57602002820191906000526020600020905b8160009054906101000a900473ffffffffffffffffffffffffffffffffffffffff1673ffffffffffffffffffffffffffffffffffffffff1681526020019060010190808311620003c4575b5050505050905090565b62000423620014ab565b73ffffffffffffffffffffffffffffffffffffffff166200044362000782565b73ffffffffffffffffffffffffffffffffffffffff16146200049c576040517f08c379a0000000000000000000000000000000000000000000000000000000008152600401620004939062001c2d565b60405180910390fd5b600081905060008173ffffffffffffffffffffffffffffffffffffffff166329c68dc16040518163ffffffff1660e01b8152600401602060405180830381600087803b158015620004ec57600080fd5b505af115801562000501573d6000803e3d6000fd5b505050506040513d601f19601f8201168201806040525081019062000527919062001838565b9050428115158373ffffffffffffffffffffffffffffffffffffffff167f71ce7686e91fa8c354084a1684940b6da2d63559a5e4652d1baf5c2c2a9dcfca60405160405180910390a4505050565b6200057f620014ab565b73ffffffffffffffffffffffffffffffffffffffff166200059f62000782565b73ffffffffffffffffffffffffffffffffffffffff1614620005f8576040517f08c379a0000000000000000000000000000000000000000000000000000000008152600401620005ef9062001c2d565b60405180910390fd5b620006046000620014b3565b565b60026020528060005260406000206000915090508060000154908060010154908060020154908060030180546200063d9062001ed7565b80601f01602080910402602001604051908101604052809291908181526020018280546200066b9062001ed7565b8015620006bc5780601f106200069057610100808354040283529160200191620006bc565b820191906000526020600020905b8154815290600101906020018083116200069e57829003601f168201915b5050505050908060040160009054906101000a900473ffffffffffffffffffffffffffffffffffffffff16908060050154905086565b606060048054806020026020016040519081016040528092919081815260200182805480156200077857602002820191906000526020600020905b8160009054906101000a900473ffffffffffffffffffffffffffffffffffffffff1673ffffffffffffffffffffffffffffffffffffffff16815260200190600101908083116200072d575b5050505050905090565b60008060009054906101000a900473ffffffffffffffffffffffffffffffffffffffff16905090565b60036020528060005260406000206000915090508060000160009054906101000a900460ff16908060000160019054906101000a900473ffffffffffffffffffffffffffffffffffffffff16908060000160159054906101000a900460ff16905083565b6000801515600360003373ffffffffffffffffffffffffffffffffffffffff1673ffffffffffffffffffffffffffffffffffffffff16815260200190815260200160002060000160009054906101000a900460ff161515146200087157600080fd5b60001515600360003373ffffffffffffffffffffffffffffffffffffffff1673ffffffffffffffffffffffffffffffffffffffff16815260200190815260200160002060000160159054906101000a900460ff16151514620008d257600080fd5b6001600360003373ffffffffffffffffffffffffffffffffffffffff1673ffffffffffffffffffffffffffffffffffffffff16815260200190815260200160002060000160006101000a81548160ff0219169083151502179055506000868686868633604051620009439062001577565b620009549695949392919062001c71565b604051809103906000f08015801562000971573d6000803e3d6000fd5b5090506000600260008373ffffffffffffffffffffffffffffffffffffffff1673ffffffffffffffffffffffffffffffffffffffff1681526020019081526020016000206040518060c0016040529081600082015481526020016001820154815260200160028201548152602001600382018054620009f09062001ed7565b80601f016020809104026020016040519081016040528092919081815260200182805462000a1e9062001ed7565b801562000a6f5780601f1062000a435761010080835404028352916020019162000a6f565b820191906000526020600020905b81548152906001019060200180831162000a5157829003601f168201915b505050505081526020016004820160009054906101000a900473ffffffffffffffffffffffffffffffffffffffff1673ffffffffffffffffffffffffffffffffffffffff1673ffffffffffffffffffffffffffffffffffffffff16815260200160058201548152505090506040518060c0016040528089815260200188815260200187815260200186868080601f016020809104026020016040519081016040528093929190818152602001838380828437600081840152601f19601f8201169050808301925050505050505081526020013373ffffffffffffffffffffffffffffffffffffffff168152602001600081525090506005819080600181540180825580915050600190039060005260206000209060060201600090919091909150600082015181600001556020820151816001015560408201518160020155606082015181600301908051906020019062000bcc92919062001585565b5060808201518160040160006101000a81548173ffffffffffffffffffffffffffffffffffffffff021916908373ffffffffffffffffffffffffffffffffffffffff16021790555060a08201518160050155505081600360003373ffffffffffffffffffffffffffffffffffffffff1673ffffffffffffffffffffffffffffffffffffffff16815260200190815260200160002060000160016101000a81548173ffffffffffffffffffffffffffffffffffffffff021916908373ffffffffffffffffffffffffffffffffffffffff1602179055506004829080600181540180825580915050600190039060005260206000200160009091909190916101000a81548173ffffffffffffffffffffffffffffffffffffffff021916908373ffffffffffffffffffffffffffffffffffffffff160217905550600360003373ffffffffffffffffffffffffffffffffffffffff1673ffffffffffffffffffffffffffffffffffffffff168152602001908152602001600020600101829080600181540180825580915050600190039060005260206000200160009091909190916101000a81548173ffffffffffffffffffffffffffffffffffffffff021916908373ffffffffffffffffffffffffffffffffffffffff160217905550423373ffffffffffffffffffffffffffffffffffffffff168373ffffffffffffffffffffffffffffffffffffffff167fbb23603d6f3f6ddbe10dbe70633e287a232c78acbccb239b11271844b5be8d7960405160405180910390a4819250505095945050505050565b60006001600360008473ffffffffffffffffffffffffffffffffffffffff1673ffffffffffffffffffffffffffffffffffffffff16815260200190815260200160002060000160156101000a81548160ff021916908315150217905550600360008373ffffffffffffffffffffffffffffffffffffffff1673ffffffffffffffffffffffffffffffffffffffff16815260200190815260200160002060000160159054906101000a900460ff169050919050565b6005818154811062000ed557600080fd5b906000526020600020906006020160009150905080600001549080600101549080600201549080600301805462000f0c9062001ed7565b80601f016020809104026020016040519081016040528092919081815260200182805462000f3a9062001ed7565b801562000f8b5780601f1062000f5f5761010080835404028352916020019162000f8b565b820191906000526020600020905b81548152906001019060200180831162000f6d57829003601f168201915b5050505050908060040160009054906101000a900473ffffffffffffffffffffffffffffffffffffffff16908060050154905086565b600081905060008173ffffffffffffffffffffffffffffffffffffffff1663829268756040518163ffffffff1660e01b815260040160006040518083038186803b1580156200100f57600080fd5b505afa15801562001024573d6000803e3d6000fd5b505050506040513d6000823e3d601f19601f820116820180604052508101906200104f9190620017e7565b90506000600260008573ffffffffffffffffffffffffffffffffffffffff1673ffffffffffffffffffffffffffffffffffffffff16815260200190815260200160002060040160009054906101000a900473ffffffffffffffffffffffffffffffffffffffff16905060005b8251811015620013a057828181518110620010db57620010da62001fef565b5b602002602001015173ffffffffffffffffffffffffffffffffffffffff163373ffffffffffffffffffffffffffffffffffffffff161462001153576040517f08c379a00000000000000000000000000000000000000000000000000000000081526004016200114a9062001c4f565b60405180910390fd5b60018060003373ffffffffffffffffffffffffffffffffffffffff1673ffffffffffffffffffffffffffffffffffffffff16815260200190815260200160002060008773ffffffffffffffffffffffffffffffffffffffff1673ffffffffffffffffffffffffffffffffffffffff16815260200190815260200160002060006101000a81548160ff021916908315150217905550600260008673ffffffffffffffffffffffffffffffffffffffff1673ffffffffffffffffffffffffffffffffffffffff16815260200190815260200160002060050160008154809291906200123c9062001f43565b91905055508251600260008773ffffffffffffffffffffffffffffffffffffffff1673ffffffffffffffffffffffffffffffffffffffff1681526020019081526020016000206005015414156200138a576001600360008473ffffffffffffffffffffffffffffffffffffffff1673ffffffffffffffffffffffffffffffffffffffff16815260200190815260200160002060000160156101000a81548160ff0219169083151502179055508173ffffffffffffffffffffffffffffffffffffffff167fe10f48804089cca7e3995c4d2eda1c3d12204999a90e2203893115592e9a65e4600360008573ffffffffffffffffffffffffffffffffffffffff1673ffffffffffffffffffffffffffffffffffffffff16815260200190815260200160002060000160159054906101000a900460ff16426040516200138192919062001bc1565b60405180910390a25b8080620013979062001f43565b915050620010bb565b5050505050565b620013b1620014ab565b73ffffffffffffffffffffffffffffffffffffffff16620013d162000782565b73ffffffffffffffffffffffffffffffffffffffff16146200142a576040517f08c379a0000000000000000000000000000000000000000000000000000000008152600401620014219062001c2d565b60405180910390fd5b600073ffffffffffffffffffffffffffffffffffffffff168173ffffffffffffffffffffffffffffffffffffffff1614156200149d576040517f08c379a0000000000000000000000000000000000000000000000000000000008152600401620014949062001c0b565b60405180910390fd5b620014a881620014b3565b50565b600033905090565b60008060009054906101000a900473ffffffffffffffffffffffffffffffffffffffff169050816000806101000a81548173ffffffffffffffffffffffffffffffffffffffff021916908373ffffffffffffffffffffffffffffffffffffffff1602179055508173ffffffffffffffffffffffffffffffffffffffff168173ffffffffffffffffffffffffffffffffffffffff167f8be0079c531659141344cd1fd0a4f28419497f9722a3daafe3b4186f6b6457e060405160405180910390a35050565b6129b5806200218183390190565b828054620015939062001ed7565b90600052602060002090601f016020900481019282620015b7576000855562001603565b82601f10620015d257805160ff191683800117855562001603565b8280016001018555821562001603579182015b8281111562001602578251825591602001919060010190620015e5565b5b50905062001612919062001616565b5090565b5b808211156200163157600081600090555060010162001617565b5090565b60006200164c620016468462001d74565b62001d4b565b9050808382526020820190508285602086028201111562001672576200167162002057565b5b60005b85811015620016a657816200168b8882620016c7565b84526020840193506020830192505060018101905062001675565b5050509392505050565b600081359050620016c18162002118565b92915050565b600081519050620016d88162002118565b92915050565b600082601f830112620016f657620016f562002052565b5b81516200170884826020860162001635565b91505092915050565b600081519050620017228162002132565b92915050565b60008135905062001739816200214c565b92915050565b60008083601f84011262001758576200175762002052565b5b8235905067ffffffffffffffff8111156200177857620017776200204d565b5b60208301915083600182028301111562001797576200179662002057565b5b9250929050565b600081359050620017af8162002166565b92915050565b600060208284031215620017ce57620017cd62002061565b5b6000620017de84828501620016b0565b91505092915050565b6000602082840312156200180057620017ff62002061565b5b600082015167ffffffffffffffff8111156200182157620018206200205c565b5b6200182f84828501620016de565b91505092915050565b60006020828403121562001851576200185062002061565b5b6000620018618482850162001711565b91505092915050565b60006020828403121562001883576200188262002061565b5b6000620018938482850162001728565b91505092915050565b600060208284031215620018b557620018b462002061565b5b6000620018c5848285016200179e565b91505092915050565b600080600080600060808688031215620018ed57620018ec62002061565b5b6000620018fd888289016200179e565b955050602062001910888289016200179e565b945050604062001923888289016200179e565b935050606086013567ffffffffffffffff8111156200194757620019466200205c565b5b62001955888289016200173f565b92509250509295509295909350565b600062001972838362001a0a565b60208301905092915050565b620019898162001df8565b82525050565b60006200199c8262001db3565b620019a8818562001dd6565b9350620019b58362001da3565b8060005b83811015620019ec578151620019d0888262001964565b9750620019dd8362001dc9565b925050600181019050620019b9565b5085935050505092915050565b62001a048162001e0c565b82525050565b62001a158162001e56565b82525050565b62001a268162001e56565b82525050565b600062001a3a838562001de7565b935062001a4983858462001e92565b62001a548362002066565b840190509392505050565b600062001a6c8262001dbe565b62001a78818562001de7565b935062001a8a81856020860162001ea1565b62001a958162002066565b840191505092915050565b600062001aaf60268362001de7565b915062001abc8262002077565b604082019050919050565b600062001ad660208362001de7565b915062001ae382620020c6565b602082019050919050565b600062001afd60138362001de7565b915062001b0a82620020ef565b602082019050919050565b62001b208162001e4c565b82525050565b600060208201905062001b3d60008301846200197e565b92915050565b6000602082019050818103600083015262001b5f81846200198f565b905092915050565b600060208201905062001b7e6000830184620019f9565b92915050565b600060608201905062001b9b6000830186620019f9565b62001baa602083018562001a1b565b62001bb96040830184620019f9565b949350505050565b600060408201905062001bd86000830185620019f9565b62001be7602083018462001b15565b9392505050565b600060208201905062001c05600083018462001a1b565b92915050565b6000602082019050818103600083015262001c268162001aa0565b9050919050565b6000602082019050818103600083015262001c488162001ac7565b9050919050565b6000602082019050818103600083015262001c6a8162001aee565b9050919050565b600060a08201905062001c88600083018962001b15565b62001c97602083018862001b15565b62001ca6604083018762001b15565b818103606083015262001cbb81858762001a2c565b905062001ccc60808301846200197e565b979650505050505050565b600060c08201905062001cee600083018962001b15565b62001cfd602083018862001b15565b62001d0c604083018762001b15565b818103606083015262001d20818662001a5f565b905062001d3160808301856200197e565b62001d4060a083018462001b15565b979650505050505050565b600062001d5762001d6a565b905062001d65828262001f0d565b919050565b6000604051905090565b600067ffffffffffffffff82111562001d925762001d916200201e565b5b602082029050602081019050919050565b6000819050602082019050919050565b600081519050919050565b600081519050919050565b6000602082019050919050565b600082825260208201905092915050565b600082825260208201905092915050565b600062001e058262001e2c565b9050919050565b60008115159050919050565b600062001e258262001df8565b9050919050565b600073ffffffffffffffffffffffffffffffffffffffff82169050919050565b6000819050919050565b600062001e638262001e6a565b9050919050565b600062001e778262001e7e565b9050919050565b600062001e8b8262001e2c565b9050919050565b82818337600083830152505050565b60005b8381101562001ec157808201518184015260208101905062001ea4565b8381111562001ed1576000848401525b50505050565b6000600282049050600182168062001ef057607f821691505b6020821081141562001f075762001f0662001fc0565b5b50919050565b62001f188262002066565b810181811067ffffffffffffffff8211171562001f3a5762001f396200201e565b5b80604052505050565b600062001f508262001e4c565b91507fffffffffffffffffffffffffffffffffffffffffffffffffffffffffffffffff82141562001f865762001f8562001f91565b5b600182019050919050565b7f4e487b7100000000000000000000000000000000000000000000000000000000600052601160045260246000fd5b7f4e487b7100000000000000000000000000000000000000000000000000000000600052602260045260246000fd5b7f4e487b7100000000000000000000000000000000000000000000000000000000600052603260045260246000fd5b7f4e487b7100000000000000000000000000000000000000000000000000000000600052604160045260246000fd5b600080fd5b600080fd5b600080fd5b600080fd5b600080fd5b6000601f19601f8301169050919050565b7f4f776e61626c653a206e6577206f776e657220697320746865207a65726f206160008201527f6464726573730000000000000000000000000000000000000000000000000000602082015250565b7f4f776e61626c653a2063616c6c6572206973206e6f7420746865206f776e6572600082015250565b7f596f75206172656e6f742061206c656e64657200000000000000000000000000600082015250565b620021238162001df8565b81146200212f57600080fd5b50565b6200213d8162001e0c565b81146200214957600080fd5b50565b620021578162001e18565b81146200216357600080fd5b50565b620021718162001e4c565b81146200217d57600080fd5b5056fe60806040526000600c556000600d556001426200001d919062000541565b600e556001601060006101000a81548160ff0219169083151502179055503480156200004857600080fd5b50604051620029b5380380620029b583398181016040528101906200006e91906200043b565b6200008e62000082620001e360201b60201c565b620001eb60201b60201c565b80600260006101000a81548173ffffffffffffffffffffffffffffffffffffffff021916908373ffffffffffffffffffffffffffffffffffffffff1602179055508260068190555084600381905550836007819055508360088190555062000109600654600354620002af60201b6200188f1790919060201c565b6004819055506200012d600754600454620002c760201b620018a51790919060201c565b60098190555081600f90805190602001906200014b929190620002df565b5042600a8190555033600160006101000a81548173ffffffffffffffffffffffffffffffffffffffff021916908373ffffffffffffffffffffffffffffffffffffffff160217905550428173ffffffffffffffffffffffffffffffffffffffff167fd6b0a532be6a7986b9de41fbbf991ac71079eb4c48f5f46913a7e16f194ddb6e60405160405180910390a35050505050620007cb565b600033905090565b60008060009054906101000a900473ffffffffffffffffffffffffffffffffffffffff169050816000806101000a81548173ffffffffffffffffffffffffffffffffffffffff021916908373ffffffffffffffffffffffffffffffffffffffff1602179055508173ffffffffffffffffffffffffffffffffffffffff168173ffffffffffffffffffffffffffffffffffffffff167f8be0079c531659141344cd1fd0a4f28419497f9722a3daafe3b4186f6b6457e060405160405180910390a35050565b60008183620002bf919062000541565b905092915050565b60008183620002d791906200059e565b905092915050565b828054620002ed906200064a565b90600052602060002090601f0160209004810192826200031157600085556200035d565b82601f106200032c57805160ff19168380011785556200035d565b828001600101855582156200035d579182015b828111156200035c5782518255916020019190600101906200033f565b5b5090506200036c919062000370565b5090565b5b808211156200038b57600081600090555060010162000371565b5090565b6000620003a6620003a0846200050b565b620004e2565b905082815260208101848484011115620003c557620003c462000777565b5b620003d284828562000614565b509392505050565b600081519050620003eb8162000797565b92915050565b600082601f83011262000409576200040862000772565b5b81516200041b8482602086016200038f565b91505092915050565b6000815190506200043581620007b1565b92915050565b600080600080600060a086880312156200045a576200045962000781565b5b60006200046a8882890162000424565b95505060206200047d8882890162000424565b9450506040620004908882890162000424565b935050606086015167ffffffffffffffff811115620004b457620004b36200077c565b5b620004c288828901620003f1565b9250506080620004d588828901620003da565b9150509295509295909350565b6000620004ee62000501565b9050620004fc828262000680565b919050565b6000604051905090565b600067ffffffffffffffff82111562000529576200052862000743565b5b620005348262000786565b9050602081019050919050565b60006200054e826200060a565b91506200055b836200060a565b9250827fffffffffffffffffffffffffffffffffffffffffffffffffffffffffffffffff03821115620005935762000592620006b6565b5b828201905092915050565b6000620005ab826200060a565b9150620005b8836200060a565b925082620005cb57620005ca620006e5565b5b828204905092915050565b6000620005e382620005ea565b9050919050565b600073ffffffffffffffffffffffffffffffffffffffff82169050919050565b6000819050919050565b60005b838110156200063457808201518184015260208101905062000617565b8381111562000644576000848401525b50505050565b600060028204905060018216806200066357607f821691505b602082108114156200067a576200067962000714565b5b50919050565b6200068b8262000786565b810181811067ffffffffffffffff82111715620006ad57620006ac62000743565b5b80604052505050565b7f4e487b7100000000000000000000000000000000000000000000000000000000600052601160045260246000fd5b7f4e487b7100000000000000000000000000000000000000000000000000000000600052601260045260246000fd5b7f4e487b7100000000000000000000000000000000000000000000000000000000600052602260045260246000fd5b7f4e487b7100000000000000000000000000000000000000000000000000000000600052604160045260246000fd5b600080fd5b600080fd5b600080fd5b600080fd5b6000601f19601f8301169050919050565b620007a281620005d6565b8114620007ae57600080fd5b50565b620007bc816200060a565b8114620007c857600080fd5b50565b6121da80620007db6000396000f3fe6080604052600436106100f35760003560e01c80636e021df71161008a578063e8b5e51f11610059578063e8b5e51f146102ad578063efd475ab146102b7578063f06817cf146102ce578063f2fde38b14610303576100f3565b80636e021df714610203578063715018a61461024057806382926875146102575780638da5cb5b14610282576100f3565b80633ccfd60b116100c65780633ccfd60b146101b4578063402d8883146101cb57806343c14b22146101d5578063590e1ae3146101ec576100f3565b806312065fe0146100f8578063268f11531461012357806328fd10d71461014c57806329c68dc114610189575b600080fd5b34801561010457600080fd5b5061010d61032c565b60405161011a9190611d69565b60405180910390f35b34801561012f57600080fd5b5061014a60048036038101906101459190611a85565b610334565b005b34801561015857600080fd5b50610173600480360381019061016e9190611a58565b61042c565b6040516101809190611d0e565b60405180910390f35b34801561019557600080fd5b5061019e61044c565b6040516101ab9190611d0e565b60405180910390f35b3480156101c057600080fd5b506101c9610548565b005b6101d361073b565b005b3480156101e157600080fd5b506101ea6109cf565b005b3480156101f857600080fd5b50610201610bbb565b005b34801561020f57600080fd5b5061022a60048036038101906102259190611ab2565b610eae565b6040516102379190611c1f565b60405180910390f35b34801561024c57600080fd5b50610255610eed565b005b34801561026357600080fd5b5061026c610f75565b6040516102799190611cec565b60405180910390f35b34801561028e57600080fd5b5061029761107f565b6040516102a49190611c1f565b60405180910390f35b6102b56110a8565b005b3480156102c357600080fd5b506102cc6113e3565b005b3480156102da57600080fd5b506102e361167e565b6040516102fa9b9a99989796959493929190611c3a565b60405180910390f35b34801561030f57600080fd5b5061032a60048036038101906103259190611a58565b611797565b005b600047905090565b61033c6118bb565b73ffffffffffffffffffffffffffffffffffffffff1661035a61107f565b73ffffffffffffffffffffffffffffffffffffffff16146103b0576040517f08c379a00000000000000000000000000000000000000000000000000000000081526004016103a790611d49565b60405180910390fd5b80600060146101000a81548160ff021916908360058111156103d5576103d4612066565b5b021790555042600060149054906101000a900460ff1660058111156103fd576103fc612066565b5b7fa1f57b4d2e1dbc2fb780a8bf1d654bff435e9ae4d78f0090aa1424de456e1aa260405160405180910390a350565b60126020528060005260406000206000915054906101000a900460ff1681565b60006104566118bb565b73ffffffffffffffffffffffffffffffffffffffff1661047461107f565b73ffffffffffffffffffffffffffffffffffffffff16146104ca576040517f08c379a00000000000000000000000000000000000000000000000000000000081526004016104c190611d49565b60405180910390fd5b601060009054906101000a900460ff1615601060006101000a81548160ff02191690831515021790555042601060009054906101000a900460ff1615157f8fcb8b9c907c3d63d35e1f35de0ecdc8618c3b3d752a1fd7ea77292f7789124660405160405180910390a3601060009054906101000a900460ff16905090565b60011515601060009054906101000a900460ff1615151461056857600080fd5b600260009054906101000a900473ffffffffffffffffffffffffffffffffffffffff1673ffffffffffffffffffffffffffffffffffffffff163373ffffffffffffffffffffffffffffffffffffffff16146105c257600080fd5b6003544710156105d157600080fd5b6005808111156105e4576105e3612066565b5b600060149054906101000a900460ff16600581111561060657610605612066565b5b141561061157600080fd5b6001600060146101000a81548160ff0219169083600581111561063757610636612066565b5b021790555042600060149054906101000a900460ff16600581111561065f5761065e612066565b5b7fa1f57b4d2e1dbc2fb780a8bf1d654bff435e9ae4d78f0090aa1424de456e1aa260405160405180910390a342473373ffffffffffffffffffffffffffffffffffffffff167f7dc4c37201ed56b6c6e0a05290eb94e64040786a508fff228cf7f79423b643c560405160405180910390a4600260009054906101000a900473ffffffffffffffffffffffffffffffffffffffff1673ffffffffffffffffffffffffffffffffffffffff166108fc479081150290604051600060405180830381858888f19350505050158015610738573d6000803e3d6000fd5b50565b600260009054906101000a900473ffffffffffffffffffffffffffffffffffffffff1673ffffffffffffffffffffffffffffffffffffffff163373ffffffffffffffffffffffffffffffffffffffff161461079557600080fd5b600160058111156107a9576107a8612066565b5b600060149054906101000a900460ff1660058111156107cb576107ca612066565b5b146107d557600080fd5b6000600854116107e457600080fd5b6009543410156107f357600080fd5b6008600081548092919061080690611f34565b919050555042600b81905550600060095434111561087d57610833600954346118c390919063ffffffff16565b90503373ffffffffffffffffffffffffffffffffffffffff166108fc829081150290604051600060405180830381858888f1935050505015801561087b573d6000803e3d6000fd5b505b4261089182346118c390919063ffffffff16565b3373ffffffffffffffffffffffffffffffffffffffff167f3fb95d44e159e2cf279d6cb5fd3d694601f47aa11311cf0db500354af34518a760405160405180910390a46108fb6108ea82346118c390919063ffffffff16565b60055461188f90919063ffffffff16565b60058190555060045460055414156109cc57423373ffffffffffffffffffffffffffffffffffffffff167f88c3c6dc70a5cff89078a4ab563dafce790b6f69d88c77fd2bbe7a4d53f12b7060405160405180910390a36002600060146101000a81548160ff0219169083600581111561097757610976612066565b5b021790555042600060149054906101000a900460ff16600581111561099f5761099e612066565b5b7fa1f57b4d2e1dbc2fb780a8bf1d654bff435e9ae4d78f0090aa1424de456e1aa260405160405180910390a35b50565b60011515601060009054906101000a900460ff161515146109ef57600080fd5b600e544210156109fe57600080fd5b60006005811115610a1257610a11612066565b5b600060149054906101000a900460ff166005811115610a3457610a33612066565b5b14610a3e57600080fd5b60011515601260003373ffffffffffffffffffffffffffffffffffffffff1673ffffffffffffffffffffffffffffffffffffffff16815260200190815260200160002060009054906101000a900460ff16151514610a9b57600080fd5b60001515601160003373ffffffffffffffffffffffffffffffffffffffff1673ffffffffffffffffffffffffffffffffffffffff16815260200190815260200160002060009054906101000a900460ff16151514610af857600080fd5b600d6000815480929190610b0b90611f90565b919050555060011515601160003373ffffffffffffffffffffffffffffffffffffffff1673ffffffffffffffffffffffffffffffffffffffff16815260200190815260200160002060009054906101000a90505050423373ffffffffffffffffffffffffffffffffffffffff167fe34f4c35680db62badf230c91431ddb53698ee30e6291e7ba2c29e87083fa53160405160405180910390a3600d54600c541415610bb957610bb86118d9565b5b565b60011515601060009054906101000a900460ff16151514610bdb57600080fd5b60011515601260003373ffffffffffffffffffffffffffffffffffffffff1673ffffffffffffffffffffffffffffffffffffffff16815260200190815260200160002060009054906101000a900460ff16151514610c3857600080fd5b60046005811115610c4c57610c4b612066565b5b600060149054906101000a900460ff166005811115610c6e57610c6d612066565b5b14610c7857600080fd5b601360003373ffffffffffffffffffffffffffffffffffffffff1673ffffffffffffffffffffffffffffffffffffffff16815260200190815260200160002054471015610cc457600080fd5b3373ffffffffffffffffffffffffffffffffffffffff166108fc601360003373ffffffffffffffffffffffffffffffffffffffff1673ffffffffffffffffffffffffffffffffffffffff168152602001908152602001600020549081150290604051600060405180830381858888f19350505050158015610d49573d6000803e3d6000fd5b5042601360003373ffffffffffffffffffffffffffffffffffffffff1673ffffffffffffffffffffffffffffffffffffffff168152602001908152602001600020543373ffffffffffffffffffffffffffffffffffffffff167fe7afe2021ef5a8fe5e543b38f37e6a7799d26907b92fb1e3d24dd7a06e74ff6760405160405180910390a46000471415610eac576000601060006101000a81548160ff02191690831515021790555042601060009054906101000a900460ff1615157f8fcb8b9c907c3d63d35e1f35de0ecdc8618c3b3d752a1fd7ea77292f7789124660405160405180910390a36003600060146101000a81548160ff02191690836005811115610e5757610e56612066565b5b021790555042600060149054906101000a900460ff166005811115610e7f57610e7e612066565b5b7fa1f57b4d2e1dbc2fb780a8bf1d654bff435e9ae4d78f0090aa1424de456e1aa260405160405180910390a35b565b60148181548110610ebe57600080fd5b906000526020600020016000915054906101000a900473ffffffffffffffffffffffffffffffffffffffff1681565b610ef56118bb565b73ffffffffffffffffffffffffffffffffffffffff16610f1361107f565b73ffffffffffffffffffffffffffffffffffffffff1614610f69576040517f08c379a0000000000000000000000000000000000000000000000000000000008152600401610f6090611d49565b60405180910390fd5b610f736000611955565b565b6060610f7f6118bb565b73ffffffffffffffffffffffffffffffffffffffff16610f9d61107f565b73ffffffffffffffffffffffffffffffffffffffff1614610ff3576040517f08c379a0000000000000000000000000000000000000000000000000000000008152600401610fea90611d49565b60405180910390fd5b601480548060200260200160405190810160405280929190818152602001828054801561107557602002820191906000526020600020905b8160009054906101000a900473ffffffffffffffffffffffffffffffffffffffff1673ffffffffffffffffffffffffffffffffffffffff168152602001906001019080831161102b575b5050505050905090565b60008060009054906101000a900473ffffffffffffffffffffffffffffffffffffffff16905090565b600060058111156110bc576110bb612066565b5b600060149054906101000a900460ff1660058111156110de576110dd612066565b5b146110e857600080fd5b6000600354471061121b57611108600354476118c390919063ffffffff16565b905060008111156111a0573373ffffffffffffffffffffffffffffffffffffffff166108fc829081150290604051600060405180830381858888f19350505050158015611159573d6000803e3d6000fd5b5042813373ffffffffffffffffffffffffffffffffffffffff167f2e2503bd032926fd7c2f6f2e1779b83841a24ab4d41accf43c89793c26f4cf6d60405160405180910390a45b6001600060146101000a81548160ff021916908360058111156111c6576111c5612066565b5b021790555042600060149054906101000a900460ff1660058111156111ee576111ed612066565b5b7fa1f57b4d2e1dbc2fb780a8bf1d654bff435e9ae4d78f0090aa1424de456e1aa260405160405180910390a35b6001601260003373ffffffffffffffffffffffffffffffffffffffff1673ffffffffffffffffffffffffffffffffffffffff16815260200190815260200160002060006101000a81548160ff0219169083151502179055506014339080600181540180825580915050600190039060005260206000200160009091909190916101000a81548173ffffffffffffffffffffffffffffffffffffffff021916908373ffffffffffffffffffffffffffffffffffffffff160217905550600c60008154809291906112e990611f90565b919050555061135261130482346118c390919063ffffffff16565b601360003373ffffffffffffffffffffffffffffffffffffffff1673ffffffffffffffffffffffffffffffffffffffff1681526020019081526020016000205461188f90919063ffffffff16565b601360003373ffffffffffffffffffffffffffffffffffffffff1673ffffffffffffffffffffffffffffffffffffffff16815260200190815260200160002081905550426113a982346118c390919063ffffffff16565b7f90ba96906dd7ba676e83e5be593cbf08e08ae7af573a546478e7e61526fb68fa336040516113d89190611c1f565b60405180910390a350565b60011515601060009054906101000a900460ff1615151461140357600080fd5b60011515601260003373ffffffffffffffffffffffffffffffffffffffff1673ffffffffffffffffffffffffffffffffffffffff16815260200190815260200160002060009054906101000a900460ff1615151461146057600080fd5b6002600581111561147457611473612066565b5b600060149054906101000a900460ff16600581111561149657611495612066565b5b146114a057600080fd5b6000601360003373ffffffffffffffffffffffffffffffffffffffff1673ffffffffffffffffffffffffffffffffffffffff16815260200190815260200160002054116114ec57600080fd5b6000600c546004546114fe9190611e2f565b90508047101561151157611510611fd9565b5b3373ffffffffffffffffffffffffffffffffffffffff166108fc829081150290604051600060405180830381858888f19350505050158015611557573d6000803e3d6000fd5b5042813373ffffffffffffffffffffffffffffffffffffffff167f87a3bdf95d74f9ddbb5e43fa19605b0f0610ff18829384e905031dc75d85a3b260405160405180910390a4600047141561167b576000601060006101000a81548160ff02191690831515021790555042601060009054906101000a900460ff1615157f8fcb8b9c907c3d63d35e1f35de0ecdc8618c3b3d752a1fd7ea77292f7789124660405160405180910390a36003600060146101000a81548160ff0219169083600581111561162657611625612066565b5b021790555042600060149054906101000a900460ff16600581111561164e5761164d612066565b5b7fa1f57b4d2e1dbc2fb780a8bf1d654bff435e9ae4d78f0090aa1424de456e1aa260405160405180910390a35b50565b600060606000806000806000806000806000600260009054906101000a900473ffffffffffffffffffffffffffffffffffffffff16600f600354600754600954600854600654600454600060149054906101000a900460ff16601060009054906101000a900460ff16478980546116f490611f5e565b80601f016020809104026020016040519081016040528092919081815260200182805461172090611f5e565b801561176d5780601f106117425761010080835404028352916020019161176d565b820191906000526020600020905b81548152906001019060200180831161175057829003601f168201915b505050505099509a509a509a509a509a509a509a509a509a509a509a50909192939495969798999a565b61179f6118bb565b73ffffffffffffffffffffffffffffffffffffffff166117bd61107f565b73ffffffffffffffffffffffffffffffffffffffff1614611813576040517f08c379a000000000000000000000000000000000000000000000000000000000815260040161180a90611d49565b60405180910390fd5b600073ffffffffffffffffffffffffffffffffffffffff168173ffffffffffffffffffffffffffffffffffffffff161415611883576040517f08c379a000000000000000000000000000000000000000000000000000000000815260040161187a90611d29565b60405180910390fd5b61188c81611955565b50565b6000818361189d9190611dd9565b905092915050565b600081836118b39190611e2f565b905092915050565b600033905090565b600081836118d19190611e60565b905092915050565b6004600060146101000a81548160ff021916908360058111156118ff576118fe612066565b5b021790555042600060149054906101000a900460ff16600581111561192757611926612066565b5b7fa1f57b4d2e1dbc2fb780a8bf1d654bff435e9ae4d78f0090aa1424de456e1aa260405160405180910390a3565b60008060009054906101000a900473ffffffffffffffffffffffffffffffffffffffff169050816000806101000a81548173ffffffffffffffffffffffffffffffffffffffff021916908373ffffffffffffffffffffffffffffffffffffffff1602179055508173ffffffffffffffffffffffffffffffffffffffff168173ffffffffffffffffffffffffffffffffffffffff167f8be0079c531659141344cd1fd0a4f28419497f9722a3daafe3b4186f6b6457e060405160405180910390a35050565b600081359050611a2881612166565b92915050565b600081359050611a3d8161217d565b92915050565b600081359050611a528161218d565b92915050565b600060208284031215611a6e57611a6d6120c4565b5b6000611a7c84828501611a19565b91505092915050565b600060208284031215611a9b57611a9a6120c4565b5b6000611aa984828501611a2e565b91505092915050565b600060208284031215611ac857611ac76120c4565b5b6000611ad684828501611a43565b91505092915050565b6000611aeb8383611af7565b60208301905092915050565b611b0081611e94565b82525050565b611b0f81611e94565b82525050565b6000611b2082611d94565b611b2a8185611db7565b9350611b3583611d84565b8060005b83811015611b66578151611b4d8882611adf565b9750611b5883611daa565b925050600181019050611b39565b5085935050505092915050565b611b7c81611ea6565b82525050565b611b8b81611eef565b82525050565b6000611b9c82611d9f565b611ba68185611dc8565b9350611bb6818560208601611f01565b611bbf816120c9565b840191505092915050565b6000611bd7602683611dc8565b9150611be2826120da565b604082019050919050565b6000611bfa602083611dc8565b9150611c0582612129565b602082019050919050565b611c1981611ee5565b82525050565b6000602082019050611c346000830184611b06565b92915050565b600061016082019050611c50600083018e611b06565b8181036020830152611c62818d611b91565b9050611c71604083018c611c10565b611c7e606083018b611c10565b611c8b608083018a611c10565b611c9860a0830189611c10565b611ca560c0830188611c10565b611cb260e0830187611c10565b611cc0610100830186611b82565b611cce610120830185611b73565b611cdc610140830184611c10565b9c9b505050505050505050505050565b60006020820190508181036000830152611d068184611b15565b905092915050565b6000602082019050611d236000830184611b73565b92915050565b60006020820190508181036000830152611d4281611bca565b9050919050565b60006020820190508181036000830152611d6281611bed565b9050919050565b6000602082019050611d7e6000830184611c10565b92915050565b6000819050602082019050919050565b600081519050919050565b600081519050919050565b6000602082019050919050565b600082825260208201905092915050565b600082825260208201905092915050565b6000611de482611ee5565b9150611def83611ee5565b9250827fffffffffffffffffffffffffffffffffffffffffffffffffffffffffffffffff03821115611e2457611e23612008565b5b828201905092915050565b6000611e3a82611ee5565b9150611e4583611ee5565b925082611e5557611e54612037565b5b828204905092915050565b6000611e6b82611ee5565b9150611e7683611ee5565b925082821015611e8957611e88612008565b5b828203905092915050565b6000611e9f82611ec5565b9050919050565b60008115159050919050565b6000819050611ec082612152565b919050565b600073ffffffffffffffffffffffffffffffffffffffff82169050919050565b6000819050919050565b6000611efa82611eb2565b9050919050565b60005b83811015611f1f578082015181840152602081019050611f04565b83811115611f2e576000848401525b50505050565b6000611f3f82611ee5565b91506000821415611f5357611f52612008565b5b600182039050919050565b60006002820490506001821680611f7657607f821691505b60208210811415611f8a57611f89612095565b5b50919050565b6000611f9b82611ee5565b91507fffffffffffffffffffffffffffffffffffffffffffffffffffffffffffffffff821415611fce57611fcd612008565b5b600182019050919050565b7f4e487b7100000000000000000000000000000000000000000000000000000000600052600160045260246000fd5b7f4e487b7100000000000000000000000000000000000000000000000000000000600052601160045260246000fd5b7f4e487b7100000000000000000000000000000000000000000000000000000000600052601260045260246000fd5b7f4e487b7100000000000000000000000000000000000000000000000000000000600052602160045260246000fd5b7f4e487b7100000000000000000000000000000000000000000000000000000000600052602260045260246000fd5b600080fd5b6000601f19601f8301169050919050565b7f4f776e61626c653a206e6577206f776e657220697320746865207a65726f206160008201527f6464726573730000000000000000000000000000000000000000000000000000602082015250565b7f4f776e61626c653a2063616c6c6572206973206e6f7420746865206f776e6572600082015250565b6006811061216357612162612066565b5b50565b61216f81611e94565b811461217a57600080fd5b50565b6006811061218a57600080fd5b50565b61219681611ee5565b81146121a157600080fd5b5056fea2646970667358221220d45b5b2bb3ff0fce8097fb99b55b0dcefeecb0e9d2a5e5b543ee6e91e64540fd64736f6c63430008070033a2646970667358221220b1dc686d89f0c15e633781663a94ba093c6af5a089deea113ecb5fd80900067464736f6c63430008070033",
  "immutableReferences": {},
  "source": "pragma solidity 0.8.7;\r\npragma experimental ABIEncoderV2;\r\n\r\nimport \"@openzeppelin/contracts/utils/math/SafeMath.sol\";\r\nimport \"@openzeppelin/contracts/access/Ownable.sol\";\r\nimport \"./Credit.sol\";\r\n\r\ncontract PeerToPeerLending is Ownable  {\r\n\r\n    using SafeMath for uint;\r\n\r\n    struct Credits {\r\n        uint requestedAmount;\r\n        uint requestedRepayments;\r\n        uint interest;\r\n        string description;\r\n        address borrower;\r\n        uint fraudVoteCount;\r\n    }\r\n\r\n    struct User {\r\n        bool credited;\r\n        Credit activeCredit;\r\n        bool fraudStatus;\r\n        Credit[] allCredits;\r\n    }\r\n\r\n    mapping (address => mapping (Credit => bool)) creditFraudVote;\r\n    mapping (Credit => Credits) public creditsMap;\r\n    mapping(address => User) public users;\r\n    \r\n    Credit[] public credits;\r\n    Credits[] public creditlog;\r\n\r\n    event CreditCreated(Credit indexed _address, address indexed _borrower, uint indexed timestamp);\r\n    event CreditActiveChanged(Credit indexed _address, bool indexed active, uint indexed timestamp);\r\n    event UserSetFraud(address indexed _address, bool fraudStatus, uint timestamp);\r\n\r\n\r\n    function applyForCredit(uint requestedAmount, uint repaymentsCount, uint interest, string calldata creditDescription) public returns(Credit _credit) {\r\n        require(users[msg.sender].credited == false);\r\n\r\n        require(users[msg.sender].fraudStatus == false);\r\n\r\n        users[msg.sender].credited = true;\r\n\r\n        Credit credit = new Credit(requestedAmount, repaymentsCount, interest, creditDescription, msg.sender);\r\n\r\n        Credits memory newCredits = creditsMap[credit];\r\n\r\n        newCredits = Credits(requestedAmount, repaymentsCount, interest, creditDescription, msg.sender, 0);\r\n\r\n        creditlog.push(newCredits);\r\n\r\n        users[msg.sender].activeCredit = credit;\r\n\r\n        credits.push(credit);\r\n\r\n        users[msg.sender].allCredits.push(credit);\r\n\r\n        emit CreditCreated(credit, msg.sender, block.timestamp);\r\n\r\n        return credit;\r\n    }\r\n\r\n    function getCredits() public view returns (Credit[] memory) {\r\n        return credits;\r\n    }\r\n\r\n    function getUserCredits() public view returns (Credit[] memory) {\r\n        return users[msg.sender].allCredits;\r\n    }\r\n\r\n    function setFraudStatus(address _borrower) public returns (bool) {\r\n        // Update user fraud status.\r\n        users[_borrower].fraudStatus = true;\r\n\r\n        return users[_borrower].fraudStatus;\r\n    }\r\n\r\n    function changeCreditState (address _credit) public onlyOwner {\r\n        Credit credit = Credit(_credit);\r\n        bool active = credit.toggleActive();\r\n\r\n        emit CreditActiveChanged(credit, active, block.timestamp);\r\n    }\r\n\r\n    /** @dev Function for voting the borrower as fraudster.\r\n     */\r\n    function fraudVote(Credit _credit) external {\r\n       \r\n        Credit credit = Credit(_credit);\r\n        address[] memory lendersLog = credit.getLenders();\r\n        address borrower = creditsMap[_credit].borrower;\r\n        \r\n        for(uint lendersIndex = 0; lendersIndex < lendersLog.length; lendersIndex++){\r\n            require(msg.sender == lendersLog[lendersIndex], \"You arenot a lender\");\r\n            creditFraudVote[msg.sender][_credit] = true;\r\n            creditsMap[_credit].fraudVoteCount++;\r\n                \r\n            if(creditsMap[_credit].fraudVoteCount == lendersLog.length){\r\n                users[borrower].fraudStatus = true;\r\n\r\n                emit UserSetFraud(borrower, users[borrower].fraudStatus, block.timestamp);\r\n            }\r\n        }\r\n    }\r\n}",
  "sourcePath": "C:\\Users\\USER\\Desktop\\Credit_and_staking\\contracts\\P2P_lending.sol",
  "compiler": {
    "name": "solc",
    "version": "0.8.7+commit.e28d00a7.Emscripten.clang"
  },
  "schemaVersion": "3.4.6",
  "updatedAt": "2022-04-18T12:22:37.231Z",
  "devdoc": {
    "kind": "dev",
    "methods": {
      "fraudVote(address)": {
        "details": "Function for voting the borrower as fraudster."
      },
      "owner()": {
        "details": "Returns the address of the current owner."
      },
      "renounceOwnership()": {
        "details": "Leaves the contract without owner. It will not be possible to call `onlyOwner` functions anymore. Can only be called by the current owner. NOTE: Renouncing ownership will leave the contract without an owner, thereby removing any functionality that is only available to the owner."
      },
      "transferOwnership(address)": {
        "details": "Transfers ownership of the contract to a new account (`newOwner`). Can only be called by the current owner."
      }
    },
    "version": 1
  },
  "userdoc": {
    "kind": "user",
    "methods": {},
    "version": 1
  }
}