{
  "contractName": "Wallet",
  "abi": [
    {
      "anonymous": false,
      "inputs": [
        {
          "indexed": true,
          "internalType": "address",
          "name": "previousOwner",
          "type": "address"
        },
        {
          "indexed": true,
          "internalType": "address",
          "name": "newOwner",
          "type": "address"
        }
      ],
      "name": "OwnershipTransferred",
      "type": "event"
    },
    {
      "anonymous": false,
      "inputs": [
        {
          "indexed": false,
          "internalType": "address",
          "name": "",
          "type": "address"
        },
        {
          "indexed": false,
          "internalType": "bytes32",
          "name": "",
          "type": "bytes32"
        }
      ],
      "name": "TokenAdded",
      "type": "event"
    },
    {
      "inputs": [],
      "name": "owner",
      "outputs": [
        {
          "internalType": "address",
          "name": "",
          "type": "address"
        }
      ],
      "stateMutability": "view",
      "type": "function"
    },
    {
      "inputs": [],
      "name": "renounceOwnership",
      "outputs": [],
      "stateMutability": "nonpayable",
      "type": "function"
    },
    {
      "inputs": [
        {
          "internalType": "address",
          "name": "newOwner",
          "type": "address"
        }
      ],
      "name": "transferOwnership",
      "outputs": [],
      "stateMutability": "nonpayable",
      "type": "function"
    },
    {
      "inputs": [
        {
          "internalType": "address",
          "name": "tokenAddress",
          "type": "address"
        },
        {
          "internalType": "bytes32",
          "name": "symbol",
          "type": "bytes32"
        }
      ],
      "name": "addToken",
      "outputs": [
        {
          "internalType": "bool",
          "name": "success",
          "type": "bool"
        }
      ],
      "stateMutability": "nonpayable",
      "type": "function"
    },
    {
      "inputs": [
        {
          "internalType": "bytes32",
          "name": "symbol",
          "type": "bytes32"
        },
        {
          "internalType": "uint256",
          "name": "_amount",
          "type": "uint256"
        }
      ],
      "name": "depositToken",
      "outputs": [],
      "stateMutability": "nonpayable",
      "type": "function"
    },
    {
      "inputs": [
        {
          "internalType": "uint256",
          "name": "amount",
          "type": "uint256"
        },
        {
          "internalType": "bytes32",
          "name": "symbol",
          "type": "bytes32"
        }
      ],
      "name": "approveDeposit",
      "outputs": [],
      "stateMutability": "nonpayable",
      "type": "function"
    },
    {
      "inputs": [
        {
          "internalType": "uint256",
          "name": "_amount",
          "type": "uint256"
        },
        {
          "internalType": "bytes32",
          "name": "symbol",
          "type": "bytes32"
        }
      ],
      "name": "withdrawToken",
      "outputs": [],
      "stateMutability": "nonpayable",
      "type": "function"
    },
    {
      "inputs": [],
      "name": "depositEth",
      "outputs": [],
      "stateMutability": "payable",
      "type": "function"
    },
    {
      "inputs": [
        {
          "internalType": "uint256",
          "name": "_amount",
          "type": "uint256"
        }
      ],
      "name": "withdrawEth",
      "outputs": [
        {
          "internalType": "bool",
          "name": "success",
          "type": "bool"
        }
      ],
      "stateMutability": "nonpayable",
      "type": "function"
    },
    {
      "inputs": [
        {
          "internalType": "bytes32",
          "name": "symbol",
          "type": "bytes32"
        }
      ],
      "name": "getBalance",
      "outputs": [
        {
          "internalType": "uint256",
          "name": "",
          "type": "uint256"
        }
      ],
      "stateMutability": "view",
      "type": "function"
    }
  ],
  "bytecode": "0x608060405234801561001057600080fd5b5061001a3361001f565b61006f565b600080546001600160a01b038381166001600160a01b0319831681178455604051919092169283917f8be0079c531659141344cd1fd0a4f28419497f9722a3daafe3b4186f6b6457e09190a35050565b6109748061007e6000396000f3fe6080604052600436106100915760003560e01c8063c0c1eebc11610059578063c0c1eebc14610148578063c311d04914610178578063d0d3b23f14610198578063d116c149146101b8578063f2fde38b146101d857600080fd5b8063439370b114610096578063715018a6146100a05780637d34900a146100b55780638da5cb5b146100d55780638e73946114610102575b600080fd5b61009e6101f8565b005b3480156100ac57600080fd5b5061009e610246565b3480156100c157600080fd5b5061009e6100d03660046108a2565b610285565b3480156100e157600080fd5b506000546040516001600160a01b0390911681526020015b60405180910390f35b34801561010e57600080fd5b5061013a61011d366004610889565b336000908152600260209081526040808320938352929052205490565b6040519081526020016100f9565b34801561015457600080fd5b5061016861016336600461083d565b610415565b60405190151581526020016100f9565b34801561018457600080fd5b50610168610193366004610889565b610508565b3480156101a457600080fd5b5061009e6101b33660046108a2565b610586565b3480156101c457600080fd5b5061009e6101d33660046108a2565b61061c565b3480156101e457600080fd5b5061009e6101f3366004610822565b6106fc565b3360009081526002602090815260408083206208aa8960eb1b84529091529020546102239034610797565b3360009081526002602090815260408083206208aa8960eb1b8452909152902055565b6000546001600160a01b031633146102795760405162461bcd60e51b8152600401610270906108c4565b60405180910390fd5b61028360006107aa565b565b60008181526003602052604090205481906001600160a01b03166102df5760405162461bcd60e51b81526020600482015260116024820152702737ba1030903b30b634b2103a37b5b2b760791b6044820152606401610270565b3360009081526002602090815260408083208584529091529020548311156103415760405162461bcd60e51b815260206004820152601560248201527410985b185b98d948139bdd0814dd59999a58d95b9d605a1b6044820152606401610270565b33600090815260026020908152604080832085845290915290205461036690846107fa565b3360008181526002602090815260408083208784528252808320949094556003905282902054915163a9059cbb60e01b81526004810191909152602481018590526001600160a01b039091169063a9059cbb906044015b602060405180830381600087803b1580156103d757600080fd5b505af11580156103eb573d6000803e3d6000fd5b505050506040513d601f19601f8201168201806040525081019061040f9190610867565b50505050565b600080546001600160a01b031633146104405760405162461bcd60e51b8152600401610270906108c4565b6001600160a01b03831661048e5760405162461bcd60e51b8152602060048201526015602482015274496e76616c696420546f6b656e204164647265737360581b6044820152606401610270565b6040805180820182526001600160a01b039485168152602080820185815260008681526003909252928120915182546001600160a01b031916961695909517815590516001918201558054808201825593527fb10e2d527612073b26eecdfd717e6a320cf44b4afac2b0732d9fcbe2b7fa0cf69092015590565b3360009081526002602090815260408083206208aa8960eb1b845290915281205482111561053557600080fd5b3360009081526002602090815260408083206208aa8960eb1b845290915290205461056090836107fa565b3360009081526002602090815260408083206208aa8960eb1b8452909152902055919050565b6000818152600360205260409081902054905163095ea7b360e01b8152306004820152602481018490526001600160a01b039091169063095ea7b390604401602060405180830381600087803b1580156105df57600080fd5b505af11580156105f3573d6000803e3d6000fd5b505050506040513d601f19601f820116820180604052508101906106179190610867565b505050565b60008281526003602052604090205482906001600160a01b03166106765760405162461bcd60e51b81526020600482015260116024820152702737ba1030903b30b634b2103a37b5b2b760791b6044820152606401610270565b33600090815260026020908152604080832086845290915290205461069b9083610797565b336000818152600260209081526040808320888452825280832094909455600390528290205491516323b872dd60e01b81526004810191909152306024820152604481018490526001600160a01b03909116906323b872dd906064016103bd565b6000546001600160a01b031633146107265760405162461bcd60e51b8152600401610270906108c4565b6001600160a01b03811661078b5760405162461bcd60e51b815260206004820152602660248201527f4f776e61626c653a206e6577206f776e657220697320746865207a65726f206160448201526564647265737360d01b6064820152608401610270565b610794816107aa565b50565b60006107a382846108f9565b9392505050565b600080546001600160a01b038381166001600160a01b0319831681178455604051919092169283917f8be0079c531659141344cd1fd0a4f28419497f9722a3daafe3b4186f6b6457e09190a35050565b60006107a38284610911565b80356001600160a01b038116811461081d57600080fd5b919050565b60006020828403121561083457600080fd5b6107a382610806565b6000806040838503121561085057600080fd5b61085983610806565b946020939093013593505050565b60006020828403121561087957600080fd5b815180151581146107a357600080fd5b60006020828403121561089b57600080fd5b5035919050565b600080604083850312156108b557600080fd5b50508035926020909101359150565b6020808252818101527f4f776e61626c653a2063616c6c6572206973206e6f7420746865206f776e6572604082015260600190565b6000821982111561090c5761090c610928565b500190565b60008282101561092357610923610928565b500390565b634e487b7160e01b600052601160045260246000fdfea26469706673582212204c31dd8dc154ff99fe6278e5a4b82624514d7e125d54ce9aed91e6e6062cbd0a64736f6c63430008070033",
  "immutableReferences": {},
  "source": "// SPDX-License-Identifier: MIT\r\npragma solidity 0.8.7;\r\n\r\nimport \"@openzeppelin/contracts/token/ERC20/IERC20.sol\";\r\nimport \"@openzeppelin/contracts/utils/math/SafeMath.sol\";\r\nimport \"@openzeppelin/contracts/access/Ownable.sol\";\r\n\r\ncontract Wallet is Ownable {\r\n    using SafeMath for uint;\r\n    \r\n    event TokenAdded(address, bytes32);\r\n    \r\n    struct Tokens{\r\n        address tokenAddress;\r\n        bytes32 symbol;\r\n    }\r\n    \r\n    bytes32[] tokenList;\r\n    mapping(address => mapping(bytes32 => uint)) tokenBalance;\r\n    mapping(bytes32 => Tokens) tokenMap;\r\n\r\n    modifier tokenExist(bytes32 symbol){\r\n        require(tokenMap[symbol].tokenAddress != address(0), \"Not a valid token\");\r\n        _;\r\n    }\r\n\r\n\r\n    function addToken(address tokenAddress, bytes32 symbol) external onlyOwner returns(bool success){\r\n        require(tokenAddress != address(0), \"Invalid Token Address\");\r\n        tokenMap[symbol] = Tokens(tokenAddress, symbol);\r\n        tokenList.push(symbol);\r\n        return success;\r\n    }\r\n\r\n    function depositToken(bytes32 symbol, uint _amount) external tokenExist(symbol) {\r\n        tokenBalance[msg.sender][symbol] = tokenBalance[msg.sender][symbol].add(_amount);\r\n        IERC20(tokenMap[symbol].tokenAddress).transferFrom(msg.sender, address(this), _amount);\r\n    }\r\n\r\n    function approveDeposit(uint amount, bytes32 symbol) external {\r\n        IERC20(tokenMap[symbol].tokenAddress).approve(address(this), amount);\r\n    }\r\n    \r\n    function withdrawToken(uint _amount, bytes32 symbol) public tokenExist(symbol) {\r\n        require(tokenBalance[msg.sender][symbol] >= _amount, \"Balance Not Sufficent\");\r\n        tokenBalance[msg.sender][symbol] = tokenBalance[msg.sender][symbol].sub(_amount);\r\n        IERC20(tokenMap[symbol].tokenAddress).transfer(msg.sender, _amount);\r\n    }\r\n\r\n    function depositEth () external payable {\r\n        tokenBalance[msg.sender][bytes32(\"ETH\")] = tokenBalance[msg.sender][bytes32(\"ETH\")].add(msg.value);\r\n    \r\n    }\r\n\r\n    function withdrawEth (uint _amount) external returns(bool success){\r\n        require(tokenBalance[msg.sender][bytes32(\"ETH\")] >= _amount);\r\n        tokenBalance[msg.sender][bytes32(\"ETH\")] = tokenBalance[msg.sender][bytes32(\"ETH\")].sub(_amount);\r\n        msg.sender.call{value: _amount};\r\n        return success;\r\n    }\r\n\r\n    function getBalance(bytes32 symbol) public view returns(uint){\r\n        return tokenBalance[msg.sender][symbol];\r\n    }\r\n\r\n}",
  "sourcePath": "C:\\Users\\USER\\Desktop\\Projects\\Credit_and_staking\\contracts\\Wallet.sol",
  "compiler": {
    "name": "solc",
    "version": "0.8.7+commit.e28d00a7.Emscripten.clang"
  },
  "schemaVersion": "3.4.6",
  "updatedAt": "2022-04-21T14:44:04.260Z",
  "devdoc": {
    "kind": "dev",
    "methods": {
      "owner()": {
        "details": "Returns the address of the current owner."
      },
      "renounceOwnership()": {
        "details": "Leaves the contract without owner. It will not be possible to call `onlyOwner` functions anymore. Can only be called by the current owner. NOTE: Renouncing ownership will leave the contract without an owner, thereby removing any functionality that is only available to the owner."
      },
      "transferOwnership(address)": {
        "details": "Transfers ownership of the contract to a new account (`newOwner`). Can only be called by the current owner."
      }
    },
    "version": 1
  },
  "userdoc": {
    "kind": "user",
    "methods": {},
    "version": 1
  }
}