{
  "contractName": "Wallet",
  "abi": [
    {
      "anonymous": false,
      "inputs": [
        {
          "indexed": true,
          "internalType": "address",
          "name": "previousOwner",
          "type": "address"
        },
        {
          "indexed": true,
          "internalType": "address",
          "name": "newOwner",
          "type": "address"
        }
      ],
      "name": "OwnershipTransferred",
      "type": "event"
    },
    {
      "anonymous": false,
      "inputs": [
        {
          "indexed": false,
          "internalType": "address",
          "name": "",
          "type": "address"
        },
        {
          "indexed": false,
          "internalType": "bytes32",
          "name": "",
          "type": "bytes32"
        }
      ],
      "name": "TokenAdded",
      "type": "event"
    },
    {
      "inputs": [],
      "name": "owner",
      "outputs": [
        {
          "internalType": "address",
          "name": "",
          "type": "address"
        }
      ],
      "stateMutability": "view",
      "type": "function"
    },
    {
      "inputs": [],
      "name": "renounceOwnership",
      "outputs": [],
      "stateMutability": "nonpayable",
      "type": "function"
    },
    {
      "inputs": [
        {
          "internalType": "address",
          "name": "newOwner",
          "type": "address"
        }
      ],
      "name": "transferOwnership",
      "outputs": [],
      "stateMutability": "nonpayable",
      "type": "function"
    },
    {
      "inputs": [
        {
          "internalType": "address",
          "name": "tokenAddress",
          "type": "address"
        },
        {
          "internalType": "bytes32",
          "name": "symbol",
          "type": "bytes32"
        }
      ],
      "name": "addToken",
      "outputs": [
        {
          "internalType": "bool",
          "name": "success",
          "type": "bool"
        }
      ],
      "stateMutability": "nonpayable",
      "type": "function"
    },
    {
      "inputs": [
        {
          "internalType": "bytes32",
          "name": "symbol",
          "type": "bytes32"
        },
        {
          "internalType": "uint256",
          "name": "_amount",
          "type": "uint256"
        }
      ],
      "name": "depositToken",
      "outputs": [],
      "stateMutability": "nonpayable",
      "type": "function"
    },
    {
      "inputs": [
        {
          "internalType": "uint256",
          "name": "amount",
          "type": "uint256"
        },
        {
          "internalType": "bytes32",
          "name": "symbol",
          "type": "bytes32"
        }
      ],
      "name": "approveDeposit",
      "outputs": [],
      "stateMutability": "nonpayable",
      "type": "function"
    },
    {
      "inputs": [
        {
          "internalType": "uint256",
          "name": "_amount",
          "type": "uint256"
        },
        {
          "internalType": "bytes32",
          "name": "symbol",
          "type": "bytes32"
        }
      ],
      "name": "withdrawToken",
      "outputs": [],
      "stateMutability": "nonpayable",
      "type": "function"
    },
    {
      "inputs": [],
      "name": "depositEth",
      "outputs": [],
      "stateMutability": "payable",
      "type": "function"
    },
    {
      "inputs": [
        {
          "internalType": "uint256",
          "name": "_amount",
          "type": "uint256"
        }
      ],
      "name": "withdrawEth",
      "outputs": [
        {
          "internalType": "bool",
          "name": "success",
          "type": "bool"
        }
      ],
      "stateMutability": "nonpayable",
      "type": "function"
    },
    {
      "inputs": [
        {
          "internalType": "bytes32",
          "name": "symbol",
          "type": "bytes32"
        }
      ],
      "name": "getBalance",
      "outputs": [
        {
          "internalType": "uint256",
          "name": "",
          "type": "uint256"
        }
      ],
      "stateMutability": "view",
      "type": "function"
    }
  ],
  "bytecode": "0x608060405234801561001057600080fd5b5061001a3361001f565b61006f565b600080546001600160a01b038381166001600160a01b0319831681178455604051919092169283917f8be0079c531659141344cd1fd0a4f28419497f9722a3daafe3b4186f6b6457e09190a35050565b61097f8061007e6000396000f3fe6080604052600436106100815760003560e01c8063439370b114610086578063715018a6146100905780637d34900a146100a55780638da5cb5b146100c55780638e739461146100f7578063c0c1eebc1461013d578063c311d0491461016d578063d0d3b23f1461018d578063d116c149146101ad578063f2fde38b146101cd575b600080fd5b61008e6101ed565b005b34801561009c57600080fd5b5061008e61023b565b3480156100b157600080fd5b5061008e6100c0366004610869565b61027f565b3480156100d157600080fd5b506100da6103e6565b6040516001600160a01b0390911681526020015b60405180910390f35b34801561010357600080fd5b5061012f610112366004610850565b336000908152600260209081526040808320938352929052205490565b6040519081526020016100ee565b34801561014957600080fd5b5061015d610158366004610804565b6103f5565b60405190151581526020016100ee565b34801561017957600080fd5b5061015d610188366004610850565b6104ee565b34801561019957600080fd5b5061008e6101a8366004610869565b61056c565b3480156101b957600080fd5b5061008e6101c8366004610869565b610602565b3480156101d957600080fd5b5061008e6101e83660046107e9565b6106be565b3360009081526002602090815260408083206208aa8960eb1b8452909152902054610218903461075e565b3360009081526002602090815260408083206208aa8960eb1b8452909152902055565b336102446103e6565b6001600160a01b0316146102735760405162461bcd60e51b815260040161026a906108a4565b60405180910390fd5b61027d6000610771565b565b60008181526003602052604090205481906001600160a01b03166102b55760405162461bcd60e51b815260040161026a906108d9565b3360009081526002602090815260408083208584529091529020548311156103175760405162461bcd60e51b815260206004820152601560248201527410985b185b98d948139bdd0814dd59999a58d95b9d605a1b604482015260640161026a565b33600090815260026020908152604080832085845290915290205461033c90846107c1565b3360008181526002602090815260408083208784528252808320949094556003905282902054915163a9059cbb60e01b81526001600160a01b039092169163a9059cbb9161038e91879060040161088b565b602060405180830381600087803b1580156103a857600080fd5b505af11580156103bc573d6000803e3d6000fd5b505050506040513d601f19601f820116820180604052508101906103e0919061082e565b50505050565b6000546001600160a01b031690565b6000336104006103e6565b6001600160a01b0316146104265760405162461bcd60e51b815260040161026a906108a4565b6001600160a01b0383166104745760405162461bcd60e51b8152602060048201526015602482015274496e76616c696420546f6b656e204164647265737360581b604482015260640161026a565b6040805180820182526001600160a01b039485168152602080820185815260008681526003909252928120915182546001600160a01b031916961695909517815590516001918201558054808201825593527fb10e2d527612073b26eecdfd717e6a320cf44b4afac2b0732d9fcbe2b7fa0cf69092015590565b3360009081526002602090815260408083206208aa8960eb1b845290915281205482111561051b57600080fd5b3360009081526002602090815260408083206208aa8960eb1b845290915290205461054690836107c1565b3360009081526002602090815260408083206208aa8960eb1b8452909152902055919050565b6000818152600360205260409081902054905163095ea7b360e01b81526001600160a01b039091169063095ea7b3906105ab903090869060040161088b565b602060405180830381600087803b1580156105c557600080fd5b505af11580156105d9573d6000803e3d6000fd5b505050506040513d601f19601f820116820180604052508101906105fd919061082e565b505050565b60008281526003602052604090205482906001600160a01b03166106385760405162461bcd60e51b815260040161026a906108d9565b33600090815260026020908152604080832086845290915290205461065d908361075e565b336000818152600260209081526040808320888452825280832094909455600390528290205491516323b872dd60e01b81526004810191909152306024820152604481018490526001600160a01b03909116906323b872dd9060640161038e565b336106c76103e6565b6001600160a01b0316146106ed5760405162461bcd60e51b815260040161026a906108a4565b6001600160a01b0381166107525760405162461bcd60e51b815260206004820152602660248201527f4f776e61626c653a206e6577206f776e657220697320746865207a65726f206160448201526564647265737360d01b606482015260840161026a565b61075b81610771565b50565b600061076a8284610904565b9392505050565b600080546001600160a01b038381166001600160a01b0319831681178455604051919092169283917f8be0079c531659141344cd1fd0a4f28419497f9722a3daafe3b4186f6b6457e09190a35050565b600061076a828461091c565b80356001600160a01b03811681146107e457600080fd5b919050565b6000602082840312156107fb57600080fd5b61076a826107cd565b6000806040838503121561081757600080fd5b610820836107cd565b946020939093013593505050565b60006020828403121561084057600080fd5b8151801515811461076a57600080fd5b60006020828403121561086257600080fd5b5035919050565b6000806040838503121561087c57600080fd5b50508035926020909101359150565b6001600160a01b03929092168252602082015260400190565b6020808252818101527f4f776e61626c653a2063616c6c6572206973206e6f7420746865206f776e6572604082015260600190565b6020808252601190820152702737ba1030903b30b634b2103a37b5b2b760791b604082015260600190565b6000821982111561091757610917610933565b500190565b60008282101561092e5761092e610933565b500390565b634e487b7160e01b600052601160045260246000fdfea2646970667358221220fbcd8d9ec2d21c854aec62327a5275911fc7955d0b7d2b59159e27cbad5f1a4564736f6c63430008070033",
  "immutableReferences": {},
  "source": "// SPDX-License-Identifier: MIT\r\npragma solidity 0.8.7;\r\n\r\nimport \"@openzeppelin/contracts/token/ERC20/IERC20.sol\";\r\nimport \"@openzeppelin/contracts/utils/math/SafeMath.sol\";\r\nimport \"@openzeppelin/contracts/access/Ownable.sol\";\r\n\r\ncontract Wallet is Ownable {\r\n    using SafeMath for uint;\r\n    \r\n    event TokenAdded(address, bytes32);\r\n    \r\n    struct Tokens{\r\n        address tokenAddress;\r\n        bytes32 symbol;\r\n    }\r\n    \r\n    bytes32[] tokenList;\r\n    mapping(address => mapping(bytes32 => uint)) tokenBalance;\r\n    mapping(bytes32 => Tokens) tokenMap;\r\n\r\n    modifier tokenExist(bytes32 symbol){\r\n        require(tokenMap[symbol].tokenAddress != address(0), \"Not a valid token\");\r\n        _;\r\n    }\r\n\r\n\r\n    function addToken(address tokenAddress, bytes32 symbol) external onlyOwner returns(bool success){\r\n        require(tokenAddress != address(0), \"Invalid Token Address\");\r\n        tokenMap[symbol] = Tokens(tokenAddress, symbol);\r\n        tokenList.push(symbol);\r\n        return success;\r\n    }\r\n\r\n    function depositToken(bytes32 symbol, uint _amount) external tokenExist(symbol) {\r\n        tokenBalance[msg.sender][symbol] = tokenBalance[msg.sender][symbol].add(_amount);\r\n        IERC20(tokenMap[symbol].tokenAddress).transferFrom(msg.sender, address(this), _amount);\r\n    }\r\n\r\n    function approveDeposit(uint amount, bytes32 symbol) external {\r\n        IERC20(tokenMap[symbol].tokenAddress).approve(address(this), amount);\r\n    }\r\n    \r\n    function withdrawToken(uint _amount, bytes32 symbol) public tokenExist(symbol) {\r\n        require(tokenBalance[msg.sender][symbol] >= _amount, \"Balance Not Sufficent\");\r\n        tokenBalance[msg.sender][symbol] = tokenBalance[msg.sender][symbol].sub(_amount);\r\n        IERC20(tokenMap[symbol].tokenAddress).transfer(msg.sender, _amount);\r\n    }\r\n\r\n    function depositEth () external payable {\r\n        tokenBalance[msg.sender][bytes32(\"ETH\")] = tokenBalance[msg.sender][bytes32(\"ETH\")].add(msg.value);\r\n    \r\n    }\r\n\r\n    function withdrawEth (uint _amount) external returns(bool success){\r\n        require(tokenBalance[msg.sender][bytes32(\"ETH\")] >= _amount);\r\n        tokenBalance[msg.sender][bytes32(\"ETH\")] = tokenBalance[msg.sender][bytes32(\"ETH\")].sub(_amount);\r\n        msg.sender.call{value: _amount};\r\n        return success;\r\n    }\r\n\r\n    function getBalance(bytes32 symbol) public view returns(uint){\r\n        return tokenBalance[msg.sender][symbol];\r\n    }\r\n\r\n}",
  "sourcePath": "C:\\Users\\USER\\Desktop\\Credit_and_staking\\contracts\\Wallet.sol",
  "compiler": {
    "name": "solc",
    "version": "0.8.7+commit.e28d00a7.Emscripten.clang"
  },
  "schemaVersion": "3.4.6",
  "updatedAt": "2022-04-18T17:41:40.243Z",
  "devdoc": {
    "kind": "dev",
    "methods": {
      "owner()": {
        "details": "Returns the address of the current owner."
      },
      "renounceOwnership()": {
        "details": "Leaves the contract without owner. It will not be possible to call `onlyOwner` functions anymore. Can only be called by the current owner. NOTE: Renouncing ownership will leave the contract without an owner, thereby removing any functionality that is only available to the owner."
      },
      "transferOwnership(address)": {
        "details": "Transfers ownership of the contract to a new account (`newOwner`). Can only be called by the current owner."
      }
    },
    "version": 1
  },
  "userdoc": {
    "kind": "user",
    "methods": {},
    "version": 1
  }
}