{
  "contractName": "YieldFarm",
  "abi": [
    {
      "inputs": [
        {
          "internalType": "address",
          "name": "_TSTAddress",
          "type": "address"
        }
      ],
      "stateMutability": "nonpayable",
      "type": "constructor"
    },
    {
      "anonymous": false,
      "inputs": [
        {
          "indexed": true,
          "internalType": "contract Credit",
          "name": "_address",
          "type": "address"
        },
        {
          "indexed": true,
          "internalType": "bool",
          "name": "active",
          "type": "bool"
        },
        {
          "indexed": true,
          "internalType": "uint256",
          "name": "timestamp",
          "type": "uint256"
        }
      ],
      "name": "CreditActiveChanged",
      "type": "event"
    },
    {
      "anonymous": false,
      "inputs": [
        {
          "indexed": true,
          "internalType": "contract Credit",
          "name": "_address",
          "type": "address"
        },
        {
          "indexed": true,
          "internalType": "address",
          "name": "_borrower",
          "type": "address"
        },
        {
          "indexed": true,
          "internalType": "uint256",
          "name": "timestamp",
          "type": "uint256"
        }
      ],
      "name": "CreditCreated",
      "type": "event"
    },
    {
      "anonymous": false,
      "inputs": [
        {
          "indexed": true,
          "internalType": "address",
          "name": "token",
          "type": "address"
        }
      ],
      "name": "NewTokenAdded",
      "type": "event"
    },
    {
      "anonymous": false,
      "inputs": [
        {
          "indexed": true,
          "internalType": "address",
          "name": "previousOwner",
          "type": "address"
        },
        {
          "indexed": true,
          "internalType": "address",
          "name": "newOwner",
          "type": "address"
        }
      ],
      "name": "OwnershipTransferred",
      "type": "event"
    },
    {
      "anonymous": false,
      "inputs": [
        {
          "indexed": true,
          "internalType": "uint256",
          "name": "time",
          "type": "uint256"
        }
      ],
      "name": "RewardTokenIssued",
      "type": "event"
    },
    {
      "anonymous": false,
      "inputs": [
        {
          "indexed": false,
          "internalType": "address",
          "name": "",
          "type": "address"
        },
        {
          "indexed": false,
          "internalType": "bytes32",
          "name": "",
          "type": "bytes32"
        }
      ],
      "name": "TokenAdded",
      "type": "event"
    },
    {
      "anonymous": false,
      "inputs": [
        {
          "indexed": true,
          "internalType": "address",
          "name": "staker",
          "type": "address"
        },
        {
          "indexed": true,
          "internalType": "address",
          "name": "token",
          "type": "address"
        },
        {
          "indexed": true,
          "internalType": "uint256",
          "name": "amount",
          "type": "uint256"
        }
      ],
      "name": "TokenStaked",
      "type": "event"
    },
    {
      "anonymous": false,
      "inputs": [
        {
          "indexed": true,
          "internalType": "address",
          "name": "staker",
          "type": "address"
        },
        {
          "indexed": true,
          "internalType": "address",
          "name": "token",
          "type": "address"
        }
      ],
      "name": "TokenUnstaked",
      "type": "event"
    },
    {
      "anonymous": false,
      "inputs": [
        {
          "indexed": true,
          "internalType": "address",
          "name": "_address",
          "type": "address"
        },
        {
          "indexed": false,
          "internalType": "bool",
          "name": "fraudStatus",
          "type": "bool"
        },
        {
          "indexed": false,
          "internalType": "uint256",
          "name": "timestamp",
          "type": "uint256"
        }
      ],
      "name": "UserSetFraud",
      "type": "event"
    },
    {
      "inputs": [],
      "name": "TST",
      "outputs": [
        {
          "internalType": "contract IERC20",
          "name": "",
          "type": "address"
        }
      ],
      "stateMutability": "view",
      "type": "function"
    },
    {
      "inputs": [
        {
          "internalType": "address",
          "name": "tokenAddress",
          "type": "address"
        },
        {
          "internalType": "bytes32",
          "name": "symbol",
          "type": "bytes32"
        }
      ],
      "name": "addToken",
      "outputs": [
        {
          "internalType": "bool",
          "name": "success",
          "type": "bool"
        }
      ],
      "stateMutability": "nonpayable",
      "type": "function"
    },
    {
      "inputs": [
        {
          "internalType": "uint256",
          "name": "",
          "type": "uint256"
        }
      ],
      "name": "allowedTokens",
      "outputs": [
        {
          "internalType": "address",
          "name": "",
          "type": "address"
        }
      ],
      "stateMutability": "view",
      "type": "function"
    },
    {
      "inputs": [
        {
          "internalType": "uint256",
          "name": "requestedAmount",
          "type": "uint256"
        },
        {
          "internalType": "uint256",
          "name": "repaymentsCount",
          "type": "uint256"
        },
        {
          "internalType": "uint256",
          "name": "interest",
          "type": "uint256"
        },
        {
          "internalType": "string",
          "name": "creditDescription",
          "type": "string"
        }
      ],
      "name": "applyForCredit",
      "outputs": [
        {
          "internalType": "contract Credit",
          "name": "_credit",
          "type": "address"
        }
      ],
      "stateMutability": "nonpayable",
      "type": "function"
    },
    {
      "inputs": [
        {
          "internalType": "uint256",
          "name": "amount",
          "type": "uint256"
        },
        {
          "internalType": "bytes32",
          "name": "symbol",
          "type": "bytes32"
        }
      ],
      "name": "approveDeposit",
      "outputs": [],
      "stateMutability": "nonpayable",
      "type": "function"
    },
    {
      "inputs": [
        {
          "internalType": "address",
          "name": "_credit",
          "type": "address"
        }
      ],
      "name": "changeCreditState",
      "outputs": [],
      "stateMutability": "nonpayable",
      "type": "function"
    },
    {
      "inputs": [
        {
          "internalType": "uint256",
          "name": "",
          "type": "uint256"
        }
      ],
      "name": "creditlog",
      "outputs": [
        {
          "internalType": "uint256",
          "name": "requestedAmount",
          "type": "uint256"
        },
        {
          "internalType": "uint256",
          "name": "requestedRepayments",
          "type": "uint256"
        },
        {
          "internalType": "uint256",
          "name": "interest",
          "type": "uint256"
        },
        {
          "internalType": "string",
          "name": "description",
          "type": "string"
        },
        {
          "internalType": "address",
          "name": "borrower",
          "type": "address"
        },
        {
          "internalType": "uint256",
          "name": "fraudVoteCount",
          "type": "uint256"
        }
      ],
      "stateMutability": "view",
      "type": "function"
    },
    {
      "inputs": [
        {
          "internalType": "uint256",
          "name": "",
          "type": "uint256"
        }
      ],
      "name": "credits",
      "outputs": [
        {
          "internalType": "contract Credit",
          "name": "",
          "type": "address"
        }
      ],
      "stateMutability": "view",
      "type": "function"
    },
    {
      "inputs": [
        {
          "internalType": "contract Credit",
          "name": "",
          "type": "address"
        }
      ],
      "name": "creditsMap",
      "outputs": [
        {
          "internalType": "uint256",
          "name": "requestedAmount",
          "type": "uint256"
        },
        {
          "internalType": "uint256",
          "name": "requestedRepayments",
          "type": "uint256"
        },
        {
          "internalType": "uint256",
          "name": "interest",
          "type": "uint256"
        },
        {
          "internalType": "string",
          "name": "description",
          "type": "string"
        },
        {
          "internalType": "address",
          "name": "borrower",
          "type": "address"
        },
        {
          "internalType": "uint256",
          "name": "fraudVoteCount",
          "type": "uint256"
        }
      ],
      "stateMutability": "view",
      "type": "function"
    },
    {
      "inputs": [],
      "name": "depositEth",
      "outputs": [],
      "stateMutability": "payable",
      "type": "function"
    },
    {
      "inputs": [
        {
          "internalType": "bytes32",
          "name": "symbol",
          "type": "bytes32"
        },
        {
          "internalType": "uint256",
          "name": "_amount",
          "type": "uint256"
        }
      ],
      "name": "depositToken",
      "outputs": [],
      "stateMutability": "nonpayable",
      "type": "function"
    },
    {
      "inputs": [
        {
          "internalType": "contract Credit",
          "name": "_credit",
          "type": "address"
        }
      ],
      "name": "fraudVote",
      "outputs": [],
      "stateMutability": "nonpayable",
      "type": "function"
    },
    {
      "inputs": [
        {
          "internalType": "bytes32",
          "name": "symbol",
          "type": "bytes32"
        }
      ],
      "name": "getBalance",
      "outputs": [
        {
          "internalType": "uint256",
          "name": "",
          "type": "uint256"
        }
      ],
      "stateMutability": "view",
      "type": "function"
    },
    {
      "inputs": [],
      "name": "getCredits",
      "outputs": [
        {
          "internalType": "contract Credit[]",
          "name": "",
          "type": "address[]"
        }
      ],
      "stateMutability": "view",
      "type": "function"
    },
    {
      "inputs": [],
      "name": "getUserCredits",
      "outputs": [
        {
          "internalType": "contract Credit[]",
          "name": "",
          "type": "address[]"
        }
      ],
      "stateMutability": "view",
      "type": "function"
    },
    {
      "inputs": [],
      "name": "owner",
      "outputs": [
        {
          "internalType": "address",
          "name": "",
          "type": "address"
        }
      ],
      "stateMutability": "view",
      "type": "function"
    },
    {
      "inputs": [],
      "name": "renounceOwnership",
      "outputs": [],
      "stateMutability": "nonpayable",
      "type": "function"
    },
    {
      "inputs": [
        {
          "internalType": "address",
          "name": "_borrower",
          "type": "address"
        }
      ],
      "name": "setFraudStatus",
      "outputs": [
        {
          "internalType": "bool",
          "name": "",
          "type": "bool"
        }
      ],
      "stateMutability": "nonpayable",
      "type": "function"
    },
    {
      "inputs": [
        {
          "internalType": "uint256",
          "name": "",
          "type": "uint256"
        }
      ],
      "name": "stakers",
      "outputs": [
        {
          "internalType": "address",
          "name": "",
          "type": "address"
        }
      ],
      "stateMutability": "view",
      "type": "function"
    },
    {
      "inputs": [
        {
          "internalType": "address",
          "name": "",
          "type": "address"
        },
        {
          "internalType": "address",
          "name": "",
          "type": "address"
        }
      ],
      "name": "stakingBalance",
      "outputs": [
        {
          "internalType": "uint256",
          "name": "",
          "type": "uint256"
        }
      ],
      "stateMutability": "view",
      "type": "function"
    },
    {
      "inputs": [
        {
          "internalType": "address",
          "name": "",
          "type": "address"
        }
      ],
      "name": "tokenPriceFeedMap",
      "outputs": [
        {
          "internalType": "address",
          "name": "",
          "type": "address"
        }
      ],
      "stateMutability": "view",
      "type": "function"
    },
    {
      "inputs": [
        {
          "internalType": "address",
          "name": "newOwner",
          "type": "address"
        }
      ],
      "name": "transferOwnership",
      "outputs": [],
      "stateMutability": "nonpayable",
      "type": "function"
    },
    {
      "inputs": [
        {
          "internalType": "address",
          "name": "",
          "type": "address"
        }
      ],
      "name": "uniqueTokensStaked",
      "outputs": [
        {
          "internalType": "uint256",
          "name": "",
          "type": "uint256"
        }
      ],
      "stateMutability": "view",
      "type": "function"
    },
    {
      "inputs": [
        {
          "internalType": "address",
          "name": "",
          "type": "address"
        }
      ],
      "name": "users",
      "outputs": [
        {
          "internalType": "bool",
          "name": "credited",
          "type": "bool"
        },
        {
          "internalType": "contract Credit",
          "name": "activeCredit",
          "type": "address"
        },
        {
          "internalType": "bool",
          "name": "fraudStatus",
          "type": "bool"
        }
      ],
      "stateMutability": "view",
      "type": "function"
    },
    {
      "inputs": [
        {
          "internalType": "uint256",
          "name": "_amount",
          "type": "uint256"
        }
      ],
      "name": "withdrawEth",
      "outputs": [
        {
          "internalType": "bool",
          "name": "success",
          "type": "bool"
        }
      ],
      "stateMutability": "nonpayable",
      "type": "function"
    },
    {
      "inputs": [
        {
          "internalType": "uint256",
          "name": "_amount",
          "type": "uint256"
        },
        {
          "internalType": "bytes32",
          "name": "symbol",
          "type": "bytes32"
        }
      ],
      "name": "withdrawToken",
      "outputs": [],
      "stateMutability": "nonpayable",
      "type": "function"
    },
    {
      "inputs": [
        {
          "internalType": "address",
          "name": "_token",
          "type": "address"
        }
      ],
      "name": "addAllowedTokens",
      "outputs": [],
      "stateMutability": "nonpayable",
      "type": "function"
    },
    {
      "inputs": [
        {
          "internalType": "address",
          "name": "_token",
          "type": "address"
        },
        {
          "internalType": "address",
          "name": "_priceFeed",
          "type": "address"
        }
      ],
      "name": "setPriceFeedAddress",
      "outputs": [],
      "stateMutability": "nonpayable",
      "type": "function"
    },
    {
      "inputs": [
        {
          "internalType": "uint256",
          "name": "_amount",
          "type": "uint256"
        },
        {
          "internalType": "address",
          "name": "_token",
          "type": "address"
        }
      ],
      "name": "stakeTokens",
      "outputs": [],
      "stateMutability": "nonpayable",
      "type": "function"
    },
    {
      "inputs": [
        {
          "internalType": "address",
          "name": "_token",
          "type": "address"
        }
      ],
      "name": "unstakeToken",
      "outputs": [],
      "stateMutability": "nonpayable",
      "type": "function"
    },
    {
      "inputs": [],
      "name": "issueRewardTokens",
      "outputs": [],
      "stateMutability": "nonpayable",
      "type": "function"
    },
    {
      "inputs": [
        {
          "internalType": "address",
          "name": "_user",
          "type": "address"
        }
      ],
      "name": "getUserTotalValue",
      "outputs": [
        {
          "internalType": "uint256",
          "name": "",
          "type": "uint256"
        }
      ],
      "stateMutability": "view",
      "type": "function"
    },
    {
      "inputs": [
        {
          "internalType": "address",
          "name": "_user",
          "type": "address"
        },
        {
          "internalType": "address",
          "name": "_token",
          "type": "address"
        }
      ],
      "name": "getUserSingleTokenValue",
      "outputs": [
        {
          "internalType": "uint256",
          "name": "",
          "type": "uint256"
        }
      ],
      "stateMutability": "view",
      "type": "function"
    },
    {
      "inputs": [
        {
          "internalType": "address",
          "name": "_token",
          "type": "address"
        }
      ],
      "name": "getTokenValue",
      "outputs": [
        {
          "internalType": "uint256",
          "name": "",
          "type": "uint256"
        },
        {
          "internalType": "uint256",
          "name": "",
          "type": "uint256"
        }
      ],
      "stateMutability": "view",
      "type": "function"
    },
    {
      "inputs": [
        {
          "internalType": "address",
          "name": "_token",
          "type": "address"
        }
      ],
      "name": "tokenIsAllowed",
      "outputs": [
        {
          "internalType": "bool",
          "name": "",
          "type": "bool"
        }
      ],
      "stateMutability": "view",
      "type": "function"
    }
  ],
  "bytecode": "0x60806040523480156200001157600080fd5b5060405162003f8338038062003f838339810160408190526200003491620000b5565b6200003f3362000065565b600e80546001600160a01b0319166001600160a01b0392909216919091179055620000e7565b600080546001600160a01b038381166001600160a01b0319831681178455604051919092169283917f8be0079c531659141344cd1fd0a4f28419497f9722a3daafe3b4186f6b6457e09190a35050565b600060208284031215620000c857600080fd5b81516001600160a01b0381168114620000e057600080fd5b9392505050565b613e8c80620000f76000396000f3fe608060405260043610620001b85760003560e01c8063036a1c2214620001bd5780630bea440d14620001ff578063171e44ea14620002265780632092cb33146200024b578063276b11da146200027257806329161a0014620002a6578063439370b114620002e257806359658c4814620002ec5780635e5f2e261462000311578063630392c01462000336578063715018a6146200034e57806373ca0d7e14620003665780637d34900a146200038b578063812aa8eb14620003b0578063823a71af14620003e95780638da5cb5b14620004015780638e7394611462000419578063a1fdc0fd1462000455578063a87430ba146200047a578063af3f5e2214620004f1578063b83e02341462000516578063bb189ac21462000547578063bb9e4247146200056c578063c0c1eebc14620005d0578063c311d04914620005f5578063d0d3b23f146200061a578063d116c149146200063f578063d159e7e01462000664578063d2e397e71462000689578063dd5b846714620006ae578063e3daba7114620006d3578063f1c5d6c214620006f5578063f2fde38b1462000730578063f851418d1462000755578063fd5e6dd1146200078f575b600080fd5b348015620001ca57600080fd5b50620001e2620001dc366004620022a6565b620007b4565b6040516001600160a01b0390911681526020015b60405180910390f35b3480156200020c57600080fd5b50620002246200021e366004620022e3565b620007df565b005b3480156200023357600080fd5b5062000224620002453660046200211c565b62000a18565b3480156200025857600080fd5b506200026362000ac4565b604051620001f6919062002453565b3480156200027f57600080fd5b5062000297620002913660046200213c565b62000b34565b604051908152602001620001f6565b348015620002b357600080fd5b5062000297620002c53660046200213c565b600960209081526000928352604080842090915290825290205481565b6200022462000bc5565b348015620002f957600080fd5b50620002246200030b3660046200211c565b62000c15565b3480156200031e57600080fd5b50620001e262000330366004620022a6565b62000d08565b3480156200034357600080fd5b506200022462000d19565b3480156200035b57600080fd5b506200022462000e66565b3480156200037357600080fd5b5062000224620003853660046200211c565b62000ea8565b3480156200039857600080fd5b5062000224620003aa366004620022c0565b62001025565b348015620003bd57600080fd5b50620003d5620003cf3660046200211c565b62001199565b604051620001f69695949392919062002559565b348015620003f657600080fd5b50620002636200126a565b3480156200040e57600080fd5b50620001e2620012cc565b3480156200042657600080fd5b506200029762000438366004620022a6565b336000908152600760209081526040808320938352929052205490565b3480156200046257600080fd5b5062000224620004743660046200213c565b620012db565b3480156200048757600080fd5b50620004c9620004993660046200211c565b60036020526000908152604090205460ff808216916001600160a01b0361010082041691600160a81b9091041683565b6040805193151584526001600160a01b039092166020840152151590820152606001620001f6565b348015620004fe57600080fd5b5062000297620005103660046200211c565b6200133d565b3480156200052357600080fd5b5062000297620005353660046200211c565b600a6020526000908152604090205481565b3480156200055457600080fd5b50620001e2620005663660046200230b565b62001408565b3480156200057957600080fd5b50620005bf6200058b3660046200211c565b6001600160a01b03166000908152600360205260409020805460ff60a81b1916600160a81b90811791829055900460ff1690565b6040519015158152602001620001f6565b348015620005dd57600080fd5b50620005bf620005ef3660046200217a565b620017c7565b3480156200060257600080fd5b50620005bf62000614366004620022a6565b620018ca565b3480156200062757600080fd5b506200022462000639366004620022c0565b6200194b565b3480156200064c57600080fd5b50620002246200065e366004620022c0565b620019e7565b3480156200067157600080fd5b50620003d562000683366004620022a6565b62001a9d565b3480156200069657600080fd5b5062000224620006a83660046200211c565b62001ae5565b348015620006bb57600080fd5b50620005bf620006cd3660046200211c565b62001d0c565b348015620006e057600080fd5b50600e54620001e2906001600160a01b031681565b3480156200070257600080fd5b506200071a620007143660046200211c565b62001d7e565b60408051928352602083019190915201620001f6565b3480156200073d57600080fd5b50620002246200074f3660046200211c565b62001ea5565b3480156200076257600080fd5b50620001e2620007743660046200211c565b600b602052600090815260409020546001600160a01b031681565b3480156200079c57600080fd5b50620001e2620007ae366004620022a6565b62001f4b565b60048181548110620007c557600080fd5b6000918252602090912001546001600160a01b0316905081565b60008211620008445760405162461bcd60e51b815260206004820152602660248201527f416d6f756e742068617320746f2062652067726561746572207468616e207a65604482015265726f2028302960d01b60648201526084015b60405180910390fd5b6200084f8162001d0c565b6200089d5760405162461bcd60e51b815260206004820152601f60248201527f546f6b656e206973206375727272656e746c79206e6f7420616c6c6f7765640060448201526064016200083b565b6040516323b872dd60e01b81526001600160a01b038216906323b872dd90620008cf9033903090879060040162002416565b602060405180830381600087803b158015620008ea57600080fd5b505af1158015620008ff573d6000803e3d6000fd5b505050506040513d601f19601f8201168201806040525081019062000925919062002282565b5062000932338262001f5c565b6001600160a01b038116600090815260096020908152604080832033845290915290205462000963908390620025e6565b6001600160a01b0382166000908152600960209081526040808320338452825280832093909355600a9052205460011415620009dc57600c80546001810182556000919091527fdf6966c971051c3d54ec59162606531493a51404a002842f56009d7e5cf4a8c70180546001600160a01b031916331790555b60405182906001600160a01b0383169033907f17a90bf25d618e67de9bc66de5762d97787b11707d112164ab54c37111467f2b90600090a45050565b3362000a23620012cc565b6001600160a01b03161462000a4c5760405162461bcd60e51b81526004016200083b90620024a2565b600d805460018101825560009182527fd7b6990105719101dabeb77144f2a3385c8033acd3af97e9423a695e81ad1eb50180546001600160a01b0319166001600160a01b03841690811790915560405190917fae340411f33c346ae24187433a8df6e508be40cf0deb3949d51cea12df7fa02191a250565b3360009081526003602090815260409182902060010180548351818402810184019094528084526060939283018282801562000b2a57602002820191906000526020600020905b81546001600160a01b0316815260019091019060200180831162000b0b575b5050505050905090565b6001600160a01b0382166000908152600a602052604081205462000b5b5750600062000bbf565b60008062000b698462001d7e565b909250905062000b7b81600a6200266d565b6001600160a01b038086166000908152600960209081526040808320938a168352929052205462000bae90849062002729565b62000bba919062002601565b925050505b92915050565b3360009081526007602090815260408083206208aa8960eb1b845290915290205462000bf2903462001fcb565b3360009081526007602090815260408083206208aa8960eb1b8452909152902055565b3362000c20620012cc565b6001600160a01b03161462000c495760405162461bcd60e51b81526004016200083b90620024a2565b60008190506000816001600160a01b03166329c68dc16040518163ffffffff1660e01b8152600401602060405180830381600087803b15801562000c8c57600080fd5b505af115801562000ca1573d6000803e3d6000fd5b505050506040513d601f19601f8201168201806040525081019062000cc7919062002282565b905042811515836001600160a01b03167f71ce7686e91fa8c354084a1684940b6da2d63559a5e4652d1baf5c2c2a9dcfca60405160405180910390a4505050565b600d8181548110620007c557600080fd5b3362000d24620012cc565b6001600160a01b03161462000d4d5760405162461bcd60e51b81526004016200083b90620024a2565b60005b600c5481101562000e63576000600c828154811062000d735762000d73620027d6565b60009182526020822001546001600160a01b0316915062000d94826200133d565b600e5460405163a9059cbb60e01b81529192506001600160a01b03169063a9059cbb9062000dc990859085906004016200243a565b602060405180830381600087803b15801562000de457600080fd5b505af115801562000df9573d6000803e3d6000fd5b505050506040513d601f19601f8201168201806040525081019062000e1f919062002282565b5060405142907fc1737d1242e7ecfaa192700d59510c2a7d3b1b1c43de773fa76bcdad94803af490600090a25050808062000e5a90620027a2565b91505062000d50565b50565b3362000e71620012cc565b6001600160a01b03161462000e9a5760405162461bcd60e51b81526004016200083b90620024a2565b62000ea6600062001fe0565b565b6001600160a01b03811660009081526009602090815260408083203384529091529020548062000f1a5760405162461bcd60e51b815260206004820152601c60248201527b0537461636b696e672062616c616e63652063616e6e6f7420626520360241b60448201526064016200083b565b60405163a9059cbb60e01b81526001600160a01b0383169063a9059cbb9062000f4a90339085906004016200243a565b602060405180830381600087803b15801562000f6557600080fd5b505af115801562000f7a573d6000803e3d6000fd5b505050506040513d601f19601f8201168201806040525081019062000fa0919062002282565b506001600160a01b03821660009081526009602090815260408083203384528252808320839055600a90915290205462000fdd906001906200274b565b336000818152600a60205260408082209390935591516001600160a01b038516927f0e433528f384a26b4aa8041a21d2a1a41ba67f3e9e7515da2258dd836053032891a35050565b60008181526008602052604090205481906001600160a01b03166200105e5760405162461bcd60e51b81526004016200083b90620024d7565b336000908152600760209081526040808320858452909152902054831115620010c25760405162461bcd60e51b815260206004820152601560248201527410985b185b98d948139bdd0814dd59999a58d95b9d605a1b60448201526064016200083b565b336000908152600760209081526040808320858452909152902054620010e9908462002030565b3360008181526007602090815260408083208784528252808320949094556008905282902054915163a9059cbb60e01b81526001600160a01b039092169163a9059cbb916200113d9187906004016200243a565b602060405180830381600087803b1580156200115857600080fd5b505af11580156200116d573d6000803e3d6000fd5b505050506040513d601f19601f8201168201806040525081019062001193919062002282565b50505050565b600260208190526000918252604090912080546001820154928201546003830180549294939192620011cb9062002765565b80601f0160208091040260200160405190810160405280929190818152602001828054620011f99062002765565b80156200124a5780601f106200121e576101008083540402835291602001916200124a565b820191906000526020600020905b8154815290600101906020018083116200122c57829003601f168201915b50505050600483015460059093015491926001600160a01b031691905086565b6060600480548060200260200160405190810160405280929190818152602001828054801562000b2a576020028201919060005260206000209081546001600160a01b0316815260019091019060200180831162000b0b575050505050905090565b6000546001600160a01b031690565b33620012e6620012cc565b6001600160a01b0316146200130f5760405162461bcd60e51b81526004016200083b90620024a2565b6001600160a01b039182166000908152600b6020526040902080546001600160a01b03191691909216179055565b6001600160a01b0381166000908152600a602052604081205481906200139a5760405162461bcd60e51b81526020600482015260116024820152704e6f20746f6b656e73207374616b65642160781b60448201526064016200083b565b60005b600d548110156200140157620013de84600d8381548110620013c357620013c3620027d6565b6000918252602090912001546001600160a01b031662000b34565b620013ea9083620025e6565b915080620013f881620027a2565b9150506200139d565b5092915050565b3360009081526003602052604081205460ff16156200142657600080fd5b33600090815260036020526040902054600160a81b900460ff16156200144b57600080fd5b33600081815260036020526040808220805460ff19166001179055519091889188918891889188916200147e906200203e565b6200148f9695949392919062002502565b604051809103906000f080158015620014ac573d6000803e3d6000fd5b509050600060026000836001600160a01b03166001600160a01b031681526020019081526020016000206040518060c0016040529081600082015481526020016001820154815260200160028201548152602001600382018054620015119062002765565b80601f01602080910402602001604051908101604052809291908181526020018280546200153f9062002765565b8015620015905780601f10620015645761010080835404028352916020019162001590565b820191906000526020600020905b8154815290600101906020018083116200157257829003601f168201915b505050918352505060048201546001600160a01b0316602080830191909152600590920154604091820152805160c0810182528b81528083018b90528082018a90528151601f8901849004840281018401909252878252929350606083019188908890819084018382808284376000920182905250938552505033602080850191909152604093840183905260058054600181018255935284517f036b6384b5eca791c62761152d0c79bb0604c104a5fb6f4eb0703f3154bb3db06006909402938401908155858201517f036b6384b5eca791c62761152d0c79bb0604c104a5fb6f4eb0703f3154bb3db1850155938501517f036b6384b5eca791c62761152d0c79bb0604c104a5fb6f4eb0703f3154bb3db2840155606085015180519596508695620016e4947f036b6384b5eca791c62761152d0c79bb0604c104a5fb6f4eb0703f3154bb3db30193509101906200204c565b506080820151600482810180546001600160a01b03199081166001600160a01b039485161790915560a0909401516005909301929092553360008181526003602090815260408083208054610100600160a81b031916610100968b16968702178155865460018181019098557f8a35acfbc15ff81a39ae7d344fd709f28e8600b4aa8c65c6b64bfe7fe36bd19b018054891687179055860180549687018155835290822090940180549095168317909455915142937fbb23603d6f3f6ddbe10dbe70633e287a232c78acbccb239b11271844b5be8d7991a4509695505050505050565b600033620017d4620012cc565b6001600160a01b031614620017fd5760405162461bcd60e51b81526004016200083b90620024a2565b6001600160a01b0383166200184d5760405162461bcd60e51b8152602060048201526015602482015274496e76616c696420546f6b656e204164647265737360581b60448201526064016200083b565b6040805180820182526001600160a01b039485168152602080820185815260008681526008909252928120915182546001600160a01b031916961695909517815590516001918201556006805491820181559093527ff652222313e28459528d920b65115c16c04f3efc82aaedc97be59f3f377c0d3f9092015590565b3360009081526007602090815260408083206208aa8960eb1b8452909152812054821115620018f857600080fd5b3360009081526007602090815260408083206208aa8960eb1b845290915290205462001925908362002030565b3360009081526007602090815260408083206208aa8960eb1b8452909152902055919050565b6000818152600860205260409081902054905163095ea7b360e01b81526001600160a01b039091169063095ea7b3906200198c90309086906004016200243a565b602060405180830381600087803b158015620019a757600080fd5b505af1158015620019bc573d6000803e3d6000fd5b505050506040513d601f19601f82011682018060405250810190620019e2919062002282565b505050565b60008281526008602052604090205482906001600160a01b031662001a205760405162461bcd60e51b81526004016200083b90620024d7565b33600090815260076020908152604080832086845290915290205462001a47908362001fcb565b336000818152600760209081526040808320888452825280832094909455600890528290205491516323b872dd60e01b81526001600160a01b03909216916323b872dd916200113d913090879060040162002416565b6005818154811062001aae57600080fd5b9060005260206000209060060201600091509050806000015490806001015490806002015490806003018054620011cb9062002765565b60008190506000816001600160a01b031663829268756040518163ffffffff1660e01b815260040160006040518083038186803b15801562001b2657600080fd5b505afa15801562001b3b573d6000803e3d6000fd5b505050506040513d6000823e601f3d908101601f1916820160405262001b659190810190620021a9565b6001600160a01b038085166000908152600260205260408120600401549293509116905b825181101562001d055782818151811062001ba85762001ba8620027d6565b60200260200101516001600160a01b0316336001600160a01b03161462001c085760405162461bcd60e51b81526020600482015260136024820152722cb7ba9030b932b737ba1030903632b73232b960691b60448201526064016200083b565b3360009081526001602081815260408084206001600160a01b038a1685528252808420805460ff191690931790925560029052812060050180549162001c4e83620027a2565b909155505082516001600160a01b038616600090815260026020526040902060050154141562001cf0576001600160a01b03821660008181526003602052604090819020805460ff60a81b1916600160a81b9081179182905591517fe10f48804089cca7e3995c4d2eda1c3d12204999a90e2203893115592e9a65e49262001ce7920460ff169042909115158252602082015260400190565b60405180910390a25b8062001cfc81620027a2565b91505062001b89565b5050505050565b6000805b600d5481101562001d7557826001600160a01b0316600d828154811062001d3b5762001d3b620027d6565b6000918252602090912001546001600160a01b0316141562001d605750600192915050565b8062001d6c81620027a2565b91505062001d10565b50600092915050565b6001600160a01b038082166000908152600b6020526040808220548151633fabe5a360e21b815291519293849391169182918491839163feaf968c9160048082019260a092909190829003018186803b15801562001ddb57600080fd5b505afa15801562001df0573d6000803e3d6000fd5b505050506040513d601f19601f8201168201806040525081019062001e1691906200239c565b5050509150506000826001600160a01b031663313ce5676040518163ffffffff1660e01b815260040160206040518083038186803b15801562001e5857600080fd5b505afa15801562001e6d573d6000803e3d6000fd5b505050506040513d601f19601f8201168201806040525081019062001e939190620023f1565b919760ff909216965090945050505050565b3362001eb0620012cc565b6001600160a01b03161462001ed95760405162461bcd60e51b81526004016200083b90620024a2565b6001600160a01b03811662001f405760405162461bcd60e51b815260206004820152602660248201527f4f776e61626c653a206e6577206f776e657220697320746865207a65726f206160448201526564647265737360d01b60648201526084016200083b565b62000e638162001fe0565b600c8181548110620007c557600080fd5b6001600160a01b0380821660009081526009602090815260408083209386168352929052205462001fc7576001600160a01b0382166000908152600a602052604090205462001fad906001620025e6565b6001600160a01b0383166000908152600a60205260409020555b5050565b600062001fd98284620025e6565b9392505050565b600080546001600160a01b038381166001600160a01b0319831681178455604051919092169283917f8be0079c531659141344cd1fd0a4f28419497f9722a3daafe3b4186f6b6457e09190a35050565b600062001fd982846200274b565b61163e806200281983390190565b8280546200205a9062002765565b90600052602060002090601f0160209004810192826200207e5760008555620020c9565b82601f106200209957805160ff1916838001178555620020c9565b82800160010185558215620020c9579182015b82811115620020c9578251825591602001919060010190620020ac565b50620020d7929150620020db565b5090565b5b80821115620020d75760008155600101620020dc565b8051620020ff8162002802565b919050565b80516001600160501b0381168114620020ff57600080fd5b6000602082840312156200212f57600080fd5b813562001fd98162002802565b600080604083850312156200215057600080fd5b82356200215d8162002802565b915060208301356200216f8162002802565b809150509250929050565b600080604083850312156200218e57600080fd5b82356200219b8162002802565b946020939093013593505050565b60006020808385031215620021bd57600080fd5b82516001600160401b0380821115620021d557600080fd5b818501915085601f830112620021ea57600080fd5b815181811115620021ff57620021ff620027ec565b8060051b604051601f19603f83011681018181108582111715620022275762002227620027ec565b604052828152858101935084860182860187018a10156200224757600080fd5b600095505b8386101562002275576200226081620020f2565b8552600195909501949386019386016200224c565b5098975050505050505050565b6000602082840312156200229557600080fd5b8151801515811462001fd957600080fd5b600060208284031215620022b957600080fd5b5035919050565b60008060408385031215620022d457600080fd5b50508035926020909101359150565b60008060408385031215620022f757600080fd5b8235915060208301356200216f8162002802565b6000806000806000608086880312156200232457600080fd5b85359450602086013593506040860135925060608601356001600160401b03808211156200235157600080fd5b818801915088601f8301126200236657600080fd5b8135818111156200237657600080fd5b8960208285010111156200238957600080fd5b9699959850939650602001949392505050565b600080600080600060a08688031215620023b557600080fd5b620023c08662002104565b9450602086015193506040860151925060608601519150620023e56080870162002104565b90509295509295909350565b6000602082840312156200240457600080fd5b815160ff8116811462001fd957600080fd5b6001600160a01b039384168152919092166020820152604081019190915260600190565b6001600160a01b03929092168252602082015260400190565b6020808252825182820181905260009190848201906040850190845b81811015620024965783516001600160a01b0316835292840192918401916001016200246f565b50909695505050505050565b6020808252818101527f4f776e61626c653a2063616c6c6572206973206e6f7420746865206f776e6572604082015260600190565b6020808252601190820152702737ba1030903b30b634b2103a37b5b2b760791b604082015260600190565b86815285602082015284604082015260a060608201528260a0820152828460c0830137600081840160c0908101919091526001600160a01b03929092166080820152601f909201601f191690910101949350505050565b86815260006020878184015286604084015260c0606084015285518060c085015260005b818110156200259b5787810183015185820160e0015282016200257d565b81811115620025ae57600060e083870101525b50601f01601f1916830160e0019150620025d5905060808301856001600160a01b03169052565b8260a0830152979650505050505050565b60008219821115620025fc57620025fc620027c0565b500190565b6000826200261f57634e487b7160e01b600052601260045260246000fd5b500490565b600181815b8085111562002665578160001904821115620026495762002649620027c0565b808516156200265757918102915b93841c939080029062002629565b509250929050565b600062001fd98383600082620026865750600162000bbf565b81620026955750600062000bbf565b8160018114620026ae5760028114620026b957620026d9565b600191505062000bbf565b60ff841115620026cd57620026cd620027c0565b50506001821b62000bbf565b5060208310610133831016604e8410600b8410161715620026fe575081810a62000bbf565b6200270a838362002624565b8060001904821115620027215762002721620027c0565b029392505050565b6000816000190483118215151615620027465762002746620027c0565b500290565b600082821015620027605762002760620027c0565b500390565b600181811c908216806200277a57607f821691505b602082108114156200279c57634e487b7160e01b600052602260045260246000fd5b50919050565b6000600019821415620027b957620027b9620027c0565b5060010190565b634e487b7160e01b600052601160045260246000fd5b634e487b7160e01b600052603260045260246000fd5b634e487b7160e01b600052604160045260246000fd5b6001600160a01b038116811462000e6357600080fdfe60806040526000600c819055600d556200001b42600162000392565b600e556010805460ff191660011790553480156200003857600080fd5b506040516200163e3803806200163e8339810160408190526200005b9162000281565b62000066336200014b565b600280546001600160a01b0319166001600160a01b0383161790556006839055600385905560078490556008849055620000ad85846200019b602090811b62000e2117901c565b600481905550620000d1600754600454620001b060201b62000e341790919060201c565b6009558151620000e990600f906020850190620001be565b5042600a819055600180546001600160a01b031916331790556000805460ff60a01b191681556040516001600160a01b038416917fd6b0a532be6a7986b9de41fbbf991ac71079eb4c48f5f46913a7e16f194ddb6e91a350505050506200042f565b600080546001600160a01b038381166001600160a01b0319831681178455604051919092169283917f8be0079c531659141344cd1fd0a4f28419497f9722a3daafe3b4186f6b6457e09190a35050565b6000620001a9828462000392565b9392505050565b6000620001a98284620003b9565b828054620001cc90620003dc565b90600052602060002090601f016020900481019282620001f057600085556200023b565b82601f106200020b57805160ff19168380011785556200023b565b828001600101855582156200023b579182015b828111156200023b5782518255916020019190600101906200021e565b50620002499291506200024d565b5090565b5b808211156200024957600081556001016200024e565b80516001600160a01b03811681146200027c57600080fd5b919050565b600080600080600060a086880312156200029a57600080fd5b8551602080880151604089015160608a01519398509096509450906001600160401b0380821115620002cb57600080fd5b818901915089601f830112620002e057600080fd5b815181811115620002f557620002f562000419565b604051601f8201601f19908116603f0116810190838211818310171562000320576200032062000419565b816040528281528c868487010111156200033957600080fd5b600093505b828410156200035d57848401860151818501870152928501926200033e565b828411156200036f5760008684830101525b809750505050505050620003866080870162000264565b90509295509295909350565b60008219821115620003b457634e487b7160e01b600052601160045260246000fd5b500190565b600082620003d757634e487b7160e01b600052601260045260246000fd5b500490565b600181811c90821680620003f157607f821691505b602082108114156200041357634e487b7160e01b600052602260045260246000fd5b50919050565b634e487b7160e01b600052604160045260246000fd5b6111ff806200043f6000396000f3fe6080604052600436106100c35760003560e01c806312065fe0146100c8578063268f1153146100e857806328fd10d71461010a57806329c68dc11461014a5780633ccfd60b1461015f578063402d88831461017457806343c14b221461017c578063590e1ae3146101915780636e021df7146101a6578063715018a6146101d357806382926875146101e85780638da5cb5b1461020a578063e8b5e51f1461021f578063efd475ab14610227578063f06817cf1461023c578063f2fde38b14610268575b600080fd5b3480156100d457600080fd5b506040514781526020015b60405180910390f35b3480156100f457600080fd5b50610108610103366004610edf565b610288565b005b34801561011657600080fd5b5061013a610125366004610eb6565b60126020526000908152604090205460ff1681565b60405190151581526020016100df565b34801561015657600080fd5b5061013a610324565b34801561016b57600080fd5b50610108610393565b6101086104a8565b34801561018857600080fd5b5061010861060e565b34801561019d57600080fd5b506101086106f7565b3480156101b257600080fd5b506101c66101c1366004610f00565b610862565b6040516100df9190610f3b565b3480156101df57600080fd5b5061010861088c565b3480156101f457600080fd5b506101fd6108c5565b6040516100df9190611007565b34801561021657600080fd5b506101c6610956565b610108610965565b34801561023357600080fd5b50610108610b3b565b34801561024857600080fd5b50610251610c78565b6040516100df9b9a99989796959493929190610f4f565b34801561027457600080fd5b50610108610283366004610eb6565b610d84565b33610291610956565b6001600160a01b0316146102c05760405162461bcd60e51b81526004016102b790611054565b60405180910390fd5b6000805482919060ff60a01b1916600160a01b8360058111156102e5576102e5611173565b02179055506000544290600160a01b900460ff16600581111561030a5761030a611173565b60405160008051602061118a83398151915290600090a350565b60003361032f610956565b6001600160a01b0316146103555760405162461bcd60e51b81526004016102b790611054565b6010805460ff19811660ff9182161590811790925560405142929091161515906000805160206111aa83398151915290600090a35060105460ff1690565b60105460ff1615156001146103a757600080fd5b6002546001600160a01b031633146103be57600080fd5b6003544710156103cd57600080fd5b6005600054600160a01b900460ff1660058111156103ed576103ed611173565b14156103f857600080fd5b6000805460ff60a01b1916600160a01b9081179182905542910460ff16600581111561042657610426611173565b60405160008051602061118a83398151915290600090a36040514290479033907f7dc4c37201ed56b6c6e0a05290eb94e64040786a508fff228cf7f79423b643c590600090a46002546040516001600160a01b03909116904780156108fc02916000818181858888f193505050501580156104a5573d6000803e3d6000fd5b50565b6002546001600160a01b031633146104bf57600080fd5b6001600054600160a01b900460ff1660058111156104df576104df611173565b146104e957600080fd5b6000600854116104f857600080fd5b60095434101561050757600080fd5b60088054906000610517836110da565b909155505042600b5560095460009034111561056d5760095461053b903490610e40565b604051909150339082156108fc029083906000818181858888f1935050505015801561056b573d6000803e3d6000fd5b505b426105783483610e40565b60405133907f3fb95d44e159e2cf279d6cb5fd3d694601f47aa11311cf0db500354af34518a790600090a46105b96105b03483610e40565b60055490610e21565b600581905560045414156104a557604051429033907f88c3c6dc70a5cff89078a4ab563dafce790b6f69d88c77fd2bbe7a4d53f12b7090600090a3600080546002919060ff60a01b1916600160a01b836102e5565b60105460ff16151560011461062257600080fd5b600e5442101561063157600080fd5b60008054600160a01b900460ff16600581111561065057610650611173565b1461065a57600080fd5b3360009081526012602052604090205460ff16151560011461067b57600080fd5b3360009081526011602052604090205460ff161561069857600080fd5b600d80549060006106a88361112c565b909155505033600081815260116020526040514292917fe34f4c35680db62badf230c91431ddb53698ee30e6291e7ba2c29e87083fa53191a3600d54600c5414156106f5576106f5610e4c565b565b60105460ff16151560011461070b57600080fd5b3360009081526012602052604090205460ff16151560011461072c57600080fd5b6004600054600160a01b900460ff16600581111561074c5761074c611173565b1461075657600080fd5b3360009081526013602052604090205447101561077257600080fd5b3360008181526013602052604080822054905181156108fc0292818181858888f193505050501580156107a9573d6000803e3d6000fd5b5033600081815260136020526040808220549051429391927fe7afe2021ef5a8fe5e543b38f37e6a7799d26907b92fb1e3d24dd7a06e74ff6791a4476106f5576010805460ff1916905560405142906000906000805160206111aa833981519152908290a3600080546003919060ff60a01b1916600160a01b835b02179055506000544290600160a01b900460ff16600581111561084957610849611173565b60405160008051602061118a83398151915290600090a3565b6014818154811061087257600080fd5b6000918252602090912001546001600160a01b0316905081565b33610895610956565b6001600160a01b0316146108bb5760405162461bcd60e51b81526004016102b790611054565b6106f56000610e66565b6060336108d0610956565b6001600160a01b0316146108f65760405162461bcd60e51b81526004016102b790611054565b601480548060200260200160405190810160405280929190818152602001828054801561094c57602002820191906000526020600020905b81546001600160a01b0316815260019091019060200180831161092e575b5050505050905090565b6000546001600160a01b031690565b60008054600160a01b900460ff16600581111561098457610984611173565b1461098e57600080fd5b60006003544710610a53576003546109a7904790610e40565b90508015610a0d57604051339082156108fc029083906000818181858888f193505050501580156109dc573d6000803e3d6000fd5b506040514290829033907f2e2503bd032926fd7c2f6f2e1779b83841a24ab4d41accf43c89793c26f4cf6d90600090a45b6000805460ff60a01b1916600160a01b9081179182905542910460ff166005811115610a3b57610a3b611173565b60405160008051602061118a83398151915290600090a35b336000818152601260205260408120805460ff1916600190811790915560148054918201815582527fce6d7b5282bd9a3661ae061feed1dbda4e52ab073b1f9285be6e155d9c38d4ec0180546001600160a01b031916909217909155600c805491610abd8361112c565b90915550610ae69050610ad03483610e40565b3360009081526013602052604090205490610e21565b3360009081526013602052604090205542610b013483610e40565b7f90ba96906dd7ba676e83e5be593cbf08e08ae7af573a546478e7e61526fb68fa33604051610b309190610f3b565b60405180910390a350565b60105460ff161515600114610b4f57600080fd5b3360009081526012602052604090205460ff161515600114610b7057600080fd5b6002600054600160a01b900460ff166005811115610b9057610b90611173565b14610b9a57600080fd5b33600090815260136020526040902054610bb357600080fd5b6000600c54600454610bc591906110a1565b905080471015610bd757610bd7611147565b604051339082156108fc029083906000818181858888f19350505050158015610c04573d6000803e3d6000fd5b506040514290829033907f87a3bdf95d74f9ddbb5e43fa19605b0f0610ff18829384e905031dc75d85a3b290600090a4476104a5576010805460ff1916905560405142906000906000805160206111aa833981519152908290a3600080546003919060ff60a01b1916600160a01b836102e5565b600060606000806000806000806000806000600260009054906101000a90046001600160a01b0316600f600354600754600954600854600654600454600060149054906101000a900460ff16601060009054906101000a900460ff1647898054610ce1906110f1565b80601f0160208091040260200160405190810160405280929190818152602001828054610d0d906110f1565b8015610d5a5780601f10610d2f57610100808354040283529160200191610d5a565b820191906000526020600020905b815481529060010190602001808311610d3d57829003601f168201915b505050505099509a509a509a509a509a509a509a509a509a509a509a50909192939495969798999a565b33610d8d610956565b6001600160a01b031614610db35760405162461bcd60e51b81526004016102b790611054565b6001600160a01b038116610e185760405162461bcd60e51b815260206004820152602660248201527f4f776e61626c653a206e6577206f776e657220697320746865207a65726f206160448201526564647265737360d01b60648201526084016102b7565b6104a581610e66565b6000610e2d8284611089565b9392505050565b6000610e2d82846110a1565b6000610e2d82846110c3565b600080546004919060ff60a01b1916600160a01b83610824565b600080546001600160a01b038381166001600160a01b0319831681178455604051919092169283917f8be0079c531659141344cd1fd0a4f28419497f9722a3daafe3b4186f6b6457e09190a35050565b600060208284031215610ec857600080fd5b81356001600160a01b0381168114610e2d57600080fd5b600060208284031215610ef157600080fd5b813560068110610e2d57600080fd5b600060208284031215610f1257600080fd5b5035919050565b60068110610f3757634e487b7160e01b600052602160045260246000fd5b9052565b6001600160a01b0391909116815260200190565b6001600160a01b038c168152610160602082018190528b5190820181905260009081905b80821015610f95576020828f0101516101808386010152602082019150610f73565b80821115610fa857600061018082860101525b610180601f19601f830116850101925050508a60408301528960608301528860808301528760a08301528660c08301528560e0830152610fec610100830186610f19565b92151561012082015261014001529998505050505050505050565b6020808252825182820181905260009190848201906040850190845b818110156110485783516001600160a01b031683529284019291840191600101611023565b50909695505050505050565b6020808252818101527f4f776e61626c653a2063616c6c6572206973206e6f7420746865206f776e6572604082015260600190565b6000821982111561109c5761109c61115d565b500190565b6000826110be57634e487b7160e01b600052601260045260246000fd5b500490565b6000828210156110d5576110d561115d565b500390565b6000816110e9576110e961115d565b506000190190565b600181811c9082168061110557607f821691505b6020821081141561112657634e487b7160e01b600052602260045260246000fd5b50919050565b60006000198214156111405761114061115d565b5060010190565b634e487b7160e01b600052600160045260246000fd5b634e487b7160e01b600052601160045260246000fd5b634e487b7160e01b600052602160045260246000fdfea1f57b4d2e1dbc2fb780a8bf1d654bff435e9ae4d78f0090aa1424de456e1aa28fcb8b9c907c3d63d35e1f35de0ecdc8618c3b3d752a1fd7ea77292f77891246a264697066735822122085a106672f07bc272e5760bbe5b274225a3018083251be19d3150b4ac225b2e664736f6c63430008070033a2646970667358221220a66a71e1133ce6431d8ed795b3415688cb3e37e583d8f5ee1e1a5822e6a6e0b564736f6c63430008070033",
  "immutableReferences": {},
  "source": "// SPDX-License-Identifier: MIT\r\n\r\npragma solidity 0.8.7;\r\n\r\nimport \"@openzeppelin/contracts/access/Ownable.sol\";\r\nimport \"@openzeppelin/contracts/token/ERC20/IERC20.sol\";\r\nimport \"@chainlink/contracts/src/v0.8/interfaces/AggregatorV3Interface.sol\";\r\nimport \"@openzeppelin/contracts/utils/math/SafeMath.sol\";\r\nimport \"./P2PLending.sol\";\r\nimport \"./Wallet.sol\";\r\n\r\ncontract YieldFarm is Ownable, P2PLending, Wallet {\r\n    using SafeMath for uint;\r\n    // mapping token address -> staker address -> amount\r\n\r\n    event NewTokenAdded(address indexed token);\r\n    event TokenStaked(address indexed staker, address indexed token, uint indexed amount);\r\n    event TokenUnstaked(address indexed staker, address indexed token);\r\n    event RewardTokenIssued(uint indexed time);\r\n\r\n    mapping(address => mapping(address => uint256)) public stakingBalance;\r\n    mapping(address => uint256) public uniqueTokensStaked;\r\n    mapping(address => address) public tokenPriceFeedMap;\r\n    address[] public stakers;\r\n    address[] public allowedTokens;\r\n    IERC20 public TST;\r\n\r\n    constructor(address _TSTAddress) {\r\n        TST = IERC20(_TSTAddress);\r\n    }\r\n\r\n    function addAllowedTokens(address _token) public onlyOwner {\r\n        allowedTokens.push(_token);\r\n\r\n        emit NewTokenAdded(_token);\r\n    }\r\n\r\n    function setPriceFeedAddress(address _token, address _priceFeed) public onlyOwner {\r\n        tokenPriceFeedMap[_token] = _priceFeed;\r\n    }\r\n\r\n    function stakeTokens(uint256 _amount, address _token) public {\r\n        require(_amount > 0, \"Amount has to be greater than zero (0)\");\r\n        require(tokenIsAllowed(_token), \"Token is currrently not allowed\");\r\n        \r\n        IERC20(_token).transferFrom(msg.sender, address(this), _amount);\r\n        updateUniqueTokensStaked(msg.sender, _token);\r\n        stakingBalance[_token][msg.sender] = stakingBalance[_token][msg.sender] + _amount;\r\n        \r\n        if (uniqueTokensStaked[msg.sender] == 1) {\r\n            stakers.push(msg.sender);\r\n        }\r\n\r\n        emit TokenStaked(msg.sender, _token, _amount);\r\n\r\n    }\r\n\r\n    function updateUniqueTokensStaked(address _user, address _token) internal {\r\n        if (stakingBalance[_token][_user] <= 0) {\r\n            uniqueTokensStaked[_user] = uniqueTokensStaked[_user] + 1;\r\n        }\r\n    }\r\n\r\n    function unstakeToken(address _token) public {\r\n        uint balance = stakingBalance[_token][msg.sender];\r\n        require(balance > 0, \"Stacking balance cannot be 0\");\r\n        IERC20(_token).transfer(msg.sender, balance);\r\n        stakingBalance[_token][msg.sender] = 0;\r\n        uniqueTokensStaked[msg.sender] = uniqueTokensStaked[msg.sender] - 1;\r\n\r\n        emit TokenUnstaked(msg.sender, _token);\r\n    }\r\n\r\n    function issueRewardTokens() public onlyOwner {\r\n        for ( uint stakersIndex = 0; stakersIndex < stakers.length; stakersIndex++) {\r\n            \r\n            address recipient = stakers[stakersIndex];\r\n            uint userTotalValue = getUserTotalValue(recipient);\r\n            TST.transfer(recipient, userTotalValue);\r\n            // send them a token reward based on their total value locked\r\n\r\n            emit RewardTokenIssued(block.timestamp);\r\n        }\r\n    }\r\n\r\n    function getUserTotalValue(address _user) public view returns (uint) {\r\n        uint totalValue = 0;\r\n        require(uniqueTokensStaked[_user] > 0, \"No tokens staked!\");\r\n        for (uint allowedTokensIndex = 0; allowedTokensIndex < allowedTokens.length; allowedTokensIndex++) {\r\n            totalValue = totalValue + getUserSingleTokenValue( _user, allowedTokens[allowedTokensIndex] );\r\n        }\r\n        \r\n        return totalValue;\r\n    }\r\n\r\n    function getUserSingleTokenValue(address _user, address _token) public view returns (uint){\r\n        \r\n        if (uniqueTokensStaked[_user] <= 0) {\r\n            return 0;\r\n        }\r\n        // this gives us the price of the token\r\n        (uint256 price, uint256 decimals) = getTokenValue(_token);\r\n        return ((stakingBalance[_token][_user] * price) / (10**decimals));\r\n    }\r\n\r\n    function getTokenValue(address _token) public view returns (uint, uint)\r\n    {\r\n        //price feed address\r\n        address priceFeedAddress = tokenPriceFeedMap[_token];\r\n        AggregatorV3Interface priceFeed = AggregatorV3Interface( priceFeedAddress );\r\n        \r\n        (, int256 price, , , ) = priceFeed.latestRoundData();\r\n        uint decimals = uint(priceFeed.decimals());\r\n        \r\n        return (uint(price), decimals);\r\n    }\r\n\r\n    \r\n    function tokenIsAllowed(address _token) view public returns (bool) {\r\n        for ( uint allowedTokensIndex = 0; allowedTokensIndex < allowedTokens.length; allowedTokensIndex++ ) {\r\n            \r\n            if (allowedTokens[allowedTokensIndex] == _token) {\r\n                return true;\r\n            }\r\n        }\r\n        \r\n        return false;\r\n    }\r\n}",
  "sourcePath": "C:\\Users\\USER\\Desktop\\Credit_and_staking\\contracts\\YeildFarm.sol",
  "compiler": {
    "name": "solc",
    "version": "0.8.7+commit.e28d00a7.Emscripten.clang"
  },
  "schemaVersion": "3.4.6",
  "updatedAt": "2022-04-18T17:41:40.262Z",
  "devdoc": {
    "kind": "dev",
    "methods": {
      "fraudVote(address)": {
        "details": "Function for voting the borrower as fraudster."
      },
      "owner()": {
        "details": "Returns the address of the current owner."
      },
      "renounceOwnership()": {
        "details": "Leaves the contract without owner. It will not be possible to call `onlyOwner` functions anymore. Can only be called by the current owner. NOTE: Renouncing ownership will leave the contract without an owner, thereby removing any functionality that is only available to the owner."
      },
      "transferOwnership(address)": {
        "details": "Transfers ownership of the contract to a new account (`newOwner`). Can only be called by the current owner."
      }
    },
    "version": 1
  },
  "userdoc": {
    "kind": "user",
    "methods": {},
    "version": 1
  }
}