{
  "contractName": "YieldFarm",
  "abi": [
    {
      "inputs": [
        {
          "internalType": "address",
          "name": "_rewardTokenAddress",
          "type": "address"
        }
      ],
      "stateMutability": "nonpayable",
      "type": "constructor"
    },
    {
      "anonymous": false,
      "inputs": [
        {
          "indexed": true,
          "internalType": "contract Credit",
          "name": "_address",
          "type": "address"
        },
        {
          "indexed": true,
          "internalType": "bool",
          "name": "active",
          "type": "bool"
        },
        {
          "indexed": true,
          "internalType": "uint256",
          "name": "timestamp",
          "type": "uint256"
        }
      ],
      "name": "CreditActiveChanged",
      "type": "event"
    },
    {
      "anonymous": false,
      "inputs": [
        {
          "indexed": true,
          "internalType": "contract Credit",
          "name": "_address",
          "type": "address"
        },
        {
          "indexed": true,
          "internalType": "address",
          "name": "_borrower",
          "type": "address"
        },
        {
          "indexed": true,
          "internalType": "uint256",
          "name": "timestamp",
          "type": "uint256"
        }
      ],
      "name": "CreditCreated",
      "type": "event"
    },
    {
      "anonymous": false,
      "inputs": [
        {
          "indexed": true,
          "internalType": "address",
          "name": "token",
          "type": "address"
        }
      ],
      "name": "NewTokenAdded",
      "type": "event"
    },
    {
      "anonymous": false,
      "inputs": [
        {
          "indexed": true,
          "internalType": "address",
          "name": "previousOwner",
          "type": "address"
        },
        {
          "indexed": true,
          "internalType": "address",
          "name": "newOwner",
          "type": "address"
        }
      ],
      "name": "OwnershipTransferred",
      "type": "event"
    },
    {
      "anonymous": false,
      "inputs": [
        {
          "indexed": true,
          "internalType": "uint256",
          "name": "time",
          "type": "uint256"
        }
      ],
      "name": "RewardTokenIssued",
      "type": "event"
    },
    {
      "anonymous": false,
      "inputs": [
        {
          "indexed": false,
          "internalType": "address",
          "name": "",
          "type": "address"
        },
        {
          "indexed": false,
          "internalType": "bytes32",
          "name": "",
          "type": "bytes32"
        }
      ],
      "name": "TokenAdded",
      "type": "event"
    },
    {
      "anonymous": false,
      "inputs": [
        {
          "indexed": true,
          "internalType": "address",
          "name": "staker",
          "type": "address"
        },
        {
          "indexed": true,
          "internalType": "address",
          "name": "token",
          "type": "address"
        },
        {
          "indexed": true,
          "internalType": "uint256",
          "name": "amount",
          "type": "uint256"
        }
      ],
      "name": "TokenStaked",
      "type": "event"
    },
    {
      "anonymous": false,
      "inputs": [
        {
          "indexed": true,
          "internalType": "address",
          "name": "staker",
          "type": "address"
        },
        {
          "indexed": true,
          "internalType": "address",
          "name": "token",
          "type": "address"
        }
      ],
      "name": "TokenUnstaked",
      "type": "event"
    },
    {
      "anonymous": false,
      "inputs": [
        {
          "indexed": true,
          "internalType": "address",
          "name": "_address",
          "type": "address"
        },
        {
          "indexed": false,
          "internalType": "bool",
          "name": "fraudStatus",
          "type": "bool"
        },
        {
          "indexed": false,
          "internalType": "uint256",
          "name": "timestamp",
          "type": "uint256"
        }
      ],
      "name": "UserSetFraud",
      "type": "event"
    },
    {
      "inputs": [
        {
          "internalType": "address",
          "name": "tokenAddress",
          "type": "address"
        },
        {
          "internalType": "bytes32",
          "name": "symbol",
          "type": "bytes32"
        }
      ],
      "name": "addToken",
      "outputs": [
        {
          "internalType": "bool",
          "name": "success",
          "type": "bool"
        }
      ],
      "stateMutability": "nonpayable",
      "type": "function"
    },
    {
      "inputs": [
        {
          "internalType": "uint256",
          "name": "",
          "type": "uint256"
        }
      ],
      "name": "allowedTokens",
      "outputs": [
        {
          "internalType": "address",
          "name": "",
          "type": "address"
        }
      ],
      "stateMutability": "view",
      "type": "function"
    },
    {
      "inputs": [
        {
          "internalType": "uint256",
          "name": "requestedAmount",
          "type": "uint256"
        },
        {
          "internalType": "uint256",
          "name": "repaymentsCount",
          "type": "uint256"
        },
        {
          "internalType": "uint256",
          "name": "interest",
          "type": "uint256"
        },
        {
          "internalType": "string",
          "name": "creditDescription",
          "type": "string"
        }
      ],
      "name": "applyForCredit",
      "outputs": [
        {
          "internalType": "contract Credit",
          "name": "_credit",
          "type": "address"
        }
      ],
      "stateMutability": "nonpayable",
      "type": "function"
    },
    {
      "inputs": [
        {
          "internalType": "uint256",
          "name": "amount",
          "type": "uint256"
        },
        {
          "internalType": "bytes32",
          "name": "symbol",
          "type": "bytes32"
        }
      ],
      "name": "approveDeposit",
      "outputs": [],
      "stateMutability": "nonpayable",
      "type": "function"
    },
    {
      "inputs": [
        {
          "internalType": "address",
          "name": "_credit",
          "type": "address"
        }
      ],
      "name": "changeCreditState",
      "outputs": [],
      "stateMutability": "nonpayable",
      "type": "function"
    },
    {
      "inputs": [
        {
          "internalType": "uint256",
          "name": "",
          "type": "uint256"
        }
      ],
      "name": "creditAddressMap",
      "outputs": [
        {
          "internalType": "contract Credit",
          "name": "",
          "type": "address"
        }
      ],
      "stateMutability": "view",
      "type": "function"
    },
    {
      "inputs": [
        {
          "internalType": "uint256",
          "name": "",
          "type": "uint256"
        }
      ],
      "name": "creditlog",
      "outputs": [
        {
          "internalType": "uint256",
          "name": "requestedAmount",
          "type": "uint256"
        },
        {
          "internalType": "uint256",
          "name": "requestedRepayments",
          "type": "uint256"
        },
        {
          "internalType": "uint256",
          "name": "interest",
          "type": "uint256"
        },
        {
          "internalType": "string",
          "name": "description",
          "type": "string"
        },
        {
          "internalType": "address",
          "name": "borrower",
          "type": "address"
        },
        {
          "internalType": "uint256",
          "name": "fraudVoteCount",
          "type": "uint256"
        },
        {
          "internalType": "uint256",
          "name": "creditId",
          "type": "uint256"
        }
      ],
      "stateMutability": "view",
      "type": "function"
    },
    {
      "inputs": [
        {
          "internalType": "uint256",
          "name": "",
          "type": "uint256"
        }
      ],
      "name": "credits",
      "outputs": [
        {
          "internalType": "contract Credit",
          "name": "",
          "type": "address"
        }
      ],
      "stateMutability": "view",
      "type": "function"
    },
    {
      "inputs": [
        {
          "internalType": "contract Credit",
          "name": "",
          "type": "address"
        }
      ],
      "name": "creditsMap",
      "outputs": [
        {
          "internalType": "uint256",
          "name": "requestedAmount",
          "type": "uint256"
        },
        {
          "internalType": "uint256",
          "name": "requestedRepayments",
          "type": "uint256"
        },
        {
          "internalType": "uint256",
          "name": "interest",
          "type": "uint256"
        },
        {
          "internalType": "string",
          "name": "description",
          "type": "string"
        },
        {
          "internalType": "address",
          "name": "borrower",
          "type": "address"
        },
        {
          "internalType": "uint256",
          "name": "fraudVoteCount",
          "type": "uint256"
        },
        {
          "internalType": "uint256",
          "name": "creditId",
          "type": "uint256"
        }
      ],
      "stateMutability": "view",
      "type": "function"
    },
    {
      "inputs": [],
      "name": "depositEth",
      "outputs": [],
      "stateMutability": "payable",
      "type": "function"
    },
    {
      "inputs": [
        {
          "internalType": "bytes32",
          "name": "symbol",
          "type": "bytes32"
        },
        {
          "internalType": "uint256",
          "name": "_amount",
          "type": "uint256"
        }
      ],
      "name": "depositToken",
      "outputs": [],
      "stateMutability": "nonpayable",
      "type": "function"
    },
    {
      "inputs": [
        {
          "internalType": "contract Credit",
          "name": "_credit",
          "type": "address"
        }
      ],
      "name": "fraudVote",
      "outputs": [],
      "stateMutability": "nonpayable",
      "type": "function"
    },
    {
      "inputs": [
        {
          "internalType": "bytes32",
          "name": "symbol",
          "type": "bytes32"
        }
      ],
      "name": "getBalance",
      "outputs": [
        {
          "internalType": "uint256",
          "name": "",
          "type": "uint256"
        }
      ],
      "stateMutability": "view",
      "type": "function"
    },
    {
      "inputs": [
        {
          "internalType": "uint256",
          "name": "_creditId",
          "type": "uint256"
        }
      ],
      "name": "getCreditAddress",
      "outputs": [
        {
          "internalType": "contract Credit",
          "name": "",
          "type": "address"
        }
      ],
      "stateMutability": "view",
      "type": "function"
    },
    {
      "inputs": [],
      "name": "getCredits",
      "outputs": [
        {
          "internalType": "contract Credit[]",
          "name": "",
          "type": "address[]"
        }
      ],
      "stateMutability": "view",
      "type": "function"
    },
    {
      "inputs": [],
      "name": "getUserCredits",
      "outputs": [
        {
          "internalType": "contract Credit[]",
          "name": "",
          "type": "address[]"
        }
      ],
      "stateMutability": "view",
      "type": "function"
    },
    {
      "inputs": [],
      "name": "owner",
      "outputs": [
        {
          "internalType": "address",
          "name": "",
          "type": "address"
        }
      ],
      "stateMutability": "view",
      "type": "function"
    },
    {
      "inputs": [],
      "name": "renounceOwnership",
      "outputs": [],
      "stateMutability": "nonpayable",
      "type": "function"
    },
    {
      "inputs": [],
      "name": "rewardTokenAddress",
      "outputs": [
        {
          "internalType": "address",
          "name": "",
          "type": "address"
        }
      ],
      "stateMutability": "view",
      "type": "function"
    },
    {
      "inputs": [
        {
          "internalType": "address",
          "name": "_borrower",
          "type": "address"
        }
      ],
      "name": "setFraudStatus",
      "outputs": [
        {
          "internalType": "bool",
          "name": "",
          "type": "bool"
        }
      ],
      "stateMutability": "nonpayable",
      "type": "function"
    },
    {
      "inputs": [
        {
          "internalType": "uint256",
          "name": "",
          "type": "uint256"
        }
      ],
      "name": "stakers",
      "outputs": [
        {
          "internalType": "address",
          "name": "",
          "type": "address"
        }
      ],
      "stateMutability": "view",
      "type": "function"
    },
    {
      "inputs": [
        {
          "internalType": "address",
          "name": "",
          "type": "address"
        },
        {
          "internalType": "address",
          "name": "",
          "type": "address"
        }
      ],
      "name": "stakingBalance",
      "outputs": [
        {
          "internalType": "uint256",
          "name": "",
          "type": "uint256"
        }
      ],
      "stateMutability": "view",
      "type": "function"
    },
    {
      "inputs": [
        {
          "internalType": "address",
          "name": "",
          "type": "address"
        }
      ],
      "name": "tokenPriceFeedMap",
      "outputs": [
        {
          "internalType": "address",
          "name": "",
          "type": "address"
        }
      ],
      "stateMutability": "view",
      "type": "function"
    },
    {
      "inputs": [
        {
          "internalType": "address",
          "name": "newOwner",
          "type": "address"
        }
      ],
      "name": "transferOwnership",
      "outputs": [],
      "stateMutability": "nonpayable",
      "type": "function"
    },
    {
      "inputs": [
        {
          "internalType": "address",
          "name": "",
          "type": "address"
        }
      ],
      "name": "uniqueTokensStaked",
      "outputs": [
        {
          "internalType": "uint256",
          "name": "",
          "type": "uint256"
        }
      ],
      "stateMutability": "view",
      "type": "function"
    },
    {
      "inputs": [
        {
          "internalType": "address",
          "name": "",
          "type": "address"
        }
      ],
      "name": "users",
      "outputs": [
        {
          "internalType": "bool",
          "name": "credited",
          "type": "bool"
        },
        {
          "internalType": "contract Credit",
          "name": "activeCredit",
          "type": "address"
        },
        {
          "internalType": "bool",
          "name": "fraudStatus",
          "type": "bool"
        }
      ],
      "stateMutability": "view",
      "type": "function"
    },
    {
      "inputs": [
        {
          "internalType": "uint256",
          "name": "_amount",
          "type": "uint256"
        }
      ],
      "name": "withdrawEth",
      "outputs": [
        {
          "internalType": "bool",
          "name": "success",
          "type": "bool"
        }
      ],
      "stateMutability": "nonpayable",
      "type": "function"
    },
    {
      "inputs": [
        {
          "internalType": "uint256",
          "name": "_amount",
          "type": "uint256"
        },
        {
          "internalType": "bytes32",
          "name": "symbol",
          "type": "bytes32"
        }
      ],
      "name": "withdrawToken",
      "outputs": [],
      "stateMutability": "nonpayable",
      "type": "function"
    },
    {
      "inputs": [
        {
          "internalType": "address",
          "name": "_token",
          "type": "address"
        }
      ],
      "name": "addAllowedTokens",
      "outputs": [],
      "stateMutability": "nonpayable",
      "type": "function"
    },
    {
      "inputs": [
        {
          "internalType": "address",
          "name": "_token",
          "type": "address"
        },
        {
          "internalType": "address",
          "name": "_priceFeed",
          "type": "address"
        }
      ],
      "name": "setPriceFeedAddress",
      "outputs": [],
      "stateMutability": "nonpayable",
      "type": "function"
    },
    {
      "inputs": [
        {
          "internalType": "uint256",
          "name": "_amount",
          "type": "uint256"
        },
        {
          "internalType": "address",
          "name": "_token",
          "type": "address"
        }
      ],
      "name": "stakeTokens",
      "outputs": [],
      "stateMutability": "nonpayable",
      "type": "function"
    },
    {
      "inputs": [
        {
          "internalType": "address",
          "name": "_token",
          "type": "address"
        }
      ],
      "name": "unstakeToken",
      "outputs": [],
      "stateMutability": "nonpayable",
      "type": "function"
    },
    {
      "inputs": [],
      "name": "issueRewardTokens",
      "outputs": [],
      "stateMutability": "nonpayable",
      "type": "function"
    },
    {
      "inputs": [
        {
          "internalType": "address",
          "name": "_user",
          "type": "address"
        }
      ],
      "name": "getUserTotalValue",
      "outputs": [
        {
          "internalType": "uint256",
          "name": "",
          "type": "uint256"
        }
      ],
      "stateMutability": "view",
      "type": "function"
    },
    {
      "inputs": [
        {
          "internalType": "address",
          "name": "_user",
          "type": "address"
        },
        {
          "internalType": "address",
          "name": "_token",
          "type": "address"
        }
      ],
      "name": "getUserSingleTokenValue",
      "outputs": [
        {
          "internalType": "uint256",
          "name": "",
          "type": "uint256"
        }
      ],
      "stateMutability": "view",
      "type": "function"
    },
    {
      "inputs": [
        {
          "internalType": "address",
          "name": "_token",
          "type": "address"
        }
      ],
      "name": "getTokenValue",
      "outputs": [
        {
          "internalType": "uint256",
          "name": "",
          "type": "uint256"
        },
        {
          "internalType": "uint256",
          "name": "",
          "type": "uint256"
        }
      ],
      "stateMutability": "view",
      "type": "function"
    },
    {
      "inputs": [
        {
          "internalType": "address",
          "name": "_token",
          "type": "address"
        }
      ],
      "name": "tokenIsAllowed",
      "outputs": [
        {
          "internalType": "bool",
          "name": "",
          "type": "bool"
        }
      ],
      "stateMutability": "view",
      "type": "function"
    }
  ],
  "bytecode": "0x60806040523480156200001157600080fd5b50604051620046dc380380620046dc8339810160408190526200003491620000b5565b6200003f3362000065565b601080546001600160a01b0319166001600160a01b0392909216919091179055620000e7565b600080546001600160a01b038381166001600160a01b0319831681178455604051919092169283917f8be0079c531659141344cd1fd0a4f28419497f9722a3daafe3b4186f6b6457e09190a35050565b600060208284031215620000c857600080fd5b81516001600160a01b0381168114620000e057600080fd5b9392505050565b6145e580620000f76000396000f3fe608060405260043610620002475760003560e01c80638da5cb5b116200013b578063c311d04911620000b9578063dd5b84671162000078578063dd5b84671462000799578063f1c5d6c214620007be578063f2fde38b14620007f9578063f851418d146200081e578063fd5e6dd1146200085857600080fd5b8063c311d04914620006e0578063d0d3b23f1462000705578063d116c149146200072a578063d159e7e0146200074f578063d2e397e7146200077457600080fd5b8063af3f5e221162000106578063af3f5e22146200060a578063b83e0234146200062f578063bb189ac21462000660578063bb9e42471462000685578063c0c1eebc14620006bb57600080fd5b80638da5cb5b14620005125780638e7394611462000532578063a1fdc0fd146200056e578063a87430ba146200059357600080fd5b806359658c4811620001c957806373ca0d7e116200019457806373ca0d7e146200043c5780637d34900a1462000461578063812aa8eb1462000486578063823a71af14620004c05780638337bb8c14620004d857600080fd5b806359658c4814620003c25780635e5f2e2614620003e7578063630392c0146200040c578063715018a6146200042457600080fd5b8063171e44ea1162000216578063171e44ea14620002fc5780632092cb331462000321578063276b11da146200034857806329161a00146200037c578063439370b114620003b857600080fd5b8063036a1c22146200024c5780630bea440d146200028e5780630d0adc8e14620002b5578063125f9e3314620002da575b600080fd5b3480156200025957600080fd5b50620002716200026b366004620024a7565b6200087d565b6040516001600160a01b0390911681526020015b60405180910390f35b3480156200029b57600080fd5b50620002b3620002ad366004620024e4565b620008a8565b005b348015620002c257600080fd5b5062000271620002d4366004620024a7565b62000ae3565b348015620002e757600080fd5b5060105462000271906001600160a01b031681565b3480156200030957600080fd5b50620002b36200031b3660046200231c565b62000b16565b3480156200032e57600080fd5b506200033962000bbb565b60405162000285919062002618565b3480156200035557600080fd5b506200036d620003673660046200233c565b62000c2b565b60405190815260200162000285565b3480156200038957600080fd5b506200036d6200039b3660046200233c565b600b60209081526000928352604080842090915290825290205481565b620002b362000cbc565b348015620003cf57600080fd5b50620002b3620003e13660046200231c565b62000d0c565b348015620003f457600080fd5b506200027162000406366004620024a7565b62000df8565b3480156200041957600080fd5b50620002b362000e09565b3480156200043157600080fd5b50620002b362000f50565b3480156200044957600080fd5b50620002b36200045b3660046200231c565b62000f8b565b3480156200046e57600080fd5b50620002b362000480366004620024c1565b62001107565b3480156200049357600080fd5b50620004ab620004a53660046200231c565b620012a1565b604051620002859796959493929190620026f3565b348015620004cd57600080fd5b50620003396200137f565b348015620004e557600080fd5b5062000271620004f7366004620024a7565b6004602052600090815260409020546001600160a01b031681565b3480156200051f57600080fd5b506000546001600160a01b031662000271565b3480156200053f57600080fd5b506200036d62000551366004620024a7565b336000908152600960209081526040808320938352929052205490565b3480156200057b57600080fd5b50620002b36200058d3660046200233c565b620013e1565b348015620005a057600080fd5b50620005e2620005b23660046200231c565b60056020526000908152604090205460ff808216916001600160a01b0361010082041691600160a81b9091041683565b6040805193151584526001600160a01b03909216602084015215159082015260600162000285565b3480156200061757600080fd5b506200036d620006293660046200231c565b6200143c565b3480156200063c57600080fd5b506200036d6200064e3660046200231c565b600c6020526000908152604090205481565b3480156200066d57600080fd5b50620002716200067f3660046200250c565b62001507565b3480156200069257600080fd5b50620006aa620006a43660046200231c565b62001944565b604051901515815260200162000285565b348015620006c857600080fd5b50620006aa620006da3660046200237a565b620019ab565b348015620006ed57600080fd5b50620006aa620006ff366004620024a7565b62001aa6565b3480156200071257600080fd5b50620002b362000724366004620024c1565b62001b27565b3480156200073757600080fd5b50620002b362000749366004620024c1565b62001bc1565b3480156200075c57600080fd5b50620004ab6200076e366004620024a7565b62001ca6565b3480156200078157600080fd5b50620002b3620007933660046200231c565b62001cee565b348015620007a657600080fd5b50620006aa620007b83660046200231c565b62001f15565b348015620007cb57600080fd5b50620007e3620007dd3660046200231c565b62001f87565b6040805192835260208301919091520162000285565b3480156200080657600080fd5b50620002b3620008183660046200231c565b620020ae565b3480156200082b57600080fd5b50620002716200083d3660046200231c565b600d602052600090815260409020546001600160a01b031681565b3480156200086557600080fd5b506200027162000877366004620024a7565b6200214d565b600681815481106200088e57600080fd5b6000918252602090912001546001600160a01b0316905081565b600082116200090d5760405162461bcd60e51b815260206004820152602660248201527f416d6f756e742068617320746f2062652067726561746572207468616e207a65604482015265726f2028302960d01b60648201526084015b60405180910390fd5b620009188162001f15565b620009665760405162461bcd60e51b815260206004820152601f60248201527f546f6b656e206973206375727272656e746c79206e6f7420616c6c6f77656400604482015260640162000904565b6040516323b872dd60e01b8152336004820152306024820152604481018390526001600160a01b038216906323b872dd90606401602060405180830381600087803b158015620009b557600080fd5b505af1158015620009ca573d6000803e3d6000fd5b505050506040513d601f19601f82011682018060405250810190620009f0919062002483565b50620009fd33826200215e565b6001600160a01b0381166000908152600b6020908152604080832033845290915290205462000a2e90839062002787565b6001600160a01b0382166000908152600b60209081526040808320338452825280832093909355600c905220546001141562000aa757600e80546001810182556000919091527fbb7b4a454dc3493923482f07822329ed19e8244eff582cc204f8554c3620c3fd0180546001600160a01b031916331790555b60405182906001600160a01b0383169033907f17a90bf25d618e67de9bc66de5762d97787b11707d112164ab54c37111467f2b90600090a45050565b60006006828154811062000afb5762000afb62002977565b6000918252602090912001546001600160a01b031692915050565b6000546001600160a01b0316331462000b435760405162461bcd60e51b8152600401620009049062002667565b600f805460018101825560009182527f8d1108e10bcb7c27dddfc02ed9d693a074039d026cf4ea4240b40f7d581ac8020180546001600160a01b0319166001600160a01b03841690811790915560405190917fae340411f33c346ae24187433a8df6e508be40cf0deb3949d51cea12df7fa02191a250565b3360009081526005602090815260409182902060010180548351818402810184019094528084526060939283018282801562000c2157602002820191906000526020600020905b81546001600160a01b0316815260019091019060200180831162000c02575b5050505050905090565b6001600160a01b0382166000908152600c602052604081205462000c525750600062000cb6565b60008062000c608462001f87565b909250905062000c7281600a6200280e565b6001600160a01b038086166000908152600b60209081526040808320938a168352929052205462000ca5908490620028ca565b62000cb19190620027a2565b925050505b92915050565b3360009081526009602090815260408083206208aa8960eb1b845290915290205462000ce99034620021cd565b3360009081526009602090815260408083206208aa8960eb1b8452909152902055565b6000546001600160a01b0316331462000d395760405162461bcd60e51b8152600401620009049062002667565b60008190506000816001600160a01b03166329c68dc16040518163ffffffff1660e01b8152600401602060405180830381600087803b15801562000d7c57600080fd5b505af115801562000d91573d6000803e3d6000fd5b505050506040513d601f19601f8201168201806040525081019062000db7919062002483565b905042811515836001600160a01b03167f71ce7686e91fa8c354084a1684940b6da2d63559a5e4652d1baf5c2c2a9dcfca60405160405180910390a4505050565b600f81815481106200088e57600080fd5b6000546001600160a01b0316331462000e365760405162461bcd60e51b8152600401620009049062002667565b60005b600e5481101562000f4d576000600e828154811062000e5c5762000e5c62002977565b60009182526020822001546001600160a01b0316915062000e7d826200143c565b60105460405163a9059cbb60e01b81526001600160a01b0385811660048301526024820184905292935091169063a9059cbb90604401602060405180830381600087803b15801562000ece57600080fd5b505af115801562000ee3573d6000803e3d6000fd5b505050506040513d601f19601f8201168201806040525081019062000f09919062002483565b5060405142907fc1737d1242e7ecfaa192700d59510c2a7d3b1b1c43de773fa76bcdad94803af490600090a25050808062000f449062002943565b91505062000e39565b50565b6000546001600160a01b0316331462000f7d5760405162461bcd60e51b8152600401620009049062002667565b62000f896000620021e2565b565b6001600160a01b0381166000908152600b602090815260408083203384529091529020548062000ffe5760405162461bcd60e51b815260206004820152601c60248201527f537461636b696e672062616c616e63652063616e6e6f74206265203000000000604482015260640162000904565b60405163a9059cbb60e01b8152336004820152602481018290526001600160a01b0383169063a9059cbb90604401602060405180830381600087803b1580156200104757600080fd5b505af11580156200105c573d6000803e3d6000fd5b505050506040513d601f19601f8201168201806040525081019062001082919062002483565b506001600160a01b0382166000908152600b602090815260408083203384528252808320839055600c909152902054620010bf90600190620028ec565b336000818152600c60205260408082209390935591516001600160a01b038516927f0e433528f384a26b4aa8041a21d2a1a41ba67f3e9e7515da2258dd836053032891a35050565b6000818152600a602052604090205481906001600160a01b0316620011635760405162461bcd60e51b81526020600482015260116024820152702737ba1030903b30b634b2103a37b5b2b760791b604482015260640162000904565b336000908152600960209081526040808320858452909152902054831115620011c75760405162461bcd60e51b815260206004820152601560248201527410985b185b98d948139bdd0814dd59999a58d95b9d605a1b604482015260640162000904565b336000908152600960209081526040808320858452909152902054620011ee908462002232565b336000818152600960209081526040808320878452825280832094909455600a905282902054915163a9059cbb60e01b81526004810191909152602481018590526001600160a01b039091169063a9059cbb906044015b602060405180830381600087803b1580156200126057600080fd5b505af115801562001275573d6000803e3d6000fd5b505050506040513d601f19601f820116820180604052508101906200129b919062002483565b50505050565b6003602052806000526040600020600091509050806000015490806001015490806002015490806003018054620012d89062002906565b80601f0160208091040260200160405190810160405280929190818152602001828054620013069062002906565b8015620013575780601f106200132b5761010080835404028352916020019162001357565b820191906000526020600020905b8154815290600101906020018083116200133957829003601f168201915b505050506004830154600584015460069094015492936001600160a01b039091169290915087565b6060600680548060200260200160405190810160405280929190818152602001828054801562000c21576020028201919060005260206000209081546001600160a01b0316815260019091019060200180831162000c02575050505050905090565b6000546001600160a01b031633146200140e5760405162461bcd60e51b8152600401620009049062002667565b6001600160a01b039182166000908152600d6020526040902080546001600160a01b03191691909216179055565b6001600160a01b0381166000908152600c60205260408120548190620014995760405162461bcd60e51b81526020600482015260116024820152704e6f20746f6b656e73207374616b65642160781b604482015260640162000904565b60005b600f548110156200150057620014dd84600f8381548110620014c257620014c262002977565b6000918252602090912001546001600160a01b031662000c2b565b620014e9908362002787565b915080620014f78162002943565b9150506200149c565b5092915050565b3360009081526005602052604081205460ff16156200152557600080fd5b33600090815260056020526040902054600160a81b900460ff16156200154a57600080fd5b33600081815260056020526040808220805460ff19166001179055519091889188918891889188916200157d9062002240565b6200158e969594939291906200269c565b604051809103906000f080158015620015ab573d6000803e3d6000fd5b509050600060036000836001600160a01b03166001600160a01b031681526020019081526020016000206040518060e0016040529081600082015481526020016001820154815260200160028201548152602001600382018054620016109062002906565b80601f01602080910402602001604051908101604052809291908181526020018280546200163e9062002906565b80156200168f5780601f1062001663576101008083540402835291602001916200168f565b820191906000526020600020905b8154815290600101906020018083116200167157829003601f168201915b505050505081526020016004820160009054906101000a90046001600160a01b03166001600160a01b03166001600160a01b031681526020016005820154815260200160068201548152505090506040518060e0016040528089815260200188815260200187815260200186868080601f016020809104026020016040519081016040528093929190818152602001838380828437600092018290525093855250503360208085019190915260408085018490526001805460609096018690529484526004909152822080546001600160a01b0319166001600160a01b038816179055508154929350620017838362002943565b9091555050600780546001810182556000829052825191027fa66cc928b5edb82af9bd49922954155ab7b0942694bea4ce44661d9a8736c68881019182556020808401517fa66cc928b5edb82af9bd49922954155ab7b0942694bea4ce44661d9a8736c68983015560408401517fa66cc928b5edb82af9bd49922954155ab7b0942694bea4ce44661d9a8736c68a8301556060840151805185949362001850937fa66cc928b5edb82af9bd49922954155ab7b0942694bea4ce44661d9a8736c68b9091019201906200224e565b506080820151600482810180546001600160a01b03199081166001600160a01b039485161790915560a085015160058086019190915560c090950151600694850155336000818152602096875260408082208054610100600160a81b031916610100978c16978802178155875460018181019099557ff652222313e28459528d920b65115c16c04f3efc82aaedc97be59f3f377c0d3f0180548616881790558701805480890182559083528883200180549094168617909355945485529190945292514293927fbb23603d6f3f6ddbe10dbe70633e287a232c78acbccb239b11271844b5be8d7991a4505095945050505050565b600080546001600160a01b03163314620019725760405162461bcd60e51b8152600401620009049062002667565b506001600160a01b0381166000908152600560205260409020805460ff60a81b1916600160a81b90811791829055900460ff165b919050565b600080546001600160a01b03163314620019d95760405162461bcd60e51b8152600401620009049062002667565b6001600160a01b03831662001a295760405162461bcd60e51b8152602060048201526015602482015274496e76616c696420546f6b656e204164647265737360581b604482015260640162000904565b6040805180820182526001600160a01b03948516815260208082018581526000868152600a909252928120915182546001600160a01b031916961695909517815590516001918201556008805491820181559093527ff3f7a9fe364faab93b216da50a3214154f22a0a2b415b23a84c8169e8b636ee39092015590565b3360009081526009602090815260408083206208aa8960eb1b845290915281205482111562001ad457600080fd5b3360009081526009602090815260408083206208aa8960eb1b845290915290205462001b01908362002232565b3360009081526009602090815260408083206208aa8960eb1b8452909152902055919050565b6000818152600a60205260409081902054905163095ea7b360e01b8152306004820152602481018490526001600160a01b039091169063095ea7b390604401602060405180830381600087803b15801562001b8157600080fd5b505af115801562001b96573d6000803e3d6000fd5b505050506040513d601f19601f8201168201806040525081019062001bbc919062002483565b505050565b6000828152600a602052604090205482906001600160a01b031662001c1d5760405162461bcd60e51b81526020600482015260116024820152702737ba1030903b30b634b2103a37b5b2b760791b604482015260640162000904565b33600090815260096020908152604080832086845290915290205462001c449083620021cd565b336000818152600960209081526040808320888452825280832094909455600a90528290205491516323b872dd60e01b81526004810191909152306024820152604481018490526001600160a01b03909116906323b872dd9060640162001245565b6007818154811062001cb757600080fd5b9060005260206000209060070201600091509050806000015490806001015490806002015490806003018054620012d89062002906565b60008190506000816001600160a01b031663829268756040518163ffffffff1660e01b815260040160006040518083038186803b15801562001d2f57600080fd5b505afa15801562001d44573d6000803e3d6000fd5b505050506040513d6000823e601f3d908101601f1916820160405262001d6e9190810190620023a9565b6001600160a01b038085166000908152600360205260408120600401549293509116905b825181101562001f0e5782818151811062001db15762001db162002977565b60200260200101516001600160a01b0316336001600160a01b03161462001e115760405162461bcd60e51b81526020600482015260136024820152722cb7ba9030b932b737ba1030903632b73232b960691b604482015260640162000904565b3360009081526002602090815260408083206001600160a01b03891684528252808320805460ff191660011790556003909152812060050180549162001e578362002943565b909155505082516001600160a01b038616600090815260036020526040902060050154141562001ef9576001600160a01b03821660008181526005602052604090819020805460ff60a81b1916600160a81b9081179182905591517fe10f48804089cca7e3995c4d2eda1c3d12204999a90e2203893115592e9a65e49262001ef0920460ff169042909115158252602082015260400190565b60405180910390a25b8062001f058162002943565b91505062001d92565b5050505050565b6000805b600f5481101562001f7e57826001600160a01b0316600f828154811062001f445762001f4462002977565b6000918252602090912001546001600160a01b0316141562001f695750600192915050565b8062001f758162002943565b91505062001f19565b50600092915050565b6001600160a01b038082166000908152600d6020526040808220548151633fabe5a360e21b815291519293849391169182918491839163feaf968c9160048082019260a092909190829003018186803b15801562001fe457600080fd5b505afa15801562001ff9573d6000803e3d6000fd5b505050506040513d601f19601f820116820180604052508101906200201f91906200259e565b5050509150506000826001600160a01b031663313ce5676040518163ffffffff1660e01b815260040160206040518083038186803b1580156200206157600080fd5b505afa15801562002076573d6000803e3d6000fd5b505050506040513d601f19601f820116820180604052508101906200209c9190620025f3565b919760ff909216965090945050505050565b6000546001600160a01b03163314620020db5760405162461bcd60e51b8152600401620009049062002667565b6001600160a01b038116620021425760405162461bcd60e51b815260206004820152602660248201527f4f776e61626c653a206e6577206f776e657220697320746865207a65726f206160448201526564647265737360d01b606482015260840162000904565b62000f4d81620021e2565b600e81815481106200088e57600080fd5b6001600160a01b038082166000908152600b6020908152604080832093861683529290522054620021c9576001600160a01b0382166000908152600c6020526040902054620021af90600162002787565b6001600160a01b0383166000908152600c60205260409020555b5050565b6000620021db828462002787565b9392505050565b600080546001600160a01b038381166001600160a01b0319831681178455604051919092169283917f8be0079c531659141344cd1fd0a4f28419497f9722a3daafe3b4186f6b6457e09190a35050565b6000620021db8284620028ec565b611bf680620029ba83390190565b8280546200225c9062002906565b90600052602060002090601f016020900481019282620022805760008555620022cb565b82601f106200229b57805160ff1916838001178555620022cb565b82800160010185558215620022cb579182015b82811115620022cb578251825591602001919060010190620022ae565b50620022d9929150620022dd565b5090565b5b80821115620022d95760008155600101620022de565b8051620019a681620029a3565b805169ffffffffffffffffffff81168114620019a657600080fd5b6000602082840312156200232f57600080fd5b8135620021db81620029a3565b600080604083850312156200235057600080fd5b82356200235d81620029a3565b915060208301356200236f81620029a3565b809150509250929050565b600080604083850312156200238e57600080fd5b82356200239b81620029a3565b946020939093013593505050565b60006020808385031215620023bd57600080fd5b825167ffffffffffffffff80821115620023d657600080fd5b818501915085601f830112620023eb57600080fd5b8151818111156200240057620024006200298d565b8060051b604051601f19603f830116810181811085821117156200242857620024286200298d565b604052828152858101935084860182860187018a10156200244857600080fd5b600095505b8386101562002476576200246181620022f4565b8552600195909501949386019386016200244d565b5098975050505050505050565b6000602082840312156200249657600080fd5b81518015158114620021db57600080fd5b600060208284031215620024ba57600080fd5b5035919050565b60008060408385031215620024d557600080fd5b50508035926020909101359150565b60008060408385031215620024f857600080fd5b8235915060208301356200236f81620029a3565b6000806000806000608086880312156200252557600080fd5b853594506020860135935060408601359250606086013567ffffffffffffffff808211156200255357600080fd5b818801915088601f8301126200256857600080fd5b8135818111156200257857600080fd5b8960208285010111156200258b57600080fd5b9699959850939650602001949392505050565b600080600080600060a08688031215620025b757600080fd5b620025c28662002301565b9450602086015193506040860151925060608601519150620025e76080870162002301565b90509295509295909350565b6000602082840312156200260657600080fd5b815160ff81168114620021db57600080fd5b6020808252825182820181905260009190848201906040850190845b818110156200265b5783516001600160a01b03168352928401929184019160010162002634565b50909695505050505050565b6020808252818101527f4f776e61626c653a2063616c6c6572206973206e6f7420746865206f776e6572604082015260600190565b86815285602082015284604082015260a060608201528260a0820152828460c0830137600081840160c0908101919091526001600160a01b03929092166080820152601f909201601f191690910101949350505050565b87815260006020888184015287604084015260e0606084015286518060e085015260005b8181101562002736578881018301518582016101000152820162002717565b818111156200274a57600061010083870101525b50601f01601f1916830161010001915062002772905060808301866001600160a01b03169052565b60a082019390935260c0015295945050505050565b600082198211156200279d576200279d62002961565b500190565b600082620027c057634e487b7160e01b600052601260045260246000fd5b500490565b600181815b8085111562002806578160001904821115620027ea57620027ea62002961565b80851615620027f857918102915b93841c9390800290620027ca565b509250929050565b6000620021db8383600082620028275750600162000cb6565b81620028365750600062000cb6565b81600181146200284f57600281146200285a576200287a565b600191505062000cb6565b60ff8411156200286e576200286e62002961565b50506001821b62000cb6565b5060208310610133831016604e8410600b84101617156200289f575081810a62000cb6565b620028ab8383620027c5565b8060001904821115620028c257620028c262002961565b029392505050565b6000816000190483118215151615620028e757620028e762002961565b500290565b60008282101562002901576200290162002961565b500390565b600181811c908216806200291b57607f821691505b602082108114156200293d57634e487b7160e01b600052602260045260246000fd5b50919050565b60006000198214156200295a576200295a62002961565b5060010190565b634e487b7160e01b600052601160045260246000fd5b634e487b7160e01b600052603260045260246000fd5b634e487b7160e01b600052604160045260246000fd5b6001600160a01b038116811462000f4d57600080fdfe60806040526200001142600162000529565b600855600a805460ff191660011790553480156200002e57600080fd5b5060405162001bf638038062001bf6833981016040819052620000519162000418565b6200005c33620002e2565b600480546001600160a01b0319166001600160a01b03831617905560408051661a5b9d1c995cdd60ca1b815260026007820181905282519182900360270182208690556e1c995c5d595cdd1959105b5bdd5b9d608a1b8252600f8201819052825191829003602f0182208890557f72657175657374656452657061796d656e74730000000000000000000000000082526013808301829052835192839003603390810184208990557f72656d61696e696e6752657061796d656e747300000000000000000000000000845290830191909152915190819003909101902084905562000154858462000332602090811b6200124517901c565b6040516b1c995d1d5c9b905b5bdd5b9d60a21b8152600290600c01908152602001604051809103902081905550620001cb846002604051620001a8906b1c995d1d5c9b905b5bdd5b9d60a21b8152600c0190565b9081526020016040518091039020546200034760201b620012581790919060201c565b604080517f72657061796d656e74496e7374616c6c6d656e7400000000000000000000000081526002601482015290519081900360340190205581516200021a90600990602085019062000355565b5042600655600380546001600160a01b0319163317905560405160009060019062000257906b1b195b99195c9cd0dbdd5b9d60a21b8152600c0190565b908152604051908190036020018120919091556a7265766f6b65566f74657360a81b8152600090600190600b01908152604051602091819003919091018120919091556000805460ff60a01b1916815542916001600160a01b038416917fd6b0a532be6a7986b9de41fbbf991ac71079eb4c48f5f46913a7e16f194ddb6e91a35050505050620005c6565b600080546001600160a01b038381166001600160a01b0319831681178455604051919092169283917f8be0079c531659141344cd1fd0a4f28419497f9722a3daafe3b4186f6b6457e09190a35050565b600062000340828462000529565b9392505050565b600062000340828462000550565b828054620003639062000573565b90600052602060002090601f016020900481019282620003875760008555620003d2565b82601f10620003a257805160ff1916838001178555620003d2565b82800160010185558215620003d2579182015b82811115620003d2578251825591602001919060010190620003b5565b50620003e0929150620003e4565b5090565b5b80821115620003e05760008155600101620003e5565b80516001600160a01b03811681146200041357600080fd5b919050565b600080600080600060a086880312156200043157600080fd5b8551602080880151604089015160608a01519398509096509450906001600160401b03808211156200046257600080fd5b818901915089601f8301126200047757600080fd5b8151818111156200048c576200048c620005b0565b604051601f8201601f19908116603f01168101908382118183101715620004b757620004b7620005b0565b816040528281528c86848701011115620004d057600080fd5b600093505b82841015620004f45784840186015181850187015292850192620004d5565b82841115620005065760008684830101525b8097505050505050506200051d60808701620003fb565b90509295509295909350565b600082198211156200054b57634e487b7160e01b600052601160045260246000fd5b500190565b6000826200056e57634e487b7160e01b600052601260045260246000fd5b500490565b600181811c908216806200058857607f821691505b60208210811415620005aa57634e487b7160e01b600052602260045260246000fd5b50919050565b634e487b7160e01b600052604160045260246000fd5b61162080620005d66000396000f3fe6080604052600436106100f35760003560e01c80636e021df71161008a578063e8b5e51f11610059578063e8b5e51f14610263578063efd475ab1461026b578063f06817cf14610280578063f2fde38b146102ac57600080fd5b80636e021df7146101d6578063715018a61461020e57806382926875146102235780638da5cb5b1461024557600080fd5b80633ccfd60b116100c65780633ccfd60b1461018f578063402d8883146101a457806343c14b22146101ac578063590e1ae3146101c157600080fd5b806312065fe0146100f8578063268f11531461011857806328fd10d71461013a57806329c68dc11461017a575b600080fd5b34801561010457600080fd5b506040514781526020015b60405180910390f35b34801561012457600080fd5b50610138610133366004611334565b6102cc565b005b34801561014657600080fd5b5061016a61015536600461130b565b600c6020526000908152604090205460ff1681565b604051901515815260200161010f565b34801561018657600080fd5b5061016a610363565b34801561019b57600080fd5b506101386103de565b610138610539565b3480156101b857600080fd5b506101386107e5565b3480156101cd57600080fd5b50610138610928565b3480156101e257600080fd5b506101f66101f1366004611355565b610a57565b6040516001600160a01b03909116815260200161010f565b34801561021a57600080fd5b50610138610a81565b34801561022f57600080fd5b50610238610ab7565b60405161010f9190611448565b34801561025157600080fd5b506000546001600160a01b03166101f6565b610138610b44565b34801561027757600080fd5b50610138610dc6565b34801561028c57600080fd5b50610295610fa7565b60405161010f9b9a99989796959493929190611390565b3480156102b857600080fd5b506101386102c736600461130b565b6111ad565b6000546001600160a01b031633146102ff5760405162461bcd60e51b81526004016102f690611495565b60405180910390fd5b6000805482919060ff60a01b1916600160a01b836005811115610324576103246115b4565b02179055506000544290600160a01b900460ff166005811115610349576103496115b4565b6040516000805160206115cb83398151915290600090a350565b600080546001600160a01b0316331461038e5760405162461bcd60e51b81526004016102f690611495565b600a805460ff19811660ff9182161590811790925560405142929091161515907f8fcb8b9c907c3d63d35e1f35de0ecdc8618c3b3d752a1fd7ea77292f7789124690600090a350600a5460ff1690565b600a5460ff1615156001146103f257600080fd5b6004546001600160a01b0316331461040957600080fd5b6040516e1c995c5d595cdd1959105b5bdd5b9d608a1b8152600290600f0190815260200160405180910390205447101561044257600080fd5b6005600054600160a01b900460ff166005811115610462576104626115b4565b141561046d57600080fd5b6000805460ff60a01b1916600160a01b9081179182905542910460ff16600581111561049b5761049b6115b4565b6040516000805160206115cb83398151915290600090a36040514290479033907f7dc4c37201ed56b6c6e0a05290eb94e64040786a508fff228cf7f79423b643c590600090a4604051600090339047908381818185875af1925050503d8060008114610523576040519150601f19603f3d011682016040523d82523d6000602084013e610528565b606091505b505090508061053657600080fd5b50565b6004546001600160a01b0316331461055057600080fd5b6001600054600160a01b900460ff166005811115610570576105706115b4565b1461057a57600080fd5b600060026040516105a4907272656d61696e696e6752657061796d656e747360681b815260130190565b908152602001604051809103902054116105bd57600080fd5b604051731c995c185e5b595b9d125b9cdd185b1b1b595b9d60621b81526002906014019081526020016040518091039020543410156105fb57600080fd5b6040517272656d61696e696e6752657061796d656e747360681b8152600290601301908152604051908190036020019020805490600061063a8361151b565b909155505042600755604051731c995c185e5b595b9d125b9cdd185b1b1b595b9d60621b815260009060029060140190815260200160405180910390205434111561071c576106c260026040516106ab90731c995c185e5b595b9d125b9cdd185b1b1b595b9d60621b815260140190565b908152604051908190036020019020543490611264565b604051909150600090339083908381818185875af1925050503d8060008114610707576040519150601f19603f3d011682016040523d82523d6000602084013e61070c565b606091505b505090508061071a57600080fd5b505b426107273483611264565b60405133907f3fb95d44e159e2cf279d6cb5fd3d694601f47aa11311cf0db500354af34518a790600090a461076861075f3483611264565b60055490611245565b6005556040516b1c995d1d5c9b905b5bdd5b9d60a21b8152600290600c01908152602001604051809103902054600554141561053657604051429033907f88c3c6dc70a5cff89078a4ab563dafce790b6f69d88c77fd2bbe7a4d53f12b7090600090a3600080546002919060ff60a01b1916600160a01b83610324565b600a5460ff1615156001146107f957600080fd5b60085442101561080857600080fd5b60008054600160a01b900460ff166005811115610827576108276115b4565b1461083157600080fd5b336000908152600c602052604090205460ff16151560011461085257600080fd5b336000908152600b602052604090205460ff161561086f57600080fd5b60006001604051610891906a7265766f6b65566f74657360a81b8152600b0190565b908152604051908190036020018120546b1b195b99195c9cd0dbdd5b9d60a21b82529150600090600190600c01908152602001604051809103902054905081806108da9061156d565b336000818152600b60205260405192955042935090917fe34f4c35680db62badf230c91431ddb53698ee30e6291e7ba2c29e87083fa5319190a38181141561092457610924611270565b5050565b600a5460ff16151560011461093c57600080fd5b336000908152600c602052604090205460ff16151560011461095d57600080fd5b6004600054600160a01b900460ff16600581111561097d5761097d6115b4565b1461098757600080fd5b336000908152600d6020526040902054478111156109a457600080fd5b604051339082156108fc029083906000818181858888f193505050501580156109d1573d6000803e3d6000fd5b506040514290829033907fe7afe2021ef5a8fe5e543b38f37e6a7799d26907b92fb1e3d24dd7a06e74ff6790600090a44761053657600a805460ff1916905560405142906000907f8fcb8b9c907c3d63d35e1f35de0ecdc8618c3b3d752a1fd7ea77292f77891246908290a3600080546003919060ff60a01b1916600160a01b83610324565b600e8181548110610a6757600080fd5b6000918252602090912001546001600160a01b0316905081565b6000546001600160a01b03163314610aab5760405162461bcd60e51b81526004016102f690611495565b610ab560006112bb565b565b6000546060906001600160a01b03163314610ae45760405162461bcd60e51b81526004016102f690611495565b600e805480602002602001604051908101604052809291908181526020018280548015610b3a57602002820191906000526020600020905b81546001600160a01b03168152600190910190602001808311610b1c575b5050505050905090565b60008054600160a01b900460ff166005811115610b6357610b636115b4565b14610b6d57600080fd5b60006001604051610b90906b1b195b99195c9cd0dbdd5b9d60a21b8152600c0190565b908152604051908190036020018120546e1c995c5d595cdd1959105b5bdd5b9d608a1b82529150600090600290600f019081526020016040518091039020544710610ce757610c136002604051610bfc906e1c995c5d595cdd1959105b5bdd5b9d608a1b8152600f0190565b908152604051908190036020019020544790611264565b90508015610ca157604051600090339083908381818185875af1925050503d8060008114610c5d576040519150601f19603f3d011682016040523d82523d6000602084013e610c62565b606091505b5050905080610c7057600080fd5b6040514290839033907f2e2503bd032926fd7c2f6f2e1779b83841a24ab4d41accf43c89793c26f4cf6d90600090a4505b6000805460ff60a01b1916600160a01b9081179182905542910460ff166005811115610ccf57610ccf6115b4565b6040516000805160206115cb83398151915290600090a35b336000818152600c60205260408120805460ff19166001908117909155600e805491820181559091527fbb7b4a454dc3493923482f07822329ed19e8244eff582cc204f8554c3620c3fd0180546001600160a01b031916909117905581610d4d8161156d565b9250610d749050610d5e3483611264565b336000908152600d602052604090205490611245565b336000908152600d602052604090205542610d8f3483611264565b6040513381527f90ba96906dd7ba676e83e5be593cbf08e08ae7af573a546478e7e61526fb68fa9060200160405180910390a35050565b600a5460ff161515600114610dda57600080fd5b336000908152600c602052604090205460ff161515600114610dfb57600080fd5b6002600054600160a01b900460ff166005811115610e1b57610e1b6115b4565b14610e2557600080fd5b336000908152600d6020526040902054610e3e57600080fd5b60006001604051610e61906b1b195b99195c9cd0dbdd5b9d60a21b8152600c0190565b90815260200160405180910390205490506000816002604051610e96906b1c995d1d5c9b905b5bdd5b9d60a21b8152600c0190565b908152602001604051809103902054610eaf91906114e2565b905080471015610ec157610ec1611588565b604051339082156108fc029083906000818181858888f19350505050158015610eee573d6000803e3d6000fd5b506040514290829033907f87a3bdf95d74f9ddbb5e43fa19605b0f0610ff18829384e905031dc75d85a3b290600090a44761092457600a805460ff1916905560405142906000907f8fcb8b9c907c3d63d35e1f35de0ecdc8618c3b3d752a1fd7ea77292f77891246908290a36000805460ff60a01b1916600360a01b17908190554290600160a01b900460ff166005811115610f8c57610f8c6115b4565b6040516000805160206115cb83398151915290600090a35050565b600060606000806000806000806000806000600460009054906101000a90046001600160a01b031660096002604051610ff5906e1c995c5d595cdd1959105b5bdd5b9d608a1b8152600f0190565b908152604051908190036020018120547272657175657374656452657061796d656e747360681b82529060029060130190815260405190819003602001812054731c995c185e5b595b9d125b9cdd185b1b1b595b9d60621b825290600290601401908152604051908190036020018120547272656d61696e696e6752657061796d656e747360681b82529060029060130190815260405190819003602001812054661a5b9d1c995cdd60ca1b825290600290600701908152604051908190036020018120546b1c995d1d5c9b905b5bdd5b9d60a21b825290600290600c0190815260405190819003602001902054600054600a54885460ff600160a01b909304831692919091169047908a9061110a90611532565b80601f016020809104026020016040519081016040528092919081815260200182805461113690611532565b80156111835780601f1061115857610100808354040283529160200191611183565b820191906000526020600020905b81548152906001019060200180831161116657829003601f168201915b505050505099509a509a509a509a509a509a509a509a509a509a509a50909192939495969798999a565b6000546001600160a01b031633146111d75760405162461bcd60e51b81526004016102f690611495565b6001600160a01b03811661123c5760405162461bcd60e51b815260206004820152602660248201527f4f776e61626c653a206e6577206f776e657220697320746865207a65726f206160448201526564647265737360d01b60648201526084016102f6565b610536816112bb565b600061125182846114ca565b9392505050565b600061125182846114e2565b60006112518284611504565b6000805460ff60a01b1916600160a21b17908190554290600160a01b900460ff1660058111156112a2576112a26115b4565b6040516000805160206115cb83398151915290600090a3565b600080546001600160a01b038381166001600160a01b0319831681178455604051919092169283917f8be0079c531659141344cd1fd0a4f28419497f9722a3daafe3b4186f6b6457e09190a35050565b60006020828403121561131d57600080fd5b81356001600160a01b038116811461125157600080fd5b60006020828403121561134657600080fd5b81356006811061125157600080fd5b60006020828403121561136757600080fd5b5035919050565b6006811061138c57634e487b7160e01b600052602160045260246000fd5b9052565b6001600160a01b038c168152610160602082018190528b5190820181905260009081905b808210156113d6576020828f01015161018083860101526020820191506113b4565b808211156113e957600061018082860101525b610180601f19601f830116850101925050508a60408301528960608301528860808301528760a08301528660c08301528560e083015261142d61010083018661136e565b92151561012082015261014001529998505050505050505050565b6020808252825182820181905260009190848201906040850190845b818110156114895783516001600160a01b031683529284019291840191600101611464565b50909695505050505050565b6020808252818101527f4f776e61626c653a2063616c6c6572206973206e6f7420746865206f776e6572604082015260600190565b600082198211156114dd576114dd61159e565b500190565b6000826114ff57634e487b7160e01b600052601260045260246000fd5b500490565b6000828210156115165761151661159e565b500390565b60008161152a5761152a61159e565b506000190190565b600181811c9082168061154657607f821691505b6020821081141561156757634e487b7160e01b600052602260045260246000fd5b50919050565b60006000198214156115815761158161159e565b5060010190565b634e487b7160e01b600052600160045260246000fd5b634e487b7160e01b600052601160045260246000fd5b634e487b7160e01b600052602160045260246000fdfea1f57b4d2e1dbc2fb780a8bf1d654bff435e9ae4d78f0090aa1424de456e1aa2a2646970667358221220d954cea4846e61606ae48f0e0d54c145fafcbf8d672b667361172875584b68b764736f6c63430008070033a264697066735822122013f354fc4ad6970cda6e479ea10e94a2200af42cf0e06304700de1450c04b93a64736f6c63430008070033",
  "immutableReferences": {},
  "source": "// SPDX-License-Identifier: MIT\r\n\r\npragma solidity 0.8.7;\r\n\r\nimport \"@openzeppelin/contracts/access/Ownable.sol\";\r\nimport \"@openzeppelin/contracts/token/ERC20/IERC20.sol\";\r\nimport \"@chainlink/contracts/src/v0.8/interfaces/AggregatorV3Interface.sol\";\r\nimport \"@openzeppelin/contracts/utils/math/SafeMath.sol\";\r\nimport \"./P2PLending.sol\";\r\nimport \"./Wallet.sol\";\r\n\r\ncontract YieldFarm is Ownable, P2PLending, Wallet {\r\n    using SafeMath for uint;\r\n    // mapping token address -> staker address -> amount\r\n\r\n    event NewTokenAdded(address indexed token);\r\n    event TokenStaked(address indexed staker, address indexed token, uint indexed amount);\r\n    event TokenUnstaked(address indexed staker, address indexed token);\r\n    event RewardTokenIssued(uint indexed time);\r\n\r\n    mapping(address => mapping(address => uint256)) public stakingBalance;\r\n    mapping(address => uint256) public uniqueTokensStaked;\r\n    mapping(address => address) public tokenPriceFeedMap;\r\n    address[] public stakers;\r\n    address[] public allowedTokens;\r\n    address public rewardTokenAddress;\r\n    //IERC20 public TST;\r\n\r\n    constructor(address _rewardTokenAddress) {\r\n        rewardTokenAddress = _rewardTokenAddress;\r\n    }\r\n\r\n    function addAllowedTokens(address _token) public onlyOwner {\r\n        allowedTokens.push(_token);\r\n\r\n        emit NewTokenAdded(_token);\r\n    }\r\n\r\n    function setPriceFeedAddress(address _token, address _priceFeed) public onlyOwner {\r\n        tokenPriceFeedMap[_token] = _priceFeed;\r\n    }\r\n\r\n    function stakeTokens(uint256 _amount, address _token) public {\r\n        require(_amount > 0, \"Amount has to be greater than zero (0)\");\r\n        require(tokenIsAllowed(_token), \"Token is currrently not allowed\");\r\n        \r\n        IERC20(_token).transferFrom(msg.sender, address(this), _amount);\r\n        updateUniqueTokensStaked(msg.sender, _token);\r\n        stakingBalance[_token][msg.sender] = stakingBalance[_token][msg.sender] + _amount;\r\n        \r\n        if (uniqueTokensStaked[msg.sender] == 1) {\r\n            stakers.push(msg.sender);\r\n        }\r\n\r\n        emit TokenStaked(msg.sender, _token, _amount);\r\n\r\n    }\r\n\r\n    function updateUniqueTokensStaked(address _user, address _token) internal {\r\n        if (stakingBalance[_token][_user] <= 0) {\r\n            uniqueTokensStaked[_user] = uniqueTokensStaked[_user] + 1;\r\n        }\r\n    }\r\n\r\n    function unstakeToken(address _token) public {\r\n        uint balance = stakingBalance[_token][msg.sender];\r\n        require(balance > 0, \"Stacking balance cannot be 0\");\r\n        IERC20(_token).transfer(msg.sender, balance);\r\n        stakingBalance[_token][msg.sender] = 0;\r\n        uniqueTokensStaked[msg.sender] = uniqueTokensStaked[msg.sender] - 1;\r\n\r\n        emit TokenUnstaked(msg.sender, _token);\r\n    }\r\n\r\n    function issueRewardTokens() public onlyOwner {\r\n        for ( uint stakersIndex = 0; stakersIndex < stakers.length; stakersIndex++) {\r\n            \r\n            address recipient = stakers[stakersIndex];\r\n            uint userTotalValue = getUserTotalValue(recipient);\r\n            IERC20(rewardTokenAddress).transfer(recipient, userTotalValue);\r\n            // send them a token reward based on their total value locked\r\n\r\n            emit RewardTokenIssued(block.timestamp);\r\n        }\r\n    }\r\n\r\n    function getUserTotalValue(address _user) public view returns (uint) {\r\n        uint totalValue = 0;\r\n        require(uniqueTokensStaked[_user] > 0, \"No tokens staked!\");\r\n        for (uint allowedTokensIndex = 0; allowedTokensIndex < allowedTokens.length; allowedTokensIndex++) {\r\n            totalValue = totalValue + getUserSingleTokenValue( _user, allowedTokens[allowedTokensIndex] );\r\n        }\r\n        \r\n        return totalValue;\r\n    }\r\n\r\n    function getUserSingleTokenValue(address _user, address _token) public view returns (uint){\r\n        \r\n        if (uniqueTokensStaked[_user] <= 0) {\r\n            return 0;\r\n        }\r\n        // this gives us the price of the token\r\n        (uint256 price, uint256 decimals) = getTokenValue(_token);\r\n        return ((stakingBalance[_token][_user] * price) / (10**decimals));\r\n    }\r\n\r\n    function getTokenValue(address _token) public view returns (uint, uint)\r\n    {\r\n        //price feed address\r\n        address priceFeedAddress = tokenPriceFeedMap[_token];\r\n        AggregatorV3Interface priceFeed = AggregatorV3Interface( priceFeedAddress );\r\n        \r\n        (, int256 price, , , ) = priceFeed.latestRoundData();\r\n        uint decimals = uint(priceFeed.decimals());\r\n        \r\n        return (uint(price), decimals);\r\n    }\r\n\r\n    \r\n    function tokenIsAllowed(address _token) view public returns (bool) {\r\n        for ( uint allowedTokensIndex = 0; allowedTokensIndex < allowedTokens.length; allowedTokensIndex++ ) {\r\n            \r\n            if (allowedTokens[allowedTokensIndex] == _token) {\r\n                return true;\r\n            }\r\n        }\r\n        \r\n        return false;\r\n    }\r\n}",
  "sourcePath": "C:\\Users\\USER\\Desktop\\Projects\\Credit_and_staking\\contracts\\YeildFarm.sol",
  "compiler": {
    "name": "solc",
    "version": "0.8.7+commit.e28d00a7.Emscripten.clang"
  },
  "schemaVersion": "3.4.6",
  "updatedAt": "2022-04-21T14:44:04.284Z",
  "devdoc": {
    "kind": "dev",
    "methods": {
      "fraudVote(address)": {
        "details": "Function for voting the borrower as fraudster."
      },
      "owner()": {
        "details": "Returns the address of the current owner."
      },
      "renounceOwnership()": {
        "details": "Leaves the contract without owner. It will not be possible to call `onlyOwner` functions anymore. Can only be called by the current owner. NOTE: Renouncing ownership will leave the contract without an owner, thereby removing any functionality that is only available to the owner."
      },
      "transferOwnership(address)": {
        "details": "Transfers ownership of the contract to a new account (`newOwner`). Can only be called by the current owner."
      }
    },
    "version": 1
  },
  "userdoc": {
    "kind": "user",
    "methods": {},
    "version": 1
  }
}